{
	"Crowdfunding.sol": {
		"Crowdfunding": {
			"abi": [
				{
					"inputs": [
						{
							"internalType": "uint256",
							"name": "_goal",
							"type": "uint256"
						},
						{
							"internalType": "uint256",
							"name": "_durationDays",
							"type": "uint256"
						}
					],
					"stateMutability": "nonpayable",
					"type": "constructor"
				},
				{
					"inputs": [],
					"name": "contribute",
					"outputs": [],
					"stateMutability": "payable",
					"type": "function"
				},
				{
					"inputs": [
						{
							"internalType": "address",
							"name": "",
							"type": "address"
						}
					],
					"name": "contributions",
					"outputs": [
						{
							"internalType": "uint256",
							"name": "",
							"type": "uint256"
						}
					],
					"stateMutability": "view",
					"type": "function"
				},
				{
					"inputs": [],
					"name": "deadline",
					"outputs": [
						{
							"internalType": "uint256",
							"name": "",
							"type": "uint256"
						}
					],
					"stateMutability": "view",
					"type": "function"
				},
				{
					"inputs": [],
					"name": "getContractBalance",
					"outputs": [
						{
							"internalType": "uint256",
							"name": "",
							"type": "uint256"
						}
					],
					"stateMutability": "view",
					"type": "function"
				},
				{
					"inputs": [],
					"name": "goal",
					"outputs": [
						{
							"internalType": "uint256",
							"name": "",
							"type": "uint256"
						}
					],
					"stateMutability": "view",
					"type": "function"
				},
				{
					"inputs": [],
					"name": "owner",
					"outputs": [
						{
							"internalType": "address",
							"name": "",
							"type": "address"
						}
					],
					"stateMutability": "view",
					"type": "function"
				},
				{
					"inputs": [],
					"name": "refund",
					"outputs": [],
					"stateMutability": "nonpayable",
					"type": "function"
				},
				{
					"inputs": [],
					"name": "totalFunds",
					"outputs": [
						{
							"internalType": "uint256",
							"name": "",
							"type": "uint256"
						}
					],
					"stateMutability": "view",
					"type": "function"
				},
				{
					"inputs": [],
					"name": "withdraw",
					"outputs": [],
					"stateMutability": "nonpayable",
					"type": "function"
				}
			],
			"devdoc": {
				"kind": "dev",
				"methods": {},
				"version": 1
			},
			"evm": {
				"assembly": "    /* \"Crowdfunding.sol\":60:1946  contract Crowdfunding{... */\n  mstore(0x40, 0x80)\n    /* \"Crowdfunding.sol\":306:531  constructor(uint _goal, uint _durationDays) {... */\n  callvalue\n  dup1\n  iszero\n  tag_1\n  jumpi\n  revert(0x00, 0x00)\ntag_1:\n  pop\n  mload(0x40)\n  sub(codesize, bytecodeSize)\n  dup1\n  bytecodeSize\n  dup4\n  codecopy\n  dup2\n  dup2\n  add\n  0x40\n  mstore\n  dup2\n  add\n  swap1\n  tag_2\n  swap2\n  swap1\n  tag_3\n  jump\t// in\ntag_2:\n    /* \"Crowdfunding.sol\":369:379  msg.sender */\n  caller\n    /* \"Crowdfunding.sol\":361:366  owner */\n  0x00\n  0x00\n    /* \"Crowdfunding.sol\":361:379  owner = msg.sender */\n  0x0100\n  exp\n  dup2\n  sload\n  dup2\n  0xffffffffffffffffffffffffffffffffffffffff\n  mul\n  not\n  and\n  swap1\n  dup4\n  0xffffffffffffffffffffffffffffffffffffffff\n  and\n  mul\n  or\n  swap1\n  sstore\n  pop\n    /* \"Crowdfunding.sol\":422:427  _goal */\n  dup2\n    /* \"Crowdfunding.sol\":415:419  goal */\n  0x01\n    /* \"Crowdfunding.sol\":415:427  goal = _goal */\n  dup2\n  swap1\n  sstore\n  pop\n    /* \"Crowdfunding.sol\":484:490  1 days */\n  0x015180\n    /* \"Crowdfunding.sol\":468:481  _durationDays */\n  dup2\n    /* \"Crowdfunding.sol\":468:490  _durationDays * 1 days */\n  tag_6\n  swap2\n  swap1\n  tag_7\n  jump\t// in\ntag_6:\n    /* \"Crowdfunding.sol\":449:464  block.timestamp */\n  timestamp\n    /* \"Crowdfunding.sol\":449:491  block.timestamp + (_durationDays * 1 days) */\n  tag_8\n  swap2\n  swap1\n  tag_9\n  jump\t// in\ntag_8:\n    /* \"Crowdfunding.sol\":438:446  deadline */\n  0x02\n    /* \"Crowdfunding.sol\":438:491  deadline = block.timestamp + (_durationDays * 1 days) */\n  dup2\n  swap1\n  sstore\n  pop\n    /* \"Crowdfunding.sol\":306:531  constructor(uint _goal, uint _durationDays) {... */\n  pop\n  pop\n    /* \"Crowdfunding.sol\":60:1946  contract Crowdfunding{... */\n  jump(tag_10)\n    /* \"#utility.yul\":88:205   */\ntag_12:\n    /* \"#utility.yul\":197:198   */\n  0x00\n    /* \"#utility.yul\":194:195   */\n  0x00\n    /* \"#utility.yul\":187:199   */\n  revert\n    /* \"#utility.yul\":334:411   */\ntag_14:\n    /* \"#utility.yul\":371:378   */\n  0x00\n    /* \"#utility.yul\":400:405   */\n  dup2\n    /* \"#utility.yul\":389:405   */\n  swap1\n  pop\n    /* \"#utility.yul\":334:411   */\n  swap2\n  swap1\n  pop\n  jump\t// out\n    /* \"#utility.yul\":417:539   */\ntag_15:\n    /* \"#utility.yul\":490:514   */\n  tag_24\n    /* \"#utility.yul\":508:513   */\n  dup2\n    /* \"#utility.yul\":490:514   */\n  tag_14\n  jump\t// in\ntag_24:\n    /* \"#utility.yul\":483:488   */\n  dup2\n    /* \"#utility.yul\":480:515   */\n  eq\n    /* \"#utility.yul\":470:533   */\n  tag_25\n  jumpi\n    /* \"#utility.yul\":529:530   */\n  0x00\n    /* \"#utility.yul\":526:527   */\n  0x00\n    /* \"#utility.yul\":519:531   */\n  revert\n    /* \"#utility.yul\":470:533   */\ntag_25:\n    /* \"#utility.yul\":417:539   */\n  pop\n  jump\t// out\n    /* \"#utility.yul\":545:688   */\ntag_16:\n    /* \"#utility.yul\":602:607   */\n  0x00\n    /* \"#utility.yul\":633:639   */\n  dup2\n    /* \"#utility.yul\":627:640   */\n  mload\n    /* \"#utility.yul\":618:640   */\n  swap1\n  pop\n    /* \"#utility.yul\":649:682   */\n  tag_27\n    /* \"#utility.yul\":676:681   */\n  dup2\n    /* \"#utility.yul\":649:682   */\n  tag_15\n  jump\t// in\ntag_27:\n    /* \"#utility.yul\":545:688   */\n  swap3\n  swap2\n  pop\n  pop\n  jump\t// out\n    /* \"#utility.yul\":694:1201   */\ntag_3:\n    /* \"#utility.yul\":773:779   */\n  0x00\n    /* \"#utility.yul\":781:787   */\n  0x00\n    /* \"#utility.yul\":830:832   */\n  0x40\n    /* \"#utility.yul\":818:827   */\n  dup4\n    /* \"#utility.yul\":809:816   */\n  dup6\n    /* \"#utility.yul\":805:828   */\n  sub\n    /* \"#utility.yul\":801:833   */\n  slt\n    /* \"#utility.yul\":798:917   */\n  iszero\n  tag_29\n  jumpi\n    /* \"#utility.yul\":836:915   */\n  tag_30\n  tag_12\n  jump\t// in\ntag_30:\n    /* \"#utility.yul\":798:917   */\ntag_29:\n    /* \"#utility.yul\":956:957   */\n  0x00\n    /* \"#utility.yul\":981:1045   */\n  tag_31\n    /* \"#utility.yul\":1037:1044   */\n  dup6\n    /* \"#utility.yul\":1028:1034   */\n  dup3\n    /* \"#utility.yul\":1017:1026   */\n  dup7\n    /* \"#utility.yul\":1013:1035   */\n  add\n    /* \"#utility.yul\":981:1045   */\n  tag_16\n  jump\t// in\ntag_31:\n    /* \"#utility.yul\":971:1045   */\n  swap3\n  pop\n    /* \"#utility.yul\":927:1055   */\n  pop\n    /* \"#utility.yul\":1094:1096   */\n  0x20\n    /* \"#utility.yul\":1120:1184   */\n  tag_32\n    /* \"#utility.yul\":1176:1183   */\n  dup6\n    /* \"#utility.yul\":1167:1173   */\n  dup3\n    /* \"#utility.yul\":1156:1165   */\n  dup7\n    /* \"#utility.yul\":1152:1174   */\n  add\n    /* \"#utility.yul\":1120:1184   */\n  tag_16\n  jump\t// in\ntag_32:\n    /* \"#utility.yul\":1110:1184   */\n  swap2\n  pop\n    /* \"#utility.yul\":1065:1194   */\n  pop\n    /* \"#utility.yul\":694:1201   */\n  swap3\n  pop\n  swap3\n  swap1\n  pop\n  jump\t// out\n    /* \"#utility.yul\":1207:1387   */\ntag_17:\n    /* \"#utility.yul\":1255:1332   */\n  0x4e487b7100000000000000000000000000000000000000000000000000000000\n    /* \"#utility.yul\":1252:1253   */\n  0x00\n    /* \"#utility.yul\":1245:1333   */\n  mstore\n    /* \"#utility.yul\":1352:1356   */\n  0x11\n    /* \"#utility.yul\":1349:1350   */\n  0x04\n    /* \"#utility.yul\":1342:1357   */\n  mstore\n    /* \"#utility.yul\":1376:1380   */\n  0x24\n    /* \"#utility.yul\":1373:1374   */\n  0x00\n    /* \"#utility.yul\":1366:1381   */\n  revert\n    /* \"#utility.yul\":1393:1803   */\ntag_7:\n    /* \"#utility.yul\":1433:1440   */\n  0x00\n    /* \"#utility.yul\":1456:1476   */\n  tag_35\n    /* \"#utility.yul\":1474:1475   */\n  dup3\n    /* \"#utility.yul\":1456:1476   */\n  tag_14\n  jump\t// in\ntag_35:\n    /* \"#utility.yul\":1451:1476   */\n  swap2\n  pop\n    /* \"#utility.yul\":1490:1510   */\n  tag_36\n    /* \"#utility.yul\":1508:1509   */\n  dup4\n    /* \"#utility.yul\":1490:1510   */\n  tag_14\n  jump\t// in\ntag_36:\n    /* \"#utility.yul\":1485:1510   */\n  swap3\n  pop\n    /* \"#utility.yul\":1545:1546   */\n  dup3\n    /* \"#utility.yul\":1542:1543   */\n  dup3\n    /* \"#utility.yul\":1538:1547   */\n  mul\n    /* \"#utility.yul\":1567:1597   */\n  tag_37\n    /* \"#utility.yul\":1585:1596   */\n  dup2\n    /* \"#utility.yul\":1567:1597   */\n  tag_14\n  jump\t// in\ntag_37:\n    /* \"#utility.yul\":1556:1597   */\n  swap2\n  pop\n    /* \"#utility.yul\":1746:1747   */\n  dup3\n    /* \"#utility.yul\":1737:1744   */\n  dup3\n    /* \"#utility.yul\":1733:1748   */\n  div\n    /* \"#utility.yul\":1730:1731   */\n  dup5\n    /* \"#utility.yul\":1727:1749   */\n  eq\n    /* \"#utility.yul\":1707:1708   */\n  dup4\n    /* \"#utility.yul\":1700:1709   */\n  iszero\n    /* \"#utility.yul\":1680:1763   */\n  or\n    /* \"#utility.yul\":1657:1796   */\n  tag_38\n  jumpi\n    /* \"#utility.yul\":1776:1794   */\n  tag_39\n  tag_17\n  jump\t// in\ntag_39:\n    /* \"#utility.yul\":1657:1796   */\ntag_38:\n    /* \"#utility.yul\":1441:1803   */\n  pop\n    /* \"#utility.yul\":1393:1803   */\n  swap3\n  swap2\n  pop\n  pop\n  jump\t// out\n    /* \"#utility.yul\":1809:2000   */\ntag_9:\n    /* \"#utility.yul\":1849:1852   */\n  0x00\n    /* \"#utility.yul\":1868:1888   */\n  tag_41\n    /* \"#utility.yul\":1886:1887   */\n  dup3\n    /* \"#utility.yul\":1868:1888   */\n  tag_14\n  jump\t// in\ntag_41:\n    /* \"#utility.yul\":1863:1888   */\n  swap2\n  pop\n    /* \"#utility.yul\":1902:1922   */\n  tag_42\n    /* \"#utility.yul\":1920:1921   */\n  dup4\n    /* \"#utility.yul\":1902:1922   */\n  tag_14\n  jump\t// in\ntag_42:\n    /* \"#utility.yul\":1897:1922   */\n  swap3\n  pop\n    /* \"#utility.yul\":1945:1946   */\n  dup3\n    /* \"#utility.yul\":1942:1943   */\n  dup3\n    /* \"#utility.yul\":1938:1947   */\n  add\n    /* \"#utility.yul\":1931:1947   */\n  swap1\n  pop\n    /* \"#utility.yul\":1966:1969   */\n  dup1\n    /* \"#utility.yul\":1963:1964   */\n  dup3\n    /* \"#utility.yul\":1960:1970   */\n  gt\n    /* \"#utility.yul\":1957:1993   */\n  iszero\n  tag_43\n  jumpi\n    /* \"#utility.yul\":1973:1991   */\n  tag_44\n  tag_17\n  jump\t// in\ntag_44:\n    /* \"#utility.yul\":1957:1993   */\ntag_43:\n    /* \"#utility.yul\":1809:2000   */\n  swap3\n  swap2\n  pop\n  pop\n  jump\t// out\n    /* \"Crowdfunding.sol\":60:1946  contract Crowdfunding{... */\ntag_10:\n  dataSize(sub_0)\n  dup1\n  dataOffset(sub_0)\n  0x00\n  codecopy\n  0x00\n  return\nstop\n\nsub_0: assembly {\n        /* \"Crowdfunding.sol\":60:1946  contract Crowdfunding{... */\n      mstore(0x40, 0x80)\n      jumpi(tag_1, lt(calldatasize, 0x04))\n      shr(0xe0, calldataload(0x00))\n      dup1\n      0x590e1ae3\n      gt\n      tag_11\n      jumpi\n      dup1\n      0x590e1ae3\n      eq\n      tag_6\n      jumpi\n      dup1\n      0x6f9fb98a\n      eq\n      tag_7\n      jumpi\n      dup1\n      0x8da5cb5b\n      eq\n      tag_8\n      jumpi\n      dup1\n      0x968ed600\n      eq\n      tag_9\n      jumpi\n      dup1\n      0xd7bb99ba\n      eq\n      tag_10\n      jumpi\n      jump(tag_1)\n    tag_11:\n      dup1\n      0x29dcb0cf\n      eq\n      tag_2\n      jumpi\n      dup1\n      0x3ccfd60b\n      eq\n      tag_3\n      jumpi\n      dup1\n      0x40193883\n      eq\n      tag_4\n      jumpi\n      dup1\n      0x42e94c90\n      eq\n      tag_5\n      jumpi\n    tag_1:\n      revert(0x00, 0x00)\n        /* \"Crowdfunding.sol\":138:158  uint public deadline */\n    tag_2:\n      callvalue\n      dup1\n      iszero\n      tag_12\n      jumpi\n      revert(0x00, 0x00)\n    tag_12:\n      pop\n      tag_13\n      tag_14\n      jump\t// in\n    tag_13:\n      mload(0x40)\n      tag_15\n      swap2\n      swap1\n      tag_16\n      jump\t// in\n    tag_15:\n      mload(0x40)\n      dup1\n      swap2\n      sub\n      swap1\n      return\n        /* \"Crowdfunding.sol\":1110:1554  function withdraw() public {... */\n    tag_3:\n      callvalue\n      dup1\n      iszero\n      tag_17\n      jumpi\n      revert(0x00, 0x00)\n    tag_17:\n      pop\n      tag_18\n      tag_19\n      jump\t// in\n    tag_18:\n      stop\n        /* \"Crowdfunding.sol\":115:131  uint public goal */\n    tag_4:\n      callvalue\n      dup1\n      iszero\n      tag_20\n      jumpi\n      revert(0x00, 0x00)\n    tag_20:\n      pop\n      tag_21\n      tag_22\n      jump\t// in\n    tag_21:\n      mload(0x40)\n      tag_23\n      swap2\n      swap1\n      tag_16\n      jump\t// in\n    tag_23:\n      mload(0x40)\n      dup1\n      swap2\n      sub\n      swap1\n      return\n        /* \"Crowdfunding.sol\":196:241  mapping(address => uint) public contributions */\n    tag_5:\n      callvalue\n      dup1\n      iszero\n      tag_24\n      jumpi\n      revert(0x00, 0x00)\n    tag_24:\n      pop\n      tag_25\n      0x04\n      dup1\n      calldatasize\n      sub\n      dup2\n      add\n      swap1\n      tag_26\n      swap2\n      swap1\n      tag_27\n      jump\t// in\n    tag_26:\n      tag_28\n      jump\t// in\n    tag_25:\n      mload(0x40)\n      tag_29\n      swap2\n      swap1\n      tag_16\n      jump\t// in\n    tag_29:\n      mload(0x40)\n      dup1\n      swap2\n      sub\n      swap1\n      return\n        /* \"Crowdfunding.sol\":1562:1831  function refund() public {... */\n    tag_6:\n      callvalue\n      dup1\n      iszero\n      tag_30\n      jumpi\n      revert(0x00, 0x00)\n    tag_30:\n      pop\n      tag_31\n      tag_32\n      jump\t// in\n    tag_31:\n      stop\n        /* \"Crowdfunding.sol\":1839:1943  function getContractBalance() public view returns (uint) {... */\n    tag_7:\n      callvalue\n      dup1\n      iszero\n      tag_33\n      jumpi\n      revert(0x00, 0x00)\n    tag_33:\n      pop\n      tag_34\n      tag_35\n      jump\t// in\n    tag_34:\n      mload(0x40)\n      tag_36\n      swap2\n      swap1\n      tag_16\n      jump\t// in\n    tag_36:\n      mload(0x40)\n      dup1\n      swap2\n      sub\n      swap1\n      return\n        /* \"Crowdfunding.sol\":88:108  address public owner */\n    tag_8:\n      callvalue\n      dup1\n      iszero\n      tag_37\n      jumpi\n      revert(0x00, 0x00)\n    tag_37:\n      pop\n      tag_38\n      tag_39\n      jump\t// in\n    tag_38:\n      mload(0x40)\n      tag_40\n      swap2\n      swap1\n      tag_41\n      jump\t// in\n    tag_40:\n      mload(0x40)\n      dup1\n      swap2\n      sub\n      swap1\n      return\n        /* \"Crowdfunding.sol\":165:187  uint public totalFunds */\n    tag_9:\n      callvalue\n      dup1\n      iszero\n      tag_42\n      jumpi\n      revert(0x00, 0x00)\n    tag_42:\n      pop\n      tag_43\n      tag_44\n      jump\t// in\n    tag_43:\n      mload(0x40)\n      tag_45\n      swap2\n      swap1\n      tag_16\n      jump\t// in\n    tag_45:\n      mload(0x40)\n      dup1\n      swap2\n      sub\n      swap1\n      return\n        /* \"Crowdfunding.sol\":821:1102  function contribute() public payable{... */\n    tag_10:\n      tag_46\n      tag_47\n      jump\t// in\n    tag_46:\n      stop\n        /* \"Crowdfunding.sol\":138:158  uint public deadline */\n    tag_14:\n      sload(0x02)\n      dup2\n      jump\t// out\n        /* \"Crowdfunding.sol\":1110:1554  function withdraw() public {... */\n    tag_19:\n        /* \"Crowdfunding.sol\":1170:1175  owner */\n      0x00\n      0x00\n      swap1\n      sload\n      swap1\n      0x0100\n      exp\n      swap1\n      div\n      0xffffffffffffffffffffffffffffffffffffffff\n      and\n        /* \"Crowdfunding.sol\":1156:1175  msg.sender == owner */\n      0xffffffffffffffffffffffffffffffffffffffff\n      and\n        /* \"Crowdfunding.sol\":1156:1166  msg.sender */\n      caller\n        /* \"Crowdfunding.sol\":1156:1175  msg.sender == owner */\n      0xffffffffffffffffffffffffffffffffffffffff\n      and\n      eq\n        /* \"Crowdfunding.sol\":1148:1203  require(msg.sender == owner, \"Only owner can withdraw\") */\n      tag_49\n      jumpi\n      mload(0x40)\n      0x08c379a000000000000000000000000000000000000000000000000000000000\n      dup2\n      mstore\n      0x04\n      add\n      tag_50\n      swap1\n      tag_51\n      jump\t// in\n    tag_50:\n      mload(0x40)\n      dup1\n      swap2\n      sub\n      swap1\n      revert\n    tag_49:\n        /* \"Crowdfunding.sol\":1241:1249  deadline */\n      sload(0x02)\n        /* \"Crowdfunding.sol\":1222:1237  block.timestamp */\n      timestamp\n        /* \"Crowdfunding.sol\":1222:1249  block.timestamp >= deadline */\n      lt\n      iszero\n        /* \"Crowdfunding.sol\":1214:1275  require(block.timestamp >= deadline, \"Campaign still active\") */\n      tag_52\n      jumpi\n      mload(0x40)\n      0x08c379a000000000000000000000000000000000000000000000000000000000\n      dup2\n      mstore\n      0x04\n      add\n      tag_53\n      swap1\n      tag_54\n      jump\t// in\n    tag_53:\n      mload(0x40)\n      dup1\n      swap2\n      sub\n      swap1\n      revert\n    tag_52:\n        /* \"Crowdfunding.sol\":1308:1312  goal */\n      sload(0x01)\n        /* \"Crowdfunding.sol\":1294:1304  totalFunds */\n      sload(0x03)\n        /* \"Crowdfunding.sol\":1294:1312  totalFunds >= goal */\n      lt\n      iszero\n        /* \"Crowdfunding.sol\":1286:1333  require(totalFunds >= goal, \"Goal not reached\") */\n      tag_55\n      jumpi\n      mload(0x40)\n      0x08c379a000000000000000000000000000000000000000000000000000000000\n      dup2\n      mstore\n      0x04\n      add\n      tag_56\n      swap1\n      tag_57\n      jump\t// in\n    tag_56:\n      mload(0x40)\n      dup1\n      swap2\n      sub\n      swap1\n      revert\n    tag_55:\n        /* \"Crowdfunding.sol\":1347:1359  bool success */\n      0x00\n        /* \"Crowdfunding.sol\":1373:1378  owner */\n      0x00\n      0x00\n      swap1\n      sload\n      swap1\n      0x0100\n      exp\n      swap1\n      div\n      0xffffffffffffffffffffffffffffffffffffffff\n      and\n        /* \"Crowdfunding.sol\":1365:1384  payable(owner).call */\n      0xffffffffffffffffffffffffffffffffffffffff\n      and\n        /* \"Crowdfunding.sol\":1391:1412  address(this).balance */\n      selfbalance\n        /* \"Crowdfunding.sol\":1365:1417  payable(owner).call{value:address(this).balance}(\"\") */\n      mload(0x40)\n      tag_58\n      swap1\n      tag_59\n      jump\t// in\n    tag_58:\n      0x00\n      mload(0x40)\n      dup1\n      dup4\n      sub\n      dup2\n      dup6\n      dup8\n      gas\n      call\n      swap3\n      pop\n      pop\n      pop\n      returndatasize\n      dup1\n      0x00\n      dup2\n      eq\n      tag_62\n      jumpi\n      mload(0x40)\n      swap2\n      pop\n      and(add(returndatasize, 0x3f), not(0x1f))\n      dup3\n      add\n      0x40\n      mstore\n      returndatasize\n      dup3\n      mstore\n      returndatasize\n      0x00\n      0x20\n      dup5\n      add\n      returndatacopy\n      jump(tag_61)\n    tag_62:\n      0x60\n      swap2\n      pop\n    tag_61:\n      pop\n        /* \"Crowdfunding.sol\":1346:1417  (bool success, ) = payable(owner).call{value:address(this).balance}(\"\") */\n      pop\n      swap1\n      pop\n        /* \"Crowdfunding.sol\":1519:1526  success */\n      dup1\n        /* \"Crowdfunding.sol\":1511:1546  require(success, \"Transfer failed\") */\n      tag_63\n      jumpi\n      mload(0x40)\n      0x08c379a000000000000000000000000000000000000000000000000000000000\n      dup2\n      mstore\n      0x04\n      add\n      tag_64\n      swap1\n      tag_65\n      jump\t// in\n    tag_64:\n      mload(0x40)\n      dup1\n      swap2\n      sub\n      swap1\n      revert\n    tag_63:\n        /* \"Crowdfunding.sol\":1137:1554  {... */\n      pop\n        /* \"Crowdfunding.sol\":1110:1554  function withdraw() public {... */\n      jump\t// out\n        /* \"Crowdfunding.sol\":115:131  uint public goal */\n    tag_22:\n      sload(0x01)\n      dup2\n      jump\t// out\n        /* \"Crowdfunding.sol\":196:241  mapping(address => uint) public contributions */\n    tag_28:\n      mstore(0x20, 0x04)\n      dup1\n      0x00\n      mstore\n      keccak256(0x00, 0x40)\n      0x00\n      swap2\n      pop\n      swap1\n      pop\n      sload\n      dup2\n      jump\t// out\n        /* \"Crowdfunding.sol\":1562:1831  function refund() public {... */\n    tag_32:\n        /* \"Crowdfunding.sol\":1625:1633  deadline */\n      sload(0x02)\n        /* \"Crowdfunding.sol\":1606:1621  block.timestamp */\n      timestamp\n        /* \"Crowdfunding.sol\":1606:1633  block.timestamp >= deadline */\n      lt\n      iszero\n        /* \"Crowdfunding.sol\":1598:1659  require(block.timestamp >= deadline, \"Campaign still active\") */\n      tag_67\n      jumpi\n      mload(0x40)\n      0x08c379a000000000000000000000000000000000000000000000000000000000\n      dup2\n      mstore\n      0x04\n      add\n      tag_68\n      swap1\n      tag_54\n      jump\t// in\n    tag_68:\n      mload(0x40)\n      dup1\n      swap2\n      sub\n      swap1\n      revert\n    tag_67:\n        /* \"Crowdfunding.sol\":1691:1695  goal */\n      sload(0x01)\n        /* \"Crowdfunding.sol\":1678:1688  totalFunds */\n      sload(0x03)\n        /* \"Crowdfunding.sol\":1678:1695  totalFunds < goal */\n      lt\n        /* \"Crowdfunding.sol\":1670:1716  require(totalFunds < goal, \"Goal was reached\") */\n      tag_69\n      jumpi\n      mload(0x40)\n      0x08c379a000000000000000000000000000000000000000000000000000000000\n      dup2\n      mstore\n      0x04\n      add\n      tag_70\n      swap1\n      tag_71\n      jump\t// in\n    tag_70:\n      mload(0x40)\n      dup1\n      swap2\n      sub\n      swap1\n      revert\n    tag_69:\n        /* \"Crowdfunding.sol\":1729:1740  uint amount */\n      0x00\n        /* \"Crowdfunding.sol\":1743:1756  contributions */\n      0x04\n        /* \"Crowdfunding.sol\":1743:1768  contributions[msg.sender] */\n      0x00\n        /* \"Crowdfunding.sol\":1757:1767  msg.sender */\n      caller\n        /* \"Crowdfunding.sol\":1743:1768  contributions[msg.sender] */\n      0xffffffffffffffffffffffffffffffffffffffff\n      and\n      0xffffffffffffffffffffffffffffffffffffffff\n      and\n      dup2\n      mstore\n      0x20\n      add\n      swap1\n      dup2\n      mstore\n      0x20\n      add\n      0x00\n      keccak256\n      sload\n        /* \"Crowdfunding.sol\":1729:1768  uint amount = contributions[msg.sender] */\n      swap1\n      pop\n        /* \"Crowdfunding.sol\":1796:1797  0 */\n      0x00\n        /* \"Crowdfunding.sol\":1787:1793  amount */\n      dup2\n        /* \"Crowdfunding.sol\":1787:1797  amount > 0 */\n      gt\n        /* \"Crowdfunding.sol\":1779:1823  require(amount > 0, \"No contribution found\") */\n      tag_72\n      jumpi\n      mload(0x40)\n      0x08c379a000000000000000000000000000000000000000000000000000000000\n      dup2\n      mstore\n      0x04\n      add\n      tag_73\n      swap1\n      tag_74\n      jump\t// in\n    tag_73:\n      mload(0x40)\n      dup1\n      swap2\n      sub\n      swap1\n      revert\n    tag_72:\n        /* \"Crowdfunding.sol\":1587:1831  {... */\n      pop\n        /* \"Crowdfunding.sol\":1562:1831  function refund() public {... */\n      jump\t// out\n        /* \"Crowdfunding.sol\":1839:1943  function getContractBalance() public view returns (uint) {... */\n    tag_35:\n        /* \"Crowdfunding.sol\":1890:1894  uint */\n      0x00\n        /* \"Crowdfunding.sol\":1914:1935  address(this).balance */\n      selfbalance\n        /* \"Crowdfunding.sol\":1907:1935  return address(this).balance */\n      swap1\n      pop\n        /* \"Crowdfunding.sol\":1839:1943  function getContractBalance() public view returns (uint) {... */\n      swap1\n      jump\t// out\n        /* \"Crowdfunding.sol\":88:108  address public owner */\n    tag_39:\n      0x00\n      0x00\n      swap1\n      sload\n      swap1\n      0x0100\n      exp\n      swap1\n      div\n      0xffffffffffffffffffffffffffffffffffffffff\n      and\n      dup2\n      jump\t// out\n        /* \"Crowdfunding.sol\":165:187  uint public totalFunds */\n    tag_44:\n      sload(0x03)\n      dup2\n      jump\t// out\n        /* \"Crowdfunding.sol\":821:1102  function contribute() public payable{... */\n    tag_47:\n        /* \"Crowdfunding.sol\":894:902  deadline */\n      sload(0x02)\n        /* \"Crowdfunding.sol\":876:891  block.timestamp */\n      timestamp\n        /* \"Crowdfunding.sol\":876:902  block.timestamp < deadline */\n      lt\n        /* \"Crowdfunding.sol\":868:921  require(block.timestamp < deadline, \"Campaign ended\") */\n      tag_77\n      jumpi\n      mload(0x40)\n      0x08c379a000000000000000000000000000000000000000000000000000000000\n      dup2\n      mstore\n      0x04\n      add\n      tag_78\n      swap1\n      tag_79\n      jump\t// in\n    tag_78:\n      mload(0x40)\n      dup1\n      swap2\n      sub\n      swap1\n      revert\n    tag_77:\n        /* \"Crowdfunding.sol\":952:953  0 */\n      0x00\n        /* \"Crowdfunding.sol\":940:949  msg.value */\n      callvalue\n        /* \"Crowdfunding.sol\":940:953  msg.value > 0 */\n      gt\n        /* \"Crowdfunding.sol\":932:971  require(msg.value > 0, \"Must send ETH\") */\n      tag_80\n      jumpi\n      mload(0x40)\n      0x08c379a000000000000000000000000000000000000000000000000000000000\n      dup2\n      mstore\n      0x04\n      add\n      tag_81\n      swap1\n      tag_82\n      jump\t// in\n    tag_81:\n      mload(0x40)\n      dup1\n      swap2\n      sub\n      swap1\n      revert\n    tag_80:\n        /* \"Crowdfunding.sol\":1051:1060  msg.value */\n      callvalue\n        /* \"Crowdfunding.sol\":1022:1035  contributions */\n      0x04\n        /* \"Crowdfunding.sol\":1022:1047  contributions[msg.sender] */\n      0x00\n        /* \"Crowdfunding.sol\":1036:1046  msg.sender */\n      caller\n        /* \"Crowdfunding.sol\":1022:1047  contributions[msg.sender] */\n      0xffffffffffffffffffffffffffffffffffffffff\n      and\n      0xffffffffffffffffffffffffffffffffffffffff\n      and\n      dup2\n      mstore\n      0x20\n      add\n      swap1\n      dup2\n      mstore\n      0x20\n      add\n      0x00\n      keccak256\n      0x00\n        /* \"Crowdfunding.sol\":1022:1060  contributions[msg.sender] += msg.value */\n      dup3\n      dup3\n      sload\n      tag_83\n      swap2\n      swap1\n      tag_84\n      jump\t// in\n    tag_83:\n      swap3\n      pop\n      pop\n      dup2\n      swap1\n      sstore\n      pop\n        /* \"Crowdfunding.sol\":1085:1094  msg.value */\n      callvalue\n        /* \"Crowdfunding.sol\":1071:1081  totalFunds */\n      0x03\n      0x00\n        /* \"Crowdfunding.sol\":1071:1094  totalFunds += msg.value */\n      dup3\n      dup3\n      sload\n      tag_85\n      swap2\n      swap1\n      tag_84\n      jump\t// in\n    tag_85:\n      swap3\n      pop\n      pop\n      dup2\n      swap1\n      sstore\n      pop\n        /* \"Crowdfunding.sol\":821:1102  function contribute() public payable{... */\n      jump\t// out\n        /* \"#utility.yul\":7:84   */\n    tag_86:\n        /* \"#utility.yul\":44:51   */\n      0x00\n        /* \"#utility.yul\":73:78   */\n      dup2\n        /* \"#utility.yul\":62:78   */\n      swap1\n      pop\n        /* \"#utility.yul\":7:84   */\n      swap2\n      swap1\n      pop\n      jump\t// out\n        /* \"#utility.yul\":90:208   */\n    tag_87:\n        /* \"#utility.yul\":177:201   */\n      tag_120\n        /* \"#utility.yul\":195:200   */\n      dup2\n        /* \"#utility.yul\":177:201   */\n      tag_86\n      jump\t// in\n    tag_120:\n        /* \"#utility.yul\":172:175   */\n      dup3\n        /* \"#utility.yul\":165:202   */\n      mstore\n        /* \"#utility.yul\":90:208   */\n      pop\n      pop\n      jump\t// out\n        /* \"#utility.yul\":214:436   */\n    tag_16:\n        /* \"#utility.yul\":307:311   */\n      0x00\n        /* \"#utility.yul\":345:347   */\n      0x20\n        /* \"#utility.yul\":334:343   */\n      dup3\n        /* \"#utility.yul\":330:348   */\n      add\n        /* \"#utility.yul\":322:348   */\n      swap1\n      pop\n        /* \"#utility.yul\":358:429   */\n      tag_122\n        /* \"#utility.yul\":426:427   */\n      0x00\n        /* \"#utility.yul\":415:424   */\n      dup4\n        /* \"#utility.yul\":411:428   */\n      add\n        /* \"#utility.yul\":402:408   */\n      dup5\n        /* \"#utility.yul\":358:429   */\n      tag_87\n      jump\t// in\n    tag_122:\n        /* \"#utility.yul\":214:436   */\n      swap3\n      swap2\n      pop\n      pop\n      jump\t// out\n        /* \"#utility.yul\":523:640   */\n    tag_89:\n        /* \"#utility.yul\":632:633   */\n      0x00\n        /* \"#utility.yul\":629:630   */\n      0x00\n        /* \"#utility.yul\":622:634   */\n      revert\n        /* \"#utility.yul\":769:895   */\n    tag_91:\n        /* \"#utility.yul\":806:813   */\n      0x00\n        /* \"#utility.yul\":846:888   */\n      0xffffffffffffffffffffffffffffffffffffffff\n        /* \"#utility.yul\":839:844   */\n      dup3\n        /* \"#utility.yul\":835:889   */\n      and\n        /* \"#utility.yul\":824:889   */\n      swap1\n      pop\n        /* \"#utility.yul\":769:895   */\n      swap2\n      swap1\n      pop\n      jump\t// out\n        /* \"#utility.yul\":901:997   */\n    tag_92:\n        /* \"#utility.yul\":938:945   */\n      0x00\n        /* \"#utility.yul\":967:991   */\n      tag_128\n        /* \"#utility.yul\":985:990   */\n      dup3\n        /* \"#utility.yul\":967:991   */\n      tag_91\n      jump\t// in\n    tag_128:\n        /* \"#utility.yul\":956:991   */\n      swap1\n      pop\n        /* \"#utility.yul\":901:997   */\n      swap2\n      swap1\n      pop\n      jump\t// out\n        /* \"#utility.yul\":1003:1125   */\n    tag_93:\n        /* \"#utility.yul\":1076:1100   */\n      tag_130\n        /* \"#utility.yul\":1094:1099   */\n      dup2\n        /* \"#utility.yul\":1076:1100   */\n      tag_92\n      jump\t// in\n    tag_130:\n        /* \"#utility.yul\":1069:1074   */\n      dup2\n        /* \"#utility.yul\":1066:1101   */\n      eq\n        /* \"#utility.yul\":1056:1119   */\n      tag_131\n      jumpi\n        /* \"#utility.yul\":1115:1116   */\n      0x00\n        /* \"#utility.yul\":1112:1113   */\n      0x00\n        /* \"#utility.yul\":1105:1117   */\n      revert\n        /* \"#utility.yul\":1056:1119   */\n    tag_131:\n        /* \"#utility.yul\":1003:1125   */\n      pop\n      jump\t// out\n        /* \"#utility.yul\":1131:1270   */\n    tag_94:\n        /* \"#utility.yul\":1177:1182   */\n      0x00\n        /* \"#utility.yul\":1215:1221   */\n      dup2\n        /* \"#utility.yul\":1202:1222   */\n      calldataload\n        /* \"#utility.yul\":1193:1222   */\n      swap1\n      pop\n        /* \"#utility.yul\":1231:1264   */\n      tag_133\n        /* \"#utility.yul\":1258:1263   */\n      dup2\n        /* \"#utility.yul\":1231:1264   */\n      tag_93\n      jump\t// in\n    tag_133:\n        /* \"#utility.yul\":1131:1270   */\n      swap3\n      swap2\n      pop\n      pop\n      jump\t// out\n        /* \"#utility.yul\":1276:1605   */\n    tag_27:\n        /* \"#utility.yul\":1335:1341   */\n      0x00\n        /* \"#utility.yul\":1384:1386   */\n      0x20\n        /* \"#utility.yul\":1372:1381   */\n      dup3\n        /* \"#utility.yul\":1363:1370   */\n      dup5\n        /* \"#utility.yul\":1359:1382   */\n      sub\n        /* \"#utility.yul\":1355:1387   */\n      slt\n        /* \"#utility.yul\":1352:1471   */\n      iszero\n      tag_135\n      jumpi\n        /* \"#utility.yul\":1390:1469   */\n      tag_136\n      tag_89\n      jump\t// in\n    tag_136:\n        /* \"#utility.yul\":1352:1471   */\n    tag_135:\n        /* \"#utility.yul\":1510:1511   */\n      0x00\n        /* \"#utility.yul\":1535:1588   */\n      tag_137\n        /* \"#utility.yul\":1580:1587   */\n      dup5\n        /* \"#utility.yul\":1571:1577   */\n      dup3\n        /* \"#utility.yul\":1560:1569   */\n      dup6\n        /* \"#utility.yul\":1556:1578   */\n      add\n        /* \"#utility.yul\":1535:1588   */\n      tag_94\n      jump\t// in\n    tag_137:\n        /* \"#utility.yul\":1525:1588   */\n      swap2\n      pop\n        /* \"#utility.yul\":1481:1598   */\n      pop\n        /* \"#utility.yul\":1276:1605   */\n      swap3\n      swap2\n      pop\n      pop\n      jump\t// out\n        /* \"#utility.yul\":1611:1729   */\n    tag_95:\n        /* \"#utility.yul\":1698:1722   */\n      tag_139\n        /* \"#utility.yul\":1716:1721   */\n      dup2\n        /* \"#utility.yul\":1698:1722   */\n      tag_92\n      jump\t// in\n    tag_139:\n        /* \"#utility.yul\":1693:1696   */\n      dup3\n        /* \"#utility.yul\":1686:1723   */\n      mstore\n        /* \"#utility.yul\":1611:1729   */\n      pop\n      pop\n      jump\t// out\n        /* \"#utility.yul\":1735:1957   */\n    tag_41:\n        /* \"#utility.yul\":1828:1832   */\n      0x00\n        /* \"#utility.yul\":1866:1868   */\n      0x20\n        /* \"#utility.yul\":1855:1864   */\n      dup3\n        /* \"#utility.yul\":1851:1869   */\n      add\n        /* \"#utility.yul\":1843:1869   */\n      swap1\n      pop\n        /* \"#utility.yul\":1879:1950   */\n      tag_141\n        /* \"#utility.yul\":1947:1948   */\n      0x00\n        /* \"#utility.yul\":1936:1945   */\n      dup4\n        /* \"#utility.yul\":1932:1949   */\n      add\n        /* \"#utility.yul\":1923:1929   */\n      dup5\n        /* \"#utility.yul\":1879:1950   */\n      tag_95\n      jump\t// in\n    tag_141:\n        /* \"#utility.yul\":1735:1957   */\n      swap3\n      swap2\n      pop\n      pop\n      jump\t// out\n        /* \"#utility.yul\":1963:2132   */\n    tag_96:\n        /* \"#utility.yul\":2047:2058   */\n      0x00\n        /* \"#utility.yul\":2081:2087   */\n      dup3\n        /* \"#utility.yul\":2076:2079   */\n      dup3\n        /* \"#utility.yul\":2069:2088   */\n      mstore\n        /* \"#utility.yul\":2121:2125   */\n      0x20\n        /* \"#utility.yul\":2116:2119   */\n      dup3\n        /* \"#utility.yul\":2112:2126   */\n      add\n        /* \"#utility.yul\":2097:2126   */\n      swap1\n      pop\n        /* \"#utility.yul\":1963:2132   */\n      swap3\n      swap2\n      pop\n      pop\n      jump\t// out\n        /* \"#utility.yul\":2138:2311   */\n    tag_97:\n        /* \"#utility.yul\":2278:2303   */\n      0x4f6e6c79206f776e65722063616e207769746864726177000000000000000000\n        /* \"#utility.yul\":2274:2275   */\n      0x00\n        /* \"#utility.yul\":2266:2272   */\n      dup3\n        /* \"#utility.yul\":2262:2276   */\n      add\n        /* \"#utility.yul\":2255:2304   */\n      mstore\n        /* \"#utility.yul\":2138:2311   */\n      pop\n      jump\t// out\n        /* \"#utility.yul\":2317:2683   */\n    tag_98:\n        /* \"#utility.yul\":2459:2462   */\n      0x00\n        /* \"#utility.yul\":2480:2547   */\n      tag_145\n        /* \"#utility.yul\":2544:2546   */\n      0x17\n        /* \"#utility.yul\":2539:2542   */\n      dup4\n        /* \"#utility.yul\":2480:2547   */\n      tag_96\n      jump\t// in\n    tag_145:\n        /* \"#utility.yul\":2473:2547   */\n      swap2\n      pop\n        /* \"#utility.yul\":2556:2649   */\n      tag_146\n        /* \"#utility.yul\":2645:2648   */\n      dup3\n        /* \"#utility.yul\":2556:2649   */\n      tag_97\n      jump\t// in\n    tag_146:\n        /* \"#utility.yul\":2674:2676   */\n      0x20\n        /* \"#utility.yul\":2669:2672   */\n      dup3\n        /* \"#utility.yul\":2665:2677   */\n      add\n        /* \"#utility.yul\":2658:2677   */\n      swap1\n      pop\n        /* \"#utility.yul\":2317:2683   */\n      swap2\n      swap1\n      pop\n      jump\t// out\n        /* \"#utility.yul\":2689:3108   */\n    tag_51:\n        /* \"#utility.yul\":2855:2859   */\n      0x00\n        /* \"#utility.yul\":2893:2895   */\n      0x20\n        /* \"#utility.yul\":2882:2891   */\n      dup3\n        /* \"#utility.yul\":2878:2896   */\n      add\n        /* \"#utility.yul\":2870:2896   */\n      swap1\n      pop\n        /* \"#utility.yul\":2942:2951   */\n      dup2\n        /* \"#utility.yul\":2936:2940   */\n      dup2\n        /* \"#utility.yul\":2932:2952   */\n      sub\n        /* \"#utility.yul\":2928:2929   */\n      0x00\n        /* \"#utility.yul\":2917:2926   */\n      dup4\n        /* \"#utility.yul\":2913:2930   */\n      add\n        /* \"#utility.yul\":2906:2953   */\n      mstore\n        /* \"#utility.yul\":2970:3101   */\n      tag_148\n        /* \"#utility.yul\":3096:3100   */\n      dup2\n        /* \"#utility.yul\":2970:3101   */\n      tag_98\n      jump\t// in\n    tag_148:\n        /* \"#utility.yul\":2962:3101   */\n      swap1\n      pop\n        /* \"#utility.yul\":2689:3108   */\n      swap2\n      swap1\n      pop\n      jump\t// out\n        /* \"#utility.yul\":3114:3285   */\n    tag_99:\n        /* \"#utility.yul\":3254:3277   */\n      0x43616d706169676e207374696c6c206163746976650000000000000000000000\n        /* \"#utility.yul\":3250:3251   */\n      0x00\n        /* \"#utility.yul\":3242:3248   */\n      dup3\n        /* \"#utility.yul\":3238:3252   */\n      add\n        /* \"#utility.yul\":3231:3278   */\n      mstore\n        /* \"#utility.yul\":3114:3285   */\n      pop\n      jump\t// out\n        /* \"#utility.yul\":3291:3657   */\n    tag_100:\n        /* \"#utility.yul\":3433:3436   */\n      0x00\n        /* \"#utility.yul\":3454:3521   */\n      tag_151\n        /* \"#utility.yul\":3518:3520   */\n      0x15\n        /* \"#utility.yul\":3513:3516   */\n      dup4\n        /* \"#utility.yul\":3454:3521   */\n      tag_96\n      jump\t// in\n    tag_151:\n        /* \"#utility.yul\":3447:3521   */\n      swap2\n      pop\n        /* \"#utility.yul\":3530:3623   */\n      tag_152\n        /* \"#utility.yul\":3619:3622   */\n      dup3\n        /* \"#utility.yul\":3530:3623   */\n      tag_99\n      jump\t// in\n    tag_152:\n        /* \"#utility.yul\":3648:3650   */\n      0x20\n        /* \"#utility.yul\":3643:3646   */\n      dup3\n        /* \"#utility.yul\":3639:3651   */\n      add\n        /* \"#utility.yul\":3632:3651   */\n      swap1\n      pop\n        /* \"#utility.yul\":3291:3657   */\n      swap2\n      swap1\n      pop\n      jump\t// out\n        /* \"#utility.yul\":3663:4082   */\n    tag_54:\n        /* \"#utility.yul\":3829:3833   */\n      0x00\n        /* \"#utility.yul\":3867:3869   */\n      0x20\n        /* \"#utility.yul\":3856:3865   */\n      dup3\n        /* \"#utility.yul\":3852:3870   */\n      add\n        /* \"#utility.yul\":3844:3870   */\n      swap1\n      pop\n        /* \"#utility.yul\":3916:3925   */\n      dup2\n        /* \"#utility.yul\":3910:3914   */\n      dup2\n        /* \"#utility.yul\":3906:3926   */\n      sub\n        /* \"#utility.yul\":3902:3903   */\n      0x00\n        /* \"#utility.yul\":3891:3900   */\n      dup4\n        /* \"#utility.yul\":3887:3904   */\n      add\n        /* \"#utility.yul\":3880:3927   */\n      mstore\n        /* \"#utility.yul\":3944:4075   */\n      tag_154\n        /* \"#utility.yul\":4070:4074   */\n      dup2\n        /* \"#utility.yul\":3944:4075   */\n      tag_100\n      jump\t// in\n    tag_154:\n        /* \"#utility.yul\":3936:4075   */\n      swap1\n      pop\n        /* \"#utility.yul\":3663:4082   */\n      swap2\n      swap1\n      pop\n      jump\t// out\n        /* \"#utility.yul\":4088:4254   */\n    tag_101:\n        /* \"#utility.yul\":4228:4246   */\n      0x476f616c206e6f74207265616368656400000000000000000000000000000000\n        /* \"#utility.yul\":4224:4225   */\n      0x00\n        /* \"#utility.yul\":4216:4222   */\n      dup3\n        /* \"#utility.yul\":4212:4226   */\n      add\n        /* \"#utility.yul\":4205:4247   */\n      mstore\n        /* \"#utility.yul\":4088:4254   */\n      pop\n      jump\t// out\n        /* \"#utility.yul\":4260:4626   */\n    tag_102:\n        /* \"#utility.yul\":4402:4405   */\n      0x00\n        /* \"#utility.yul\":4423:4490   */\n      tag_157\n        /* \"#utility.yul\":4487:4489   */\n      0x10\n        /* \"#utility.yul\":4482:4485   */\n      dup4\n        /* \"#utility.yul\":4423:4490   */\n      tag_96\n      jump\t// in\n    tag_157:\n        /* \"#utility.yul\":4416:4490   */\n      swap2\n      pop\n        /* \"#utility.yul\":4499:4592   */\n      tag_158\n        /* \"#utility.yul\":4588:4591   */\n      dup3\n        /* \"#utility.yul\":4499:4592   */\n      tag_101\n      jump\t// in\n    tag_158:\n        /* \"#utility.yul\":4617:4619   */\n      0x20\n        /* \"#utility.yul\":4612:4615   */\n      dup3\n        /* \"#utility.yul\":4608:4620   */\n      add\n        /* \"#utility.yul\":4601:4620   */\n      swap1\n      pop\n        /* \"#utility.yul\":4260:4626   */\n      swap2\n      swap1\n      pop\n      jump\t// out\n        /* \"#utility.yul\":4632:5051   */\n    tag_57:\n        /* \"#utility.yul\":4798:4802   */\n      0x00\n        /* \"#utility.yul\":4836:4838   */\n      0x20\n        /* \"#utility.yul\":4825:4834   */\n      dup3\n        /* \"#utility.yul\":4821:4839   */\n      add\n        /* \"#utility.yul\":4813:4839   */\n      swap1\n      pop\n        /* \"#utility.yul\":4885:4894   */\n      dup2\n        /* \"#utility.yul\":4879:4883   */\n      dup2\n        /* \"#utility.yul\":4875:4895   */\n      sub\n        /* \"#utility.yul\":4871:4872   */\n      0x00\n        /* \"#utility.yul\":4860:4869   */\n      dup4\n        /* \"#utility.yul\":4856:4873   */\n      add\n        /* \"#utility.yul\":4849:4896   */\n      mstore\n        /* \"#utility.yul\":4913:5044   */\n      tag_160\n        /* \"#utility.yul\":5039:5043   */\n      dup2\n        /* \"#utility.yul\":4913:5044   */\n      tag_102\n      jump\t// in\n    tag_160:\n        /* \"#utility.yul\":4905:5044   */\n      swap1\n      pop\n        /* \"#utility.yul\":4632:5051   */\n      swap2\n      swap1\n      pop\n      jump\t// out\n        /* \"#utility.yul\":5057:5204   */\n    tag_103:\n        /* \"#utility.yul\":5158:5169   */\n      0x00\n        /* \"#utility.yul\":5195:5198   */\n      dup2\n        /* \"#utility.yul\":5180:5198   */\n      swap1\n      pop\n        /* \"#utility.yul\":5057:5204   */\n      swap3\n      swap2\n      pop\n      pop\n      jump\t// out\n        /* \"#utility.yul\":5210:5324   */\n    tag_104:\n      pop\n      jump\t// out\n        /* \"#utility.yul\":5330:5728   */\n    tag_105:\n        /* \"#utility.yul\":5489:5492   */\n      0x00\n        /* \"#utility.yul\":5510:5593   */\n      tag_164\n        /* \"#utility.yul\":5591:5592   */\n      0x00\n        /* \"#utility.yul\":5586:5589   */\n      dup4\n        /* \"#utility.yul\":5510:5593   */\n      tag_103\n      jump\t// in\n    tag_164:\n        /* \"#utility.yul\":5503:5593   */\n      swap2\n      pop\n        /* \"#utility.yul\":5602:5695   */\n      tag_165\n        /* \"#utility.yul\":5691:5694   */\n      dup3\n        /* \"#utility.yul\":5602:5695   */\n      tag_104\n      jump\t// in\n    tag_165:\n        /* \"#utility.yul\":5720:5721   */\n      0x00\n        /* \"#utility.yul\":5715:5718   */\n      dup3\n        /* \"#utility.yul\":5711:5722   */\n      add\n        /* \"#utility.yul\":5704:5722   */\n      swap1\n      pop\n        /* \"#utility.yul\":5330:5728   */\n      swap2\n      swap1\n      pop\n      jump\t// out\n        /* \"#utility.yul\":5734:6113   */\n    tag_59:\n        /* \"#utility.yul\":5918:5921   */\n      0x00\n        /* \"#utility.yul\":5940:6087   */\n      tag_167\n        /* \"#utility.yul\":6083:6086   */\n      dup3\n        /* \"#utility.yul\":5940:6087   */\n      tag_105\n      jump\t// in\n    tag_167:\n        /* \"#utility.yul\":5933:6087   */\n      swap2\n      pop\n        /* \"#utility.yul\":6104:6107   */\n      dup2\n        /* \"#utility.yul\":6097:6107   */\n      swap1\n      pop\n        /* \"#utility.yul\":5734:6113   */\n      swap2\n      swap1\n      pop\n      jump\t// out\n        /* \"#utility.yul\":6119:6284   */\n    tag_106:\n        /* \"#utility.yul\":6259:6276   */\n      0x5472616e73666572206661696c65640000000000000000000000000000000000\n        /* \"#utility.yul\":6255:6256   */\n      0x00\n        /* \"#utility.yul\":6247:6253   */\n      dup3\n        /* \"#utility.yul\":6243:6257   */\n      add\n        /* \"#utility.yul\":6236:6277   */\n      mstore\n        /* \"#utility.yul\":6119:6284   */\n      pop\n      jump\t// out\n        /* \"#utility.yul\":6290:6656   */\n    tag_107:\n        /* \"#utility.yul\":6432:6435   */\n      0x00\n        /* \"#utility.yul\":6453:6520   */\n      tag_170\n        /* \"#utility.yul\":6517:6519   */\n      0x0f\n        /* \"#utility.yul\":6512:6515   */\n      dup4\n        /* \"#utility.yul\":6453:6520   */\n      tag_96\n      jump\t// in\n    tag_170:\n        /* \"#utility.yul\":6446:6520   */\n      swap2\n      pop\n        /* \"#utility.yul\":6529:6622   */\n      tag_171\n        /* \"#utility.yul\":6618:6621   */\n      dup3\n        /* \"#utility.yul\":6529:6622   */\n      tag_106\n      jump\t// in\n    tag_171:\n        /* \"#utility.yul\":6647:6649   */\n      0x20\n        /* \"#utility.yul\":6642:6645   */\n      dup3\n        /* \"#utility.yul\":6638:6650   */\n      add\n        /* \"#utility.yul\":6631:6650   */\n      swap1\n      pop\n        /* \"#utility.yul\":6290:6656   */\n      swap2\n      swap1\n      pop\n      jump\t// out\n        /* \"#utility.yul\":6662:7081   */\n    tag_65:\n        /* \"#utility.yul\":6828:6832   */\n      0x00\n        /* \"#utility.yul\":6866:6868   */\n      0x20\n        /* \"#utility.yul\":6855:6864   */\n      dup3\n        /* \"#utility.yul\":6851:6869   */\n      add\n        /* \"#utility.yul\":6843:6869   */\n      swap1\n      pop\n        /* \"#utility.yul\":6915:6924   */\n      dup2\n        /* \"#utility.yul\":6909:6913   */\n      dup2\n        /* \"#utility.yul\":6905:6925   */\n      sub\n        /* \"#utility.yul\":6901:6902   */\n      0x00\n        /* \"#utility.yul\":6890:6899   */\n      dup4\n        /* \"#utility.yul\":6886:6903   */\n      add\n        /* \"#utility.yul\":6879:6926   */\n      mstore\n        /* \"#utility.yul\":6943:7074   */\n      tag_173\n        /* \"#utility.yul\":7069:7073   */\n      dup2\n        /* \"#utility.yul\":6943:7074   */\n      tag_107\n      jump\t// in\n    tag_173:\n        /* \"#utility.yul\":6935:7074   */\n      swap1\n      pop\n        /* \"#utility.yul\":6662:7081   */\n      swap2\n      swap1\n      pop\n      jump\t// out\n        /* \"#utility.yul\":7087:7253   */\n    tag_108:\n        /* \"#utility.yul\":7227:7245   */\n      0x476f616c20776173207265616368656400000000000000000000000000000000\n        /* \"#utility.yul\":7223:7224   */\n      0x00\n        /* \"#utility.yul\":7215:7221   */\n      dup3\n        /* \"#utility.yul\":7211:7225   */\n      add\n        /* \"#utility.yul\":7204:7246   */\n      mstore\n        /* \"#utility.yul\":7087:7253   */\n      pop\n      jump\t// out\n        /* \"#utility.yul\":7259:7625   */\n    tag_109:\n        /* \"#utility.yul\":7401:7404   */\n      0x00\n        /* \"#utility.yul\":7422:7489   */\n      tag_176\n        /* \"#utility.yul\":7486:7488   */\n      0x10\n        /* \"#utility.yul\":7481:7484   */\n      dup4\n        /* \"#utility.yul\":7422:7489   */\n      tag_96\n      jump\t// in\n    tag_176:\n        /* \"#utility.yul\":7415:7489   */\n      swap2\n      pop\n        /* \"#utility.yul\":7498:7591   */\n      tag_177\n        /* \"#utility.yul\":7587:7590   */\n      dup3\n        /* \"#utility.yul\":7498:7591   */\n      tag_108\n      jump\t// in\n    tag_177:\n        /* \"#utility.yul\":7616:7618   */\n      0x20\n        /* \"#utility.yul\":7611:7614   */\n      dup3\n        /* \"#utility.yul\":7607:7619   */\n      add\n        /* \"#utility.yul\":7600:7619   */\n      swap1\n      pop\n        /* \"#utility.yul\":7259:7625   */\n      swap2\n      swap1\n      pop\n      jump\t// out\n        /* \"#utility.yul\":7631:8050   */\n    tag_71:\n        /* \"#utility.yul\":7797:7801   */\n      0x00\n        /* \"#utility.yul\":7835:7837   */\n      0x20\n        /* \"#utility.yul\":7824:7833   */\n      dup3\n        /* \"#utility.yul\":7820:7838   */\n      add\n        /* \"#utility.yul\":7812:7838   */\n      swap1\n      pop\n        /* \"#utility.yul\":7884:7893   */\n      dup2\n        /* \"#utility.yul\":7878:7882   */\n      dup2\n        /* \"#utility.yul\":7874:7894   */\n      sub\n        /* \"#utility.yul\":7870:7871   */\n      0x00\n        /* \"#utility.yul\":7859:7868   */\n      dup4\n        /* \"#utility.yul\":7855:7872   */\n      add\n        /* \"#utility.yul\":7848:7895   */\n      mstore\n        /* \"#utility.yul\":7912:8043   */\n      tag_179\n        /* \"#utility.yul\":8038:8042   */\n      dup2\n        /* \"#utility.yul\":7912:8043   */\n      tag_109\n      jump\t// in\n    tag_179:\n        /* \"#utility.yul\":7904:8043   */\n      swap1\n      pop\n        /* \"#utility.yul\":7631:8050   */\n      swap2\n      swap1\n      pop\n      jump\t// out\n        /* \"#utility.yul\":8056:8227   */\n    tag_110:\n        /* \"#utility.yul\":8196:8219   */\n      0x4e6f20636f6e747269627574696f6e20666f756e640000000000000000000000\n        /* \"#utility.yul\":8192:8193   */\n      0x00\n        /* \"#utility.yul\":8184:8190   */\n      dup3\n        /* \"#utility.yul\":8180:8194   */\n      add\n        /* \"#utility.yul\":8173:8220   */\n      mstore\n        /* \"#utility.yul\":8056:8227   */\n      pop\n      jump\t// out\n        /* \"#utility.yul\":8233:8599   */\n    tag_111:\n        /* \"#utility.yul\":8375:8378   */\n      0x00\n        /* \"#utility.yul\":8396:8463   */\n      tag_182\n        /* \"#utility.yul\":8460:8462   */\n      0x15\n        /* \"#utility.yul\":8455:8458   */\n      dup4\n        /* \"#utility.yul\":8396:8463   */\n      tag_96\n      jump\t// in\n    tag_182:\n        /* \"#utility.yul\":8389:8463   */\n      swap2\n      pop\n        /* \"#utility.yul\":8472:8565   */\n      tag_183\n        /* \"#utility.yul\":8561:8564   */\n      dup3\n        /* \"#utility.yul\":8472:8565   */\n      tag_110\n      jump\t// in\n    tag_183:\n        /* \"#utility.yul\":8590:8592   */\n      0x20\n        /* \"#utility.yul\":8585:8588   */\n      dup3\n        /* \"#utility.yul\":8581:8593   */\n      add\n        /* \"#utility.yul\":8574:8593   */\n      swap1\n      pop\n        /* \"#utility.yul\":8233:8599   */\n      swap2\n      swap1\n      pop\n      jump\t// out\n        /* \"#utility.yul\":8605:9024   */\n    tag_74:\n        /* \"#utility.yul\":8771:8775   */\n      0x00\n        /* \"#utility.yul\":8809:8811   */\n      0x20\n        /* \"#utility.yul\":8798:8807   */\n      dup3\n        /* \"#utility.yul\":8794:8812   */\n      add\n        /* \"#utility.yul\":8786:8812   */\n      swap1\n      pop\n        /* \"#utility.yul\":8858:8867   */\n      dup2\n        /* \"#utility.yul\":8852:8856   */\n      dup2\n        /* \"#utility.yul\":8848:8868   */\n      sub\n        /* \"#utility.yul\":8844:8845   */\n      0x00\n        /* \"#utility.yul\":8833:8842   */\n      dup4\n        /* \"#utility.yul\":8829:8846   */\n      add\n        /* \"#utility.yul\":8822:8869   */\n      mstore\n        /* \"#utility.yul\":8886:9017   */\n      tag_185\n        /* \"#utility.yul\":9012:9016   */\n      dup2\n        /* \"#utility.yul\":8886:9017   */\n      tag_111\n      jump\t// in\n    tag_185:\n        /* \"#utility.yul\":8878:9017   */\n      swap1\n      pop\n        /* \"#utility.yul\":8605:9024   */\n      swap2\n      swap1\n      pop\n      jump\t// out\n        /* \"#utility.yul\":9030:9194   */\n    tag_112:\n        /* \"#utility.yul\":9170:9186   */\n      0x43616d706169676e20656e646564000000000000000000000000000000000000\n        /* \"#utility.yul\":9166:9167   */\n      0x00\n        /* \"#utility.yul\":9158:9164   */\n      dup3\n        /* \"#utility.yul\":9154:9168   */\n      add\n        /* \"#utility.yul\":9147:9187   */\n      mstore\n        /* \"#utility.yul\":9030:9194   */\n      pop\n      jump\t// out\n        /* \"#utility.yul\":9200:9566   */\n    tag_113:\n        /* \"#utility.yul\":9342:9345   */\n      0x00\n        /* \"#utility.yul\":9363:9430   */\n      tag_188\n        /* \"#utility.yul\":9427:9429   */\n      0x0e\n        /* \"#utility.yul\":9422:9425   */\n      dup4\n        /* \"#utility.yul\":9363:9430   */\n      tag_96\n      jump\t// in\n    tag_188:\n        /* \"#utility.yul\":9356:9430   */\n      swap2\n      pop\n        /* \"#utility.yul\":9439:9532   */\n      tag_189\n        /* \"#utility.yul\":9528:9531   */\n      dup3\n        /* \"#utility.yul\":9439:9532   */\n      tag_112\n      jump\t// in\n    tag_189:\n        /* \"#utility.yul\":9557:9559   */\n      0x20\n        /* \"#utility.yul\":9552:9555   */\n      dup3\n        /* \"#utility.yul\":9548:9560   */\n      add\n        /* \"#utility.yul\":9541:9560   */\n      swap1\n      pop\n        /* \"#utility.yul\":9200:9566   */\n      swap2\n      swap1\n      pop\n      jump\t// out\n        /* \"#utility.yul\":9572:9991   */\n    tag_79:\n        /* \"#utility.yul\":9738:9742   */\n      0x00\n        /* \"#utility.yul\":9776:9778   */\n      0x20\n        /* \"#utility.yul\":9765:9774   */\n      dup3\n        /* \"#utility.yul\":9761:9779   */\n      add\n        /* \"#utility.yul\":9753:9779   */\n      swap1\n      pop\n        /* \"#utility.yul\":9825:9834   */\n      dup2\n        /* \"#utility.yul\":9819:9823   */\n      dup2\n        /* \"#utility.yul\":9815:9835   */\n      sub\n        /* \"#utility.yul\":9811:9812   */\n      0x00\n        /* \"#utility.yul\":9800:9809   */\n      dup4\n        /* \"#utility.yul\":9796:9813   */\n      add\n        /* \"#utility.yul\":9789:9836   */\n      mstore\n        /* \"#utility.yul\":9853:9984   */\n      tag_191\n        /* \"#utility.yul\":9979:9983   */\n      dup2\n        /* \"#utility.yul\":9853:9984   */\n      tag_113\n      jump\t// in\n    tag_191:\n        /* \"#utility.yul\":9845:9984   */\n      swap1\n      pop\n        /* \"#utility.yul\":9572:9991   */\n      swap2\n      swap1\n      pop\n      jump\t// out\n        /* \"#utility.yul\":9997:10160   */\n    tag_114:\n        /* \"#utility.yul\":10137:10152   */\n      0x4d7573742073656e642045544800000000000000000000000000000000000000\n        /* \"#utility.yul\":10133:10134   */\n      0x00\n        /* \"#utility.yul\":10125:10131   */\n      dup3\n        /* \"#utility.yul\":10121:10135   */\n      add\n        /* \"#utility.yul\":10114:10153   */\n      mstore\n        /* \"#utility.yul\":9997:10160   */\n      pop\n      jump\t// out\n        /* \"#utility.yul\":10166:10532   */\n    tag_115:\n        /* \"#utility.yul\":10308:10311   */\n      0x00\n        /* \"#utility.yul\":10329:10396   */\n      tag_194\n        /* \"#utility.yul\":10393:10395   */\n      0x0d\n        /* \"#utility.yul\":10388:10391   */\n      dup4\n        /* \"#utility.yul\":10329:10396   */\n      tag_96\n      jump\t// in\n    tag_194:\n        /* \"#utility.yul\":10322:10396   */\n      swap2\n      pop\n        /* \"#utility.yul\":10405:10498   */\n      tag_195\n        /* \"#utility.yul\":10494:10497   */\n      dup3\n        /* \"#utility.yul\":10405:10498   */\n      tag_114\n      jump\t// in\n    tag_195:\n        /* \"#utility.yul\":10523:10525   */\n      0x20\n        /* \"#utility.yul\":10518:10521   */\n      dup3\n        /* \"#utility.yul\":10514:10526   */\n      add\n        /* \"#utility.yul\":10507:10526   */\n      swap1\n      pop\n        /* \"#utility.yul\":10166:10532   */\n      swap2\n      swap1\n      pop\n      jump\t// out\n        /* \"#utility.yul\":10538:10957   */\n    tag_82:\n        /* \"#utility.yul\":10704:10708   */\n      0x00\n        /* \"#utility.yul\":10742:10744   */\n      0x20\n        /* \"#utility.yul\":10731:10740   */\n      dup3\n        /* \"#utility.yul\":10727:10745   */\n      add\n        /* \"#utility.yul\":10719:10745   */\n      swap1\n      pop\n        /* \"#utility.yul\":10791:10800   */\n      dup2\n        /* \"#utility.yul\":10785:10789   */\n      dup2\n        /* \"#utility.yul\":10781:10801   */\n      sub\n        /* \"#utility.yul\":10777:10778   */\n      0x00\n        /* \"#utility.yul\":10766:10775   */\n      dup4\n        /* \"#utility.yul\":10762:10779   */\n      add\n        /* \"#utility.yul\":10755:10802   */\n      mstore\n        /* \"#utility.yul\":10819:10950   */\n      tag_197\n        /* \"#utility.yul\":10945:10949   */\n      dup2\n        /* \"#utility.yul\":10819:10950   */\n      tag_115\n      jump\t// in\n    tag_197:\n        /* \"#utility.yul\":10811:10950   */\n      swap1\n      pop\n        /* \"#utility.yul\":10538:10957   */\n      swap2\n      swap1\n      pop\n      jump\t// out\n        /* \"#utility.yul\":10963:11143   */\n    tag_116:\n        /* \"#utility.yul\":11011:11088   */\n      0x4e487b7100000000000000000000000000000000000000000000000000000000\n        /* \"#utility.yul\":11008:11009   */\n      0x00\n        /* \"#utility.yul\":11001:11089   */\n      mstore\n        /* \"#utility.yul\":11108:11112   */\n      0x11\n        /* \"#utility.yul\":11105:11106   */\n      0x04\n        /* \"#utility.yul\":11098:11113   */\n      mstore\n        /* \"#utility.yul\":11132:11136   */\n      0x24\n        /* \"#utility.yul\":11129:11130   */\n      0x00\n        /* \"#utility.yul\":11122:11137   */\n      revert\n        /* \"#utility.yul\":11149:11340   */\n    tag_84:\n        /* \"#utility.yul\":11189:11192   */\n      0x00\n        /* \"#utility.yul\":11208:11228   */\n      tag_200\n        /* \"#utility.yul\":11226:11227   */\n      dup3\n        /* \"#utility.yul\":11208:11228   */\n      tag_86\n      jump\t// in\n    tag_200:\n        /* \"#utility.yul\":11203:11228   */\n      swap2\n      pop\n        /* \"#utility.yul\":11242:11262   */\n      tag_201\n        /* \"#utility.yul\":11260:11261   */\n      dup4\n        /* \"#utility.yul\":11242:11262   */\n      tag_86\n      jump\t// in\n    tag_201:\n        /* \"#utility.yul\":11237:11262   */\n      swap3\n      pop\n        /* \"#utility.yul\":11285:11286   */\n      dup3\n        /* \"#utility.yul\":11282:11283   */\n      dup3\n        /* \"#utility.yul\":11278:11287   */\n      add\n        /* \"#utility.yul\":11271:11287   */\n      swap1\n      pop\n        /* \"#utility.yul\":11306:11309   */\n      dup1\n        /* \"#utility.yul\":11303:11304   */\n      dup3\n        /* \"#utility.yul\":11300:11310   */\n      gt\n        /* \"#utility.yul\":11297:11333   */\n      iszero\n      tag_202\n      jumpi\n        /* \"#utility.yul\":11313:11331   */\n      tag_203\n      tag_116\n      jump\t// in\n    tag_203:\n        /* \"#utility.yul\":11297:11333   */\n    tag_202:\n        /* \"#utility.yul\":11149:11340   */\n      swap3\n      swap2\n      pop\n      pop\n      jump\t// out\n\n    auxdata: 0xa2646970667358221220dff11ecae9e40454d4c45d53fa7425dc01b621a363083e050db140c60fe92a0e64736f6c634300081f0033\n}\n",
				"bytecode": {
					"linkReferences": {},
					"object": "608060405234801561000f575f5ffd5b50604051610cd2380380610cd2833981810160405281019061003191906100d5565b335f5f6101000a81548173ffffffffffffffffffffffffffffffffffffffff021916908373ffffffffffffffffffffffffffffffffffffffff1602179055508160018190555062015180816100869190610140565b426100919190610181565b60028190555050506101b4565b5f5ffd5b5f819050919050565b6100b4816100a2565b81146100be575f5ffd5b50565b5f815190506100cf816100ab565b92915050565b5f5f604083850312156100eb576100ea61009e565b5b5f6100f8858286016100c1565b9250506020610109858286016100c1565b9150509250929050565b7f4e487b71000000000000000000000000000000000000000000000000000000005f52601160045260245ffd5b5f61014a826100a2565b9150610155836100a2565b9250828202610163816100a2565b9150828204841483151761017a57610179610113565b5b5092915050565b5f61018b826100a2565b9150610196836100a2565b92508282019050808211156101ae576101ad610113565b5b92915050565b610b11806101c15f395ff3fe608060405260043610610085575f3560e01c8063590e1ae311610058578063590e1ae31461012f5780636f9fb98a146101455780638da5cb5b1461016f578063968ed60014610199578063d7bb99ba146101c357610085565b806329dcb0cf146100895780633ccfd60b146100b357806340193883146100c957806342e94c90146100f3575b5f5ffd5b348015610094575f5ffd5b5061009d6101cd565b6040516100aa9190610620565b60405180910390f35b3480156100be575f5ffd5b506100c76101d3565b005b3480156100d4575f5ffd5b506100dd6103b8565b6040516100ea9190610620565b60405180910390f35b3480156100fe575f5ffd5b5061011960048036038101906101149190610697565b6103be565b6040516101269190610620565b60405180910390f35b34801561013a575f5ffd5b506101436103d3565b005b348015610150575f5ffd5b506101596104e4565b6040516101669190610620565b60405180910390f35b34801561017a575f5ffd5b506101836104eb565b60405161019091906106d1565b60405180910390f35b3480156101a4575f5ffd5b506101ad61050f565b6040516101ba9190610620565b60405180910390f35b6101cb610515565b005b60025481565b5f5f9054906101000a900473ffffffffffffffffffffffffffffffffffffffff1673ffffffffffffffffffffffffffffffffffffffff163373ffffffffffffffffffffffffffffffffffffffff1614610261576040517f08c379a000000000000000000000000000000000000000000000000000000000815260040161025890610744565b60405180910390fd5b6002544210156102a6576040517f08c379a000000000000000000000000000000000000000000000000000000000815260040161029d906107ac565b60405180910390fd5b60015460035410156102ed576040517f08c379a00000000000000000000000000000000000000000000000000000000081526004016102e490610814565b60405180910390fd5b5f5f5f9054906101000a900473ffffffffffffffffffffffffffffffffffffffff1673ffffffffffffffffffffffffffffffffffffffff16476040516103329061085f565b5f6040518083038185875af1925050503d805f811461036c576040519150601f19603f3d011682016040523d82523d5f602084013e610371565b606091505b50509050806103b5576040517f08c379a00000000000000000000000000000000000000000000000000000000081526004016103ac906108bd565b60405180910390fd5b50565b60015481565b6004602052805f5260405f205f915090505481565b600254421015610418576040517f08c379a000000000000000000000000000000000000000000000000000000000815260040161040f906107ac565b60405180910390fd5b6001546003541061045e576040517f08c379a000000000000000000000000000000000000000000000000000000000815260040161045590610925565b60405180910390fd5b5f60045f3373ffffffffffffffffffffffffffffffffffffffff1673ffffffffffffffffffffffffffffffffffffffff1681526020019081526020015f205490505f81116104e1576040517f08c379a00000000000000000000000000000000000000000000000000000000081526004016104d89061098d565b60405180910390fd5b50565b5f47905090565b5f5f9054906101000a900473ffffffffffffffffffffffffffffffffffffffff1681565b60035481565b6002544210610559576040517f08c379a0000000000000000000000000000000000000000000000000000000008152600401610550906109f5565b60405180910390fd5b5f341161059b576040517f08c379a000000000000000000000000000000000000000000000000000000000815260040161059290610a5d565b60405180910390fd5b3460045f3373ffffffffffffffffffffffffffffffffffffffff1673ffffffffffffffffffffffffffffffffffffffff1681526020019081526020015f205f8282546105e79190610aa8565b925050819055503460035f8282546105ff9190610aa8565b92505081905550565b5f819050919050565b61061a81610608565b82525050565b5f6020820190506106335f830184610611565b92915050565b5f5ffd5b5f73ffffffffffffffffffffffffffffffffffffffff82169050919050565b5f6106668261063d565b9050919050565b6106768161065c565b8114610680575f5ffd5b50565b5f813590506106918161066d565b92915050565b5f602082840312156106ac576106ab610639565b5b5f6106b984828501610683565b91505092915050565b6106cb8161065c565b82525050565b5f6020820190506106e45f8301846106c2565b92915050565b5f82825260208201905092915050565b7f4f6e6c79206f776e65722063616e2077697468647261770000000000000000005f82015250565b5f61072e6017836106ea565b9150610739826106fa565b602082019050919050565b5f6020820190508181035f83015261075b81610722565b9050919050565b7f43616d706169676e207374696c6c2061637469766500000000000000000000005f82015250565b5f6107966015836106ea565b91506107a182610762565b602082019050919050565b5f6020820190508181035f8301526107c38161078a565b9050919050565b7f476f616c206e6f742072656163686564000000000000000000000000000000005f82015250565b5f6107fe6010836106ea565b9150610809826107ca565b602082019050919050565b5f6020820190508181035f83015261082b816107f2565b9050919050565b5f81905092915050565b50565b5f61084a5f83610832565b91506108558261083c565b5f82019050919050565b5f6108698261083f565b9150819050919050565b7f5472616e73666572206661696c656400000000000000000000000000000000005f82015250565b5f6108a7600f836106ea565b91506108b282610873565b602082019050919050565b5f6020820190508181035f8301526108d48161089b565b9050919050565b7f476f616c207761732072656163686564000000000000000000000000000000005f82015250565b5f61090f6010836106ea565b915061091a826108db565b602082019050919050565b5f6020820190508181035f83015261093c81610903565b9050919050565b7f4e6f20636f6e747269627574696f6e20666f756e6400000000000000000000005f82015250565b5f6109776015836106ea565b915061098282610943565b602082019050919050565b5f6020820190508181035f8301526109a48161096b565b9050919050565b7f43616d706169676e20656e6465640000000000000000000000000000000000005f82015250565b5f6109df600e836106ea565b91506109ea826109ab565b602082019050919050565b5f6020820190508181035f830152610a0c816109d3565b9050919050565b7f4d7573742073656e6420455448000000000000000000000000000000000000005f82015250565b5f610a47600d836106ea565b9150610a5282610a13565b602082019050919050565b5f6020820190508181035f830152610a7481610a3b565b9050919050565b7f4e487b71000000000000000000000000000000000000000000000000000000005f52601160045260245ffd5b5f610ab282610608565b9150610abd83610608565b9250828201905080821115610ad557610ad4610a7b565b5b9291505056fea2646970667358221220dff11ecae9e40454d4c45d53fa7425dc01b621a363083e050db140c60fe92a0e64736f6c634300081f0033",
					"opcodes": "PUSH1 0x80 PUSH1 0x40 MSTORE CALLVALUE DUP1 ISZERO PUSH2 0xF JUMPI PUSH0 PUSH0 REVERT JUMPDEST POP PUSH1 0x40 MLOAD PUSH2 0xCD2 CODESIZE SUB DUP1 PUSH2 0xCD2 DUP4 CODECOPY DUP2 DUP2 ADD PUSH1 0x40 MSTORE DUP2 ADD SWAP1 PUSH2 0x31 SWAP2 SWAP1 PUSH2 0xD5 JUMP JUMPDEST CALLER PUSH0 PUSH0 PUSH2 0x100 EXP DUP2 SLOAD DUP2 PUSH20 0xFFFFFFFFFFFFFFFFFFFFFFFFFFFFFFFFFFFFFFFF MUL NOT AND SWAP1 DUP4 PUSH20 0xFFFFFFFFFFFFFFFFFFFFFFFFFFFFFFFFFFFFFFFF AND MUL OR SWAP1 SSTORE POP DUP2 PUSH1 0x1 DUP2 SWAP1 SSTORE POP PUSH3 0x15180 DUP2 PUSH2 0x86 SWAP2 SWAP1 PUSH2 0x140 JUMP JUMPDEST TIMESTAMP PUSH2 0x91 SWAP2 SWAP1 PUSH2 0x181 JUMP JUMPDEST PUSH1 0x2 DUP2 SWAP1 SSTORE POP POP POP PUSH2 0x1B4 JUMP JUMPDEST PUSH0 PUSH0 REVERT JUMPDEST PUSH0 DUP2 SWAP1 POP SWAP2 SWAP1 POP JUMP JUMPDEST PUSH2 0xB4 DUP2 PUSH2 0xA2 JUMP JUMPDEST DUP2 EQ PUSH2 0xBE JUMPI PUSH0 PUSH0 REVERT JUMPDEST POP JUMP JUMPDEST PUSH0 DUP2 MLOAD SWAP1 POP PUSH2 0xCF DUP2 PUSH2 0xAB JUMP JUMPDEST SWAP3 SWAP2 POP POP JUMP JUMPDEST PUSH0 PUSH0 PUSH1 0x40 DUP4 DUP6 SUB SLT ISZERO PUSH2 0xEB JUMPI PUSH2 0xEA PUSH2 0x9E JUMP JUMPDEST JUMPDEST PUSH0 PUSH2 0xF8 DUP6 DUP3 DUP7 ADD PUSH2 0xC1 JUMP JUMPDEST SWAP3 POP POP PUSH1 0x20 PUSH2 0x109 DUP6 DUP3 DUP7 ADD PUSH2 0xC1 JUMP JUMPDEST SWAP2 POP POP SWAP3 POP SWAP3 SWAP1 POP JUMP JUMPDEST PUSH32 0x4E487B7100000000000000000000000000000000000000000000000000000000 PUSH0 MSTORE PUSH1 0x11 PUSH1 0x4 MSTORE PUSH1 0x24 PUSH0 REVERT JUMPDEST PUSH0 PUSH2 0x14A DUP3 PUSH2 0xA2 JUMP JUMPDEST SWAP2 POP PUSH2 0x155 DUP4 PUSH2 0xA2 JUMP JUMPDEST SWAP3 POP DUP3 DUP3 MUL PUSH2 0x163 DUP2 PUSH2 0xA2 JUMP JUMPDEST SWAP2 POP DUP3 DUP3 DIV DUP5 EQ DUP4 ISZERO OR PUSH2 0x17A JUMPI PUSH2 0x179 PUSH2 0x113 JUMP JUMPDEST JUMPDEST POP SWAP3 SWAP2 POP POP JUMP JUMPDEST PUSH0 PUSH2 0x18B DUP3 PUSH2 0xA2 JUMP JUMPDEST SWAP2 POP PUSH2 0x196 DUP4 PUSH2 0xA2 JUMP JUMPDEST SWAP3 POP DUP3 DUP3 ADD SWAP1 POP DUP1 DUP3 GT ISZERO PUSH2 0x1AE JUMPI PUSH2 0x1AD PUSH2 0x113 JUMP JUMPDEST JUMPDEST SWAP3 SWAP2 POP POP JUMP JUMPDEST PUSH2 0xB11 DUP1 PUSH2 0x1C1 PUSH0 CODECOPY PUSH0 RETURN INVALID PUSH1 0x80 PUSH1 0x40 MSTORE PUSH1 0x4 CALLDATASIZE LT PUSH2 0x85 JUMPI PUSH0 CALLDATALOAD PUSH1 0xE0 SHR DUP1 PUSH4 0x590E1AE3 GT PUSH2 0x58 JUMPI DUP1 PUSH4 0x590E1AE3 EQ PUSH2 0x12F JUMPI DUP1 PUSH4 0x6F9FB98A EQ PUSH2 0x145 JUMPI DUP1 PUSH4 0x8DA5CB5B EQ PUSH2 0x16F JUMPI DUP1 PUSH4 0x968ED600 EQ PUSH2 0x199 JUMPI DUP1 PUSH4 0xD7BB99BA EQ PUSH2 0x1C3 JUMPI PUSH2 0x85 JUMP JUMPDEST DUP1 PUSH4 0x29DCB0CF EQ PUSH2 0x89 JUMPI DUP1 PUSH4 0x3CCFD60B EQ PUSH2 0xB3 JUMPI DUP1 PUSH4 0x40193883 EQ PUSH2 0xC9 JUMPI DUP1 PUSH4 0x42E94C90 EQ PUSH2 0xF3 JUMPI JUMPDEST PUSH0 PUSH0 REVERT JUMPDEST CALLVALUE DUP1 ISZERO PUSH2 0x94 JUMPI PUSH0 PUSH0 REVERT JUMPDEST POP PUSH2 0x9D PUSH2 0x1CD JUMP JUMPDEST PUSH1 0x40 MLOAD PUSH2 0xAA SWAP2 SWAP1 PUSH2 0x620 JUMP JUMPDEST PUSH1 0x40 MLOAD DUP1 SWAP2 SUB SWAP1 RETURN JUMPDEST CALLVALUE DUP1 ISZERO PUSH2 0xBE JUMPI PUSH0 PUSH0 REVERT JUMPDEST POP PUSH2 0xC7 PUSH2 0x1D3 JUMP JUMPDEST STOP JUMPDEST CALLVALUE DUP1 ISZERO PUSH2 0xD4 JUMPI PUSH0 PUSH0 REVERT JUMPDEST POP PUSH2 0xDD PUSH2 0x3B8 JUMP JUMPDEST PUSH1 0x40 MLOAD PUSH2 0xEA SWAP2 SWAP1 PUSH2 0x620 JUMP JUMPDEST PUSH1 0x40 MLOAD DUP1 SWAP2 SUB SWAP1 RETURN JUMPDEST CALLVALUE DUP1 ISZERO PUSH2 0xFE JUMPI PUSH0 PUSH0 REVERT JUMPDEST POP PUSH2 0x119 PUSH1 0x4 DUP1 CALLDATASIZE SUB DUP2 ADD SWAP1 PUSH2 0x114 SWAP2 SWAP1 PUSH2 0x697 JUMP JUMPDEST PUSH2 0x3BE JUMP JUMPDEST PUSH1 0x40 MLOAD PUSH2 0x126 SWAP2 SWAP1 PUSH2 0x620 JUMP JUMPDEST PUSH1 0x40 MLOAD DUP1 SWAP2 SUB SWAP1 RETURN JUMPDEST CALLVALUE DUP1 ISZERO PUSH2 0x13A JUMPI PUSH0 PUSH0 REVERT JUMPDEST POP PUSH2 0x143 PUSH2 0x3D3 JUMP JUMPDEST STOP JUMPDEST CALLVALUE DUP1 ISZERO PUSH2 0x150 JUMPI PUSH0 PUSH0 REVERT JUMPDEST POP PUSH2 0x159 PUSH2 0x4E4 JUMP JUMPDEST PUSH1 0x40 MLOAD PUSH2 0x166 SWAP2 SWAP1 PUSH2 0x620 JUMP JUMPDEST PUSH1 0x40 MLOAD DUP1 SWAP2 SUB SWAP1 RETURN JUMPDEST CALLVALUE DUP1 ISZERO PUSH2 0x17A JUMPI PUSH0 PUSH0 REVERT JUMPDEST POP PUSH2 0x183 PUSH2 0x4EB JUMP JUMPDEST PUSH1 0x40 MLOAD PUSH2 0x190 SWAP2 SWAP1 PUSH2 0x6D1 JUMP JUMPDEST PUSH1 0x40 MLOAD DUP1 SWAP2 SUB SWAP1 RETURN JUMPDEST CALLVALUE DUP1 ISZERO PUSH2 0x1A4 JUMPI PUSH0 PUSH0 REVERT JUMPDEST POP PUSH2 0x1AD PUSH2 0x50F JUMP JUMPDEST PUSH1 0x40 MLOAD PUSH2 0x1BA SWAP2 SWAP1 PUSH2 0x620 JUMP JUMPDEST PUSH1 0x40 MLOAD DUP1 SWAP2 SUB SWAP1 RETURN JUMPDEST PUSH2 0x1CB PUSH2 0x515 JUMP JUMPDEST STOP JUMPDEST PUSH1 0x2 SLOAD DUP2 JUMP JUMPDEST PUSH0 PUSH0 SWAP1 SLOAD SWAP1 PUSH2 0x100 EXP SWAP1 DIV PUSH20 0xFFFFFFFFFFFFFFFFFFFFFFFFFFFFFFFFFFFFFFFF AND PUSH20 0xFFFFFFFFFFFFFFFFFFFFFFFFFFFFFFFFFFFFFFFF AND CALLER PUSH20 0xFFFFFFFFFFFFFFFFFFFFFFFFFFFFFFFFFFFFFFFF AND EQ PUSH2 0x261 JUMPI PUSH1 0x40 MLOAD PUSH32 0x8C379A000000000000000000000000000000000000000000000000000000000 DUP2 MSTORE PUSH1 0x4 ADD PUSH2 0x258 SWAP1 PUSH2 0x744 JUMP JUMPDEST PUSH1 0x40 MLOAD DUP1 SWAP2 SUB SWAP1 REVERT JUMPDEST PUSH1 0x2 SLOAD TIMESTAMP LT ISZERO PUSH2 0x2A6 JUMPI PUSH1 0x40 MLOAD PUSH32 0x8C379A000000000000000000000000000000000000000000000000000000000 DUP2 MSTORE PUSH1 0x4 ADD PUSH2 0x29D SWAP1 PUSH2 0x7AC JUMP JUMPDEST PUSH1 0x40 MLOAD DUP1 SWAP2 SUB SWAP1 REVERT JUMPDEST PUSH1 0x1 SLOAD PUSH1 0x3 SLOAD LT ISZERO PUSH2 0x2ED JUMPI PUSH1 0x40 MLOAD PUSH32 0x8C379A000000000000000000000000000000000000000000000000000000000 DUP2 MSTORE PUSH1 0x4 ADD PUSH2 0x2E4 SWAP1 PUSH2 0x814 JUMP JUMPDEST PUSH1 0x40 MLOAD DUP1 SWAP2 SUB SWAP1 REVERT JUMPDEST PUSH0 PUSH0 PUSH0 SWAP1 SLOAD SWAP1 PUSH2 0x100 EXP SWAP1 DIV PUSH20 0xFFFFFFFFFFFFFFFFFFFFFFFFFFFFFFFFFFFFFFFF AND PUSH20 0xFFFFFFFFFFFFFFFFFFFFFFFFFFFFFFFFFFFFFFFF AND SELFBALANCE PUSH1 0x40 MLOAD PUSH2 0x332 SWAP1 PUSH2 0x85F JUMP JUMPDEST PUSH0 PUSH1 0x40 MLOAD DUP1 DUP4 SUB DUP2 DUP6 DUP8 GAS CALL SWAP3 POP POP POP RETURNDATASIZE DUP1 PUSH0 DUP2 EQ PUSH2 0x36C JUMPI PUSH1 0x40 MLOAD SWAP2 POP PUSH1 0x1F NOT PUSH1 0x3F RETURNDATASIZE ADD AND DUP3 ADD PUSH1 0x40 MSTORE RETURNDATASIZE DUP3 MSTORE RETURNDATASIZE PUSH0 PUSH1 0x20 DUP5 ADD RETURNDATACOPY PUSH2 0x371 JUMP JUMPDEST PUSH1 0x60 SWAP2 POP JUMPDEST POP POP SWAP1 POP DUP1 PUSH2 0x3B5 JUMPI PUSH1 0x40 MLOAD PUSH32 0x8C379A000000000000000000000000000000000000000000000000000000000 DUP2 MSTORE PUSH1 0x4 ADD PUSH2 0x3AC SWAP1 PUSH2 0x8BD JUMP JUMPDEST PUSH1 0x40 MLOAD DUP1 SWAP2 SUB SWAP1 REVERT JUMPDEST POP JUMP JUMPDEST PUSH1 0x1 SLOAD DUP2 JUMP JUMPDEST PUSH1 0x4 PUSH1 0x20 MSTORE DUP1 PUSH0 MSTORE PUSH1 0x40 PUSH0 KECCAK256 PUSH0 SWAP2 POP SWAP1 POP SLOAD DUP2 JUMP JUMPDEST PUSH1 0x2 SLOAD TIMESTAMP LT ISZERO PUSH2 0x418 JUMPI PUSH1 0x40 MLOAD PUSH32 0x8C379A000000000000000000000000000000000000000000000000000000000 DUP2 MSTORE PUSH1 0x4 ADD PUSH2 0x40F SWAP1 PUSH2 0x7AC JUMP JUMPDEST PUSH1 0x40 MLOAD DUP1 SWAP2 SUB SWAP1 REVERT JUMPDEST PUSH1 0x1 SLOAD PUSH1 0x3 SLOAD LT PUSH2 0x45E JUMPI PUSH1 0x40 MLOAD PUSH32 0x8C379A000000000000000000000000000000000000000000000000000000000 DUP2 MSTORE PUSH1 0x4 ADD PUSH2 0x455 SWAP1 PUSH2 0x925 JUMP JUMPDEST PUSH1 0x40 MLOAD DUP1 SWAP2 SUB SWAP1 REVERT JUMPDEST PUSH0 PUSH1 0x4 PUSH0 CALLER PUSH20 0xFFFFFFFFFFFFFFFFFFFFFFFFFFFFFFFFFFFFFFFF AND PUSH20 0xFFFFFFFFFFFFFFFFFFFFFFFFFFFFFFFFFFFFFFFF AND DUP2 MSTORE PUSH1 0x20 ADD SWAP1 DUP2 MSTORE PUSH1 0x20 ADD PUSH0 KECCAK256 SLOAD SWAP1 POP PUSH0 DUP2 GT PUSH2 0x4E1 JUMPI PUSH1 0x40 MLOAD PUSH32 0x8C379A000000000000000000000000000000000000000000000000000000000 DUP2 MSTORE PUSH1 0x4 ADD PUSH2 0x4D8 SWAP1 PUSH2 0x98D JUMP JUMPDEST PUSH1 0x40 MLOAD DUP1 SWAP2 SUB SWAP1 REVERT JUMPDEST POP JUMP JUMPDEST PUSH0 SELFBALANCE SWAP1 POP SWAP1 JUMP JUMPDEST PUSH0 PUSH0 SWAP1 SLOAD SWAP1 PUSH2 0x100 EXP SWAP1 DIV PUSH20 0xFFFFFFFFFFFFFFFFFFFFFFFFFFFFFFFFFFFFFFFF AND DUP2 JUMP JUMPDEST PUSH1 0x3 SLOAD DUP2 JUMP JUMPDEST PUSH1 0x2 SLOAD TIMESTAMP LT PUSH2 0x559 JUMPI PUSH1 0x40 MLOAD PUSH32 0x8C379A000000000000000000000000000000000000000000000000000000000 DUP2 MSTORE PUSH1 0x4 ADD PUSH2 0x550 SWAP1 PUSH2 0x9F5 JUMP JUMPDEST PUSH1 0x40 MLOAD DUP1 SWAP2 SUB SWAP1 REVERT JUMPDEST PUSH0 CALLVALUE GT PUSH2 0x59B JUMPI PUSH1 0x40 MLOAD PUSH32 0x8C379A000000000000000000000000000000000000000000000000000000000 DUP2 MSTORE PUSH1 0x4 ADD PUSH2 0x592 SWAP1 PUSH2 0xA5D JUMP JUMPDEST PUSH1 0x40 MLOAD DUP1 SWAP2 SUB SWAP1 REVERT JUMPDEST CALLVALUE PUSH1 0x4 PUSH0 CALLER PUSH20 0xFFFFFFFFFFFFFFFFFFFFFFFFFFFFFFFFFFFFFFFF AND PUSH20 0xFFFFFFFFFFFFFFFFFFFFFFFFFFFFFFFFFFFFFFFF AND DUP2 MSTORE PUSH1 0x20 ADD SWAP1 DUP2 MSTORE PUSH1 0x20 ADD PUSH0 KECCAK256 PUSH0 DUP3 DUP3 SLOAD PUSH2 0x5E7 SWAP2 SWAP1 PUSH2 0xAA8 JUMP JUMPDEST SWAP3 POP POP DUP2 SWAP1 SSTORE POP CALLVALUE PUSH1 0x3 PUSH0 DUP3 DUP3 SLOAD PUSH2 0x5FF SWAP2 SWAP1 PUSH2 0xAA8 JUMP JUMPDEST SWAP3 POP POP DUP2 SWAP1 SSTORE POP JUMP JUMPDEST PUSH0 DUP2 SWAP1 POP SWAP2 SWAP1 POP JUMP JUMPDEST PUSH2 0x61A DUP2 PUSH2 0x608 JUMP JUMPDEST DUP3 MSTORE POP POP JUMP JUMPDEST PUSH0 PUSH1 0x20 DUP3 ADD SWAP1 POP PUSH2 0x633 PUSH0 DUP4 ADD DUP5 PUSH2 0x611 JUMP JUMPDEST SWAP3 SWAP2 POP POP JUMP JUMPDEST PUSH0 PUSH0 REVERT JUMPDEST PUSH0 PUSH20 0xFFFFFFFFFFFFFFFFFFFFFFFFFFFFFFFFFFFFFFFF DUP3 AND SWAP1 POP SWAP2 SWAP1 POP JUMP JUMPDEST PUSH0 PUSH2 0x666 DUP3 PUSH2 0x63D JUMP JUMPDEST SWAP1 POP SWAP2 SWAP1 POP JUMP JUMPDEST PUSH2 0x676 DUP2 PUSH2 0x65C JUMP JUMPDEST DUP2 EQ PUSH2 0x680 JUMPI PUSH0 PUSH0 REVERT JUMPDEST POP JUMP JUMPDEST PUSH0 DUP2 CALLDATALOAD SWAP1 POP PUSH2 0x691 DUP2 PUSH2 0x66D JUMP JUMPDEST SWAP3 SWAP2 POP POP JUMP JUMPDEST PUSH0 PUSH1 0x20 DUP3 DUP5 SUB SLT ISZERO PUSH2 0x6AC JUMPI PUSH2 0x6AB PUSH2 0x639 JUMP JUMPDEST JUMPDEST PUSH0 PUSH2 0x6B9 DUP5 DUP3 DUP6 ADD PUSH2 0x683 JUMP JUMPDEST SWAP2 POP POP SWAP3 SWAP2 POP POP JUMP JUMPDEST PUSH2 0x6CB DUP2 PUSH2 0x65C JUMP JUMPDEST DUP3 MSTORE POP POP JUMP JUMPDEST PUSH0 PUSH1 0x20 DUP3 ADD SWAP1 POP PUSH2 0x6E4 PUSH0 DUP4 ADD DUP5 PUSH2 0x6C2 JUMP JUMPDEST SWAP3 SWAP2 POP POP JUMP JUMPDEST PUSH0 DUP3 DUP3 MSTORE PUSH1 0x20 DUP3 ADD SWAP1 POP SWAP3 SWAP2 POP POP JUMP JUMPDEST PUSH32 0x4F6E6C79206F776E65722063616E207769746864726177000000000000000000 PUSH0 DUP3 ADD MSTORE POP JUMP JUMPDEST PUSH0 PUSH2 0x72E PUSH1 0x17 DUP4 PUSH2 0x6EA JUMP JUMPDEST SWAP2 POP PUSH2 0x739 DUP3 PUSH2 0x6FA JUMP JUMPDEST PUSH1 0x20 DUP3 ADD SWAP1 POP SWAP2 SWAP1 POP JUMP JUMPDEST PUSH0 PUSH1 0x20 DUP3 ADD SWAP1 POP DUP2 DUP2 SUB PUSH0 DUP4 ADD MSTORE PUSH2 0x75B DUP2 PUSH2 0x722 JUMP JUMPDEST SWAP1 POP SWAP2 SWAP1 POP JUMP JUMPDEST PUSH32 0x43616D706169676E207374696C6C206163746976650000000000000000000000 PUSH0 DUP3 ADD MSTORE POP JUMP JUMPDEST PUSH0 PUSH2 0x796 PUSH1 0x15 DUP4 PUSH2 0x6EA JUMP JUMPDEST SWAP2 POP PUSH2 0x7A1 DUP3 PUSH2 0x762 JUMP JUMPDEST PUSH1 0x20 DUP3 ADD SWAP1 POP SWAP2 SWAP1 POP JUMP JUMPDEST PUSH0 PUSH1 0x20 DUP3 ADD SWAP1 POP DUP2 DUP2 SUB PUSH0 DUP4 ADD MSTORE PUSH2 0x7C3 DUP2 PUSH2 0x78A JUMP JUMPDEST SWAP1 POP SWAP2 SWAP1 POP JUMP JUMPDEST PUSH32 0x476F616C206E6F74207265616368656400000000000000000000000000000000 PUSH0 DUP3 ADD MSTORE POP JUMP JUMPDEST PUSH0 PUSH2 0x7FE PUSH1 0x10 DUP4 PUSH2 0x6EA JUMP JUMPDEST SWAP2 POP PUSH2 0x809 DUP3 PUSH2 0x7CA JUMP JUMPDEST PUSH1 0x20 DUP3 ADD SWAP1 POP SWAP2 SWAP1 POP JUMP JUMPDEST PUSH0 PUSH1 0x20 DUP3 ADD SWAP1 POP DUP2 DUP2 SUB PUSH0 DUP4 ADD MSTORE PUSH2 0x82B DUP2 PUSH2 0x7F2 JUMP JUMPDEST SWAP1 POP SWAP2 SWAP1 POP JUMP JUMPDEST PUSH0 DUP2 SWAP1 POP SWAP3 SWAP2 POP POP JUMP JUMPDEST POP JUMP JUMPDEST PUSH0 PUSH2 0x84A PUSH0 DUP4 PUSH2 0x832 JUMP JUMPDEST SWAP2 POP PUSH2 0x855 DUP3 PUSH2 0x83C JUMP JUMPDEST PUSH0 DUP3 ADD SWAP1 POP SWAP2 SWAP1 POP JUMP JUMPDEST PUSH0 PUSH2 0x869 DUP3 PUSH2 0x83F JUMP JUMPDEST SWAP2 POP DUP2 SWAP1 POP SWAP2 SWAP1 POP JUMP JUMPDEST PUSH32 0x5472616E73666572206661696C65640000000000000000000000000000000000 PUSH0 DUP3 ADD MSTORE POP JUMP JUMPDEST PUSH0 PUSH2 0x8A7 PUSH1 0xF DUP4 PUSH2 0x6EA JUMP JUMPDEST SWAP2 POP PUSH2 0x8B2 DUP3 PUSH2 0x873 JUMP JUMPDEST PUSH1 0x20 DUP3 ADD SWAP1 POP SWAP2 SWAP1 POP JUMP JUMPDEST PUSH0 PUSH1 0x20 DUP3 ADD SWAP1 POP DUP2 DUP2 SUB PUSH0 DUP4 ADD MSTORE PUSH2 0x8D4 DUP2 PUSH2 0x89B JUMP JUMPDEST SWAP1 POP SWAP2 SWAP1 POP JUMP JUMPDEST PUSH32 0x476F616C20776173207265616368656400000000000000000000000000000000 PUSH0 DUP3 ADD MSTORE POP JUMP JUMPDEST PUSH0 PUSH2 0x90F PUSH1 0x10 DUP4 PUSH2 0x6EA JUMP JUMPDEST SWAP2 POP PUSH2 0x91A DUP3 PUSH2 0x8DB JUMP JUMPDEST PUSH1 0x20 DUP3 ADD SWAP1 POP SWAP2 SWAP1 POP JUMP JUMPDEST PUSH0 PUSH1 0x20 DUP3 ADD SWAP1 POP DUP2 DUP2 SUB PUSH0 DUP4 ADD MSTORE PUSH2 0x93C DUP2 PUSH2 0x903 JUMP JUMPDEST SWAP1 POP SWAP2 SWAP1 POP JUMP JUMPDEST PUSH32 0x4E6F20636F6E747269627574696F6E20666F756E640000000000000000000000 PUSH0 DUP3 ADD MSTORE POP JUMP JUMPDEST PUSH0 PUSH2 0x977 PUSH1 0x15 DUP4 PUSH2 0x6EA JUMP JUMPDEST SWAP2 POP PUSH2 0x982 DUP3 PUSH2 0x943 JUMP JUMPDEST PUSH1 0x20 DUP3 ADD SWAP1 POP SWAP2 SWAP1 POP JUMP JUMPDEST PUSH0 PUSH1 0x20 DUP3 ADD SWAP1 POP DUP2 DUP2 SUB PUSH0 DUP4 ADD MSTORE PUSH2 0x9A4 DUP2 PUSH2 0x96B JUMP JUMPDEST SWAP1 POP SWAP2 SWAP1 POP JUMP JUMPDEST PUSH32 0x43616D706169676E20656E646564000000000000000000000000000000000000 PUSH0 DUP3 ADD MSTORE POP JUMP JUMPDEST PUSH0 PUSH2 0x9DF PUSH1 0xE DUP4 PUSH2 0x6EA JUMP JUMPDEST SWAP2 POP PUSH2 0x9EA DUP3 PUSH2 0x9AB JUMP JUMPDEST PUSH1 0x20 DUP3 ADD SWAP1 POP SWAP2 SWAP1 POP JUMP JUMPDEST PUSH0 PUSH1 0x20 DUP3 ADD SWAP1 POP DUP2 DUP2 SUB PUSH0 DUP4 ADD MSTORE PUSH2 0xA0C DUP2 PUSH2 0x9D3 JUMP JUMPDEST SWAP1 POP SWAP2 SWAP1 POP JUMP JUMPDEST PUSH32 0x4D7573742073656E642045544800000000000000000000000000000000000000 PUSH0 DUP3 ADD MSTORE POP JUMP JUMPDEST PUSH0 PUSH2 0xA47 PUSH1 0xD DUP4 PUSH2 0x6EA JUMP JUMPDEST SWAP2 POP PUSH2 0xA52 DUP3 PUSH2 0xA13 JUMP JUMPDEST PUSH1 0x20 DUP3 ADD SWAP1 POP SWAP2 SWAP1 POP JUMP JUMPDEST PUSH0 PUSH1 0x20 DUP3 ADD SWAP1 POP DUP2 DUP2 SUB PUSH0 DUP4 ADD MSTORE PUSH2 0xA74 DUP2 PUSH2 0xA3B JUMP JUMPDEST SWAP1 POP SWAP2 SWAP1 POP JUMP JUMPDEST PUSH32 0x4E487B7100000000000000000000000000000000000000000000000000000000 PUSH0 MSTORE PUSH1 0x11 PUSH1 0x4 MSTORE PUSH1 0x24 PUSH0 REVERT JUMPDEST PUSH0 PUSH2 0xAB2 DUP3 PUSH2 0x608 JUMP JUMPDEST SWAP2 POP PUSH2 0xABD DUP4 PUSH2 0x608 JUMP JUMPDEST SWAP3 POP DUP3 DUP3 ADD SWAP1 POP DUP1 DUP3 GT ISZERO PUSH2 0xAD5 JUMPI PUSH2 0xAD4 PUSH2 0xA7B JUMP JUMPDEST JUMPDEST SWAP3 SWAP2 POP POP JUMP INVALID LOG2 PUSH5 0x6970667358 0x22 SLT KECCAK256 0xDF CALL CLZ 0xCA 0xE9 RETF DIV SLOAD 0xD4 0xC4 TSTORE MSTORE8 STATICCALL PUSH21 0x25DC01B621A363083E050DB140C60FE92A0E64736F PUSH13 0x634300081F0033000000000000 "
				},
				"gasEstimates": {
					"creation": {
						"codeDepositCost": "566600",
						"executionCost": "infinite",
						"totalCost": "infinite"
					},
					"external": {
						"contribute()": "infinite",
						"contributions(address)": "2869",
						"deadline()": "2426",
						"getContractBalance()": "356",
						"goal()": "2470",
						"owner()": "2551",
						"refund()": "8994",
						"totalFunds()": "2491",
						"withdraw()": "infinite"
					}
				},
				"methodIdentifiers": {
					"contribute()": "d7bb99ba",
					"contributions(address)": "42e94c90",
					"deadline()": "29dcb0cf",
					"getContractBalance()": "6f9fb98a",
					"goal()": "40193883",
					"owner()": "8da5cb5b",
					"refund()": "590e1ae3",
					"totalFunds()": "968ed600",
					"withdraw()": "3ccfd60b"
				}
			},
			"storageLayout": {
				"storage": [
					{
						"astId": 3,
						"contract": "Crowdfunding.sol:Crowdfunding",
						"label": "owner",
						"offset": 0,
						"slot": "0",
						"type": "t_address"
					},
					{
						"astId": 5,
						"contract": "Crowdfunding.sol:Crowdfunding",
						"label": "goal",
						"offset": 0,
						"slot": "1",
						"type": "t_uint256"
					},
					{
						"astId": 7,
						"contract": "Crowdfunding.sol:Crowdfunding",
						"label": "deadline",
						"offset": 0,
						"slot": "2",
						"type": "t_uint256"
					},
					{
						"astId": 9,
						"contract": "Crowdfunding.sol:Crowdfunding",
						"label": "totalFunds",
						"offset": 0,
						"slot": "3",
						"type": "t_uint256"
					},
					{
						"astId": 13,
						"contract": "Crowdfunding.sol:Crowdfunding",
						"label": "contributions",
						"offset": 0,
						"slot": "4",
						"type": "t_mapping(t_address,t_uint256)"
					}
				],
				"types": {
					"t_address": {
						"encoding": "inplace",
						"label": "address",
						"numberOfBytes": "20"
					},
					"t_mapping(t_address,t_uint256)": {
						"encoding": "mapping",
						"key": "t_address",
						"label": "mapping(address => uint256)",
						"numberOfBytes": "32",
						"value": "t_uint256"
					},
					"t_uint256": {
						"encoding": "inplace",
						"label": "uint256",
						"numberOfBytes": "32"
					}
				}
			},
			"userdoc": {
				"kind": "user",
				"methods": {},
				"version": 1
			}
		}
	}
}