{
	"Tripsplit.sol": {
		"TripSplit": {
			"abi": [
				{
					"inputs": [],
					"stateMutability": "nonpayable",
					"type": "constructor"
				},
				{
					"anonymous": false,
					"inputs": [
						{
							"indexed": true,
							"internalType": "uint256",
							"name": "proposalId",
							"type": "uint256"
						},
						{
							"indexed": true,
							"internalType": "address",
							"name": "member",
							"type": "address"
						},
						{
							"indexed": false,
							"internalType": "uint256",
							"name": "approvals",
							"type": "uint256"
						}
					],
					"name": "Approved",
					"type": "event"
				},
				{
					"anonymous": false,
					"inputs": [
						{
							"indexed": true,
							"internalType": "address",
							"name": "from",
							"type": "address"
						},
						{
							"indexed": false,
							"internalType": "uint256",
							"name": "amount",
							"type": "uint256"
						},
						{
							"indexed": false,
							"internalType": "uint256",
							"name": "newPoolBalance",
							"type": "uint256"
						}
					],
					"name": "Deposited",
					"type": "event"
				},
				{
					"anonymous": false,
					"inputs": [
						{
							"indexed": true,
							"internalType": "uint256",
							"name": "proposalId",
							"type": "uint256"
						},
						{
							"indexed": true,
							"internalType": "address",
							"name": "to",
							"type": "address"
						},
						{
							"indexed": false,
							"internalType": "uint256",
							"name": "amount",
							"type": "uint256"
						}
					],
					"name": "Executed",
					"type": "event"
				},
				{
					"anonymous": false,
					"inputs": [
						{
							"indexed": true,
							"internalType": "uint256",
							"name": "proposalId",
							"type": "uint256"
						},
						{
							"indexed": true,
							"internalType": "address",
							"name": "proposer",
							"type": "address"
						},
						{
							"indexed": true,
							"internalType": "address",
							"name": "to",
							"type": "address"
						},
						{
							"indexed": false,
							"internalType": "uint256",
							"name": "amount",
							"type": "uint256"
						},
						{
							"indexed": false,
							"internalType": "string",
							"name": "memo",
							"type": "string"
						}
					],
					"name": "ProposalCreated",
					"type": "event"
				},
				{
					"inputs": [
						{
							"internalType": "uint256",
							"name": "proposalId",
							"type": "uint256"
						}
					],
					"name": "approveProposal",
					"outputs": [],
					"stateMutability": "nonpayable",
					"type": "function"
				},
				{
					"inputs": [
						{
							"internalType": "uint256",
							"name": "",
							"type": "uint256"
						},
						{
							"internalType": "address",
							"name": "",
							"type": "address"
						}
					],
					"name": "approvedBy",
					"outputs": [
						{
							"internalType": "bool",
							"name": "",
							"type": "bool"
						}
					],
					"stateMutability": "view",
					"type": "function"
				},
				{
					"inputs": [
						{
							"internalType": "address payable",
							"name": "to",
							"type": "address"
						},
						{
							"internalType": "uint256",
							"name": "amount",
							"type": "uint256"
						},
						{
							"internalType": "string",
							"name": "memo",
							"type": "string"
						}
					],
					"name": "createProposal",
					"outputs": [
						{
							"internalType": "uint256",
							"name": "proposalId",
							"type": "uint256"
						}
					],
					"stateMutability": "nonpayable",
					"type": "function"
				},
				{
					"inputs": [],
					"name": "deposit",
					"outputs": [],
					"stateMutability": "payable",
					"type": "function"
				},
				{
					"inputs": [
						{
							"internalType": "uint256",
							"name": "proposalId",
							"type": "uint256"
						}
					],
					"name": "executeProposal",
					"outputs": [],
					"stateMutability": "nonpayable",
					"type": "function"
				},
				{
					"inputs": [
						{
							"internalType": "uint256",
							"name": "proposalId",
							"type": "uint256"
						}
					],
					"name": "getProposal",
					"outputs": [
						{
							"internalType": "address",
							"name": "proposer",
							"type": "address"
						},
						{
							"internalType": "address",
							"name": "to",
							"type": "address"
						},
						{
							"internalType": "uint256",
							"name": "amount",
							"type": "uint256"
						},
						{
							"internalType": "string",
							"name": "memo",
							"type": "string"
						},
						{
							"internalType": "uint256",
							"name": "approvals",
							"type": "uint256"
						},
						{
							"internalType": "bool",
							"name": "executed",
							"type": "bool"
						}
					],
					"stateMutability": "view",
					"type": "function"
				},
				{
					"inputs": [
						{
							"internalType": "address",
							"name": "",
							"type": "address"
						}
					],
					"name": "isMember",
					"outputs": [
						{
							"internalType": "bool",
							"name": "",
							"type": "bool"
						}
					],
					"stateMutability": "view",
					"type": "function"
				},
				{
					"inputs": [],
					"name": "memberCount",
					"outputs": [
						{
							"internalType": "uint256",
							"name": "",
							"type": "uint256"
						}
					],
					"stateMutability": "view",
					"type": "function"
				},
				{
					"inputs": [
						{
							"internalType": "uint256",
							"name": "",
							"type": "uint256"
						}
					],
					"name": "members",
					"outputs": [
						{
							"internalType": "address",
							"name": "",
							"type": "address"
						}
					],
					"stateMutability": "view",
					"type": "function"
				},
				{
					"inputs": [],
					"name": "poolBalance",
					"outputs": [
						{
							"internalType": "uint256",
							"name": "",
							"type": "uint256"
						}
					],
					"stateMutability": "view",
					"type": "function"
				},
				{
					"inputs": [],
					"name": "proposalCount",
					"outputs": [
						{
							"internalType": "uint256",
							"name": "",
							"type": "uint256"
						}
					],
					"stateMutability": "view",
					"type": "function"
				},
				{
					"inputs": [
						{
							"internalType": "uint256",
							"name": "",
							"type": "uint256"
						}
					],
					"name": "proposals",
					"outputs": [
						{
							"internalType": "address",
							"name": "proposer",
							"type": "address"
						},
						{
							"internalType": "address payable",
							"name": "to",
							"type": "address"
						},
						{
							"internalType": "uint256",
							"name": "amount",
							"type": "uint256"
						},
						{
							"internalType": "string",
							"name": "memo",
							"type": "string"
						},
						{
							"internalType": "uint256",
							"name": "approvals",
							"type": "uint256"
						},
						{
							"internalType": "bool",
							"name": "executed",
							"type": "bool"
						}
					],
					"stateMutability": "view",
					"type": "function"
				},
				{
					"inputs": [],
					"name": "threshold",
					"outputs": [
						{
							"internalType": "uint256",
							"name": "",
							"type": "uint256"
						}
					],
					"stateMutability": "view",
					"type": "function"
				}
			],
			"devdoc": {
				"kind": "dev",
				"methods": {},
				"title": "TripSplit - a simple group trip pool with vote-to-pay proposals",
				"version": 1
			},
			"evm": {
				"assembly": "    /* \"Tripsplit.sol\":251:5171  contract TripSplit {... */\n  mstore(0x40, 0x80)\n    /* \"Tripsplit.sol\":337:338  1 */\n  0x01\n    /* \"Tripsplit.sol\":310:338  uint256 private unlocked = 1 */\n  0x00\n  sstore\n    /* \"Tripsplit.sol\":553:746  address[] public members = [... */\n  mload(0x40)\n  dup1\n  0x60\n  add\n  0x40\n  mstore\n  dup1\n    /* \"Tripsplit.sol\":591:633  0x17F6AD8Ef982297579C203069C1DbfFE4348c372 */\n  0x17f6ad8ef982297579c203069c1dbffe4348c372\n    /* \"Tripsplit.sol\":553:746  address[] public members = [... */\n  0xffffffffffffffffffffffffffffffffffffffff\n  and\n  0xffffffffffffffffffffffffffffffffffffffff\n  and\n  dup2\n  mstore\n  0x20\n  add\n    /* \"Tripsplit.sol\":644:686  0x5B38Da6a701c568545dCfcB03FcB875f56beddC4 */\n  0x5b38da6a701c568545dcfcb03fcb875f56beddc4\n    /* \"Tripsplit.sol\":553:746  address[] public members = [... */\n  0xffffffffffffffffffffffffffffffffffffffff\n  and\n  0xffffffffffffffffffffffffffffffffffffffff\n  and\n  dup2\n  mstore\n  0x20\n  add\n    /* \"Tripsplit.sol\":697:739  0x78731D3Ca6b7E34aC0F824c42a7cC18A495cabaB */\n  0x78731d3ca6b7e34ac0f824c42a7cc18a495cabab\n    /* \"Tripsplit.sol\":553:746  address[] public members = [... */\n  0xffffffffffffffffffffffffffffffffffffffff\n  and\n  0xffffffffffffffffffffffffffffffffffffffff\n  and\n  dup2\n  mstore\n  pop\n  0x01\n  swap1\n  0x03\n  tag_1\n  swap3\n  swap2\n  swap1\n  tag_2\n  jump\t// in\ntag_1:\n  pop\n    /* \"Tripsplit.sol\":898:899  2 */\n  0x02\n    /* \"Tripsplit.sol\":871:899  uint256 public threshold = 2 */\n  0x03\n  sstore\n    /* \"Tripsplit.sol\":1949:2080  constructor() {... */\n  callvalue\n  dup1\n  iszero\n  tag_3\n  jumpi\n  revert(0x00, 0x00)\ntag_3:\n  pop\n    /* \"Tripsplit.sol\":1979:1988  uint256 i */\n  0x00\n    /* \"Tripsplit.sol\":1991:1992  0 */\n  0x00\n    /* \"Tripsplit.sol\":1979:1992  uint256 i = 0 */\n  swap1\n  pop\n    /* \"Tripsplit.sol\":1974:2073  for (uint256 i = 0; i < members.length; i++) {... */\ntag_6:\n    /* \"Tripsplit.sol\":1998:2005  members */\n  0x01\n    /* \"Tripsplit.sol\":1998:2012  members.length */\n  dup1\n  sload\n  swap1\n  pop\n    /* \"Tripsplit.sol\":1994:1995  i */\n  dup2\n    /* \"Tripsplit.sol\":1994:2012  i < members.length */\n  lt\n    /* \"Tripsplit.sol\":1974:2073  for (uint256 i = 0; i < members.length; i++) {... */\n  iszero\n  tag_7\n  jumpi\n    /* \"Tripsplit.sol\":2057:2061  true */\n  0x01\n    /* \"Tripsplit.sol\":2034:2042  isMember */\n  0x02\n    /* \"Tripsplit.sol\":2034:2054  isMember[members[i]] */\n  0x00\n    /* \"Tripsplit.sol\":2043:2050  members */\n  0x01\n    /* \"Tripsplit.sol\":2051:2052  i */\n  dup5\n    /* \"Tripsplit.sol\":2043:2053  members[i] */\n  dup2\n  sload\n  dup2\n  lt\n  tag_9\n  jumpi\n  tag_10\n  tag_11\n  jump\t// in\ntag_10:\ntag_9:\n  swap1\n  0x00\n  mstore\n  keccak256(0x00, 0x20)\n  add\n  0x00\n  swap1\n  sload\n  swap1\n  0x0100\n  exp\n  swap1\n  div\n  0xffffffffffffffffffffffffffffffffffffffff\n  and\n    /* \"Tripsplit.sol\":2034:2054  isMember[members[i]] */\n  0xffffffffffffffffffffffffffffffffffffffff\n  and\n  0xffffffffffffffffffffffffffffffffffffffff\n  and\n  dup2\n  mstore\n  0x20\n  add\n  swap1\n  dup2\n  mstore\n  0x20\n  add\n  0x00\n  keccak256\n  0x00\n    /* \"Tripsplit.sol\":2034:2061  isMember[members[i]] = true */\n  0x0100\n  exp\n  dup2\n  sload\n  dup2\n  0xff\n  mul\n  not\n  and\n  swap1\n  dup4\n  iszero\n  iszero\n  mul\n  or\n  swap1\n  sstore\n  pop\n    /* \"Tripsplit.sol\":2014:2017  i++ */\n  dup1\n  dup1\n  0x01\n  add\n  swap2\n  pop\n  pop\n    /* \"Tripsplit.sol\":1974:2073  for (uint256 i = 0; i < members.length; i++) {... */\n  jump(tag_6)\ntag_7:\n  pop\n    /* \"Tripsplit.sol\":251:5171  contract TripSplit {... */\n  jump(tag_13)\ntag_2:\n  dup3\n  dup1\n  sload\n  dup3\n  dup3\n  sstore\n  swap1\n  0x00\n  mstore\n  keccak256(0x00, 0x20)\n  swap1\n  dup2\n  add\n  swap3\n  dup3\n  iszero\n  tag_14\n  jumpi\n  swap2\n  0x20\n  mul\n  dup3\n  add\ntag_15:\n  dup3\n  dup2\n  gt\n  iszero\n  tag_16\n  jumpi\n  dup3\n  mload\n  dup3\n  exp(0x0100, 0x00)\n  dup2\n  sload\n  dup2\n  0xffffffffffffffffffffffffffffffffffffffff\n  mul\n  not\n  and\n  swap1\n  dup4\n  0xffffffffffffffffffffffffffffffffffffffff\n  and\n  mul\n  or\n  swap1\n  sstore\n  pop\n  swap2\n  0x20\n  add\n  swap2\n  swap1\n  0x01\n  add\n  swap1\n  jump(tag_15)\ntag_16:\ntag_14:\n  pop\n  swap1\n  pop\n  tag_17\n  swap2\n  swap1\n  tag_18\n  jump\t// in\ntag_17:\n  pop\n  swap1\n  jump\t// out\ntag_18:\ntag_19:\n  dup1\n  dup3\n  gt\n  iszero\n  tag_20\n  jumpi\n  0x00\n  dup2\n  0x00\n  swap1\n  sstore\n  pop\n  0x01\n  add\n  jump(tag_19)\ntag_20:\n  pop\n  swap1\n  jump\t// out\n    /* \"#utility.yul\":7:187   */\ntag_11:\n    /* \"#utility.yul\":55:132   */\n  0x4e487b7100000000000000000000000000000000000000000000000000000000\n    /* \"#utility.yul\":52:53   */\n  0x00\n    /* \"#utility.yul\":45:133   */\n  mstore\n    /* \"#utility.yul\":152:156   */\n  0x32\n    /* \"#utility.yul\":149:150   */\n  0x04\n    /* \"#utility.yul\":142:157   */\n  mstore\n    /* \"#utility.yul\":176:180   */\n  0x24\n    /* \"#utility.yul\":173:174   */\n  0x00\n    /* \"#utility.yul\":166:181   */\n  revert\n    /* \"Tripsplit.sol\":251:5171  contract TripSplit {... */\ntag_13:\n  dataSize(sub_0)\n  dup1\n  dataOffset(sub_0)\n  0x00\n  codecopy\n  0x00\n  return\nstop\n\nsub_0: assembly {\n        /* \"Tripsplit.sol\":251:5171  contract TripSplit {... */\n      mstore(0x40, 0x80)\n      jumpi(tag_1, lt(calldatasize, 0x04))\n      shr(0xe0, calldataload(0x00))\n      dup1\n      0x96365d44\n      gt\n      tag_15\n      jumpi\n      dup1\n      0xc7f758a8\n      gt\n      tag_16\n      jumpi\n      dup1\n      0xc7f758a8\n      eq\n      tag_11\n      jumpi\n      dup1\n      0xcca5a8b2\n      eq\n      tag_12\n      jumpi\n      dup1\n      0xd0e30db0\n      eq\n      tag_13\n      jumpi\n      dup1\n      0xda35c664\n      eq\n      tag_14\n      jumpi\n      jump(tag_1)\n    tag_16:\n      dup1\n      0x96365d44\n      eq\n      tag_8\n      jumpi\n      dup1\n      0x98951b56\n      eq\n      tag_9\n      jumpi\n      dup1\n      0xa230c524\n      eq\n      tag_10\n      jumpi\n      jump(tag_1)\n    tag_15:\n      dup1\n      0x013cf08b\n      eq\n      tag_2\n      jumpi\n      dup1\n      0x0d61b519\n      eq\n      tag_3\n      jumpi\n      dup1\n      0x11aee380\n      eq\n      tag_4\n      jumpi\n      dup1\n      0x42cde4e8\n      eq\n      tag_5\n      jumpi\n      dup1\n      0x5daf08ca\n      eq\n      tag_6\n      jumpi\n      dup1\n      0x85667f1c\n      eq\n      tag_7\n      jumpi\n    tag_1:\n      revert(0x00, 0x00)\n        /* \"Tripsplit.sol\":1188:1215  Proposal[] public proposals */\n    tag_2:\n      callvalue\n      dup1\n      iszero\n      tag_17\n      jumpi\n      revert(0x00, 0x00)\n    tag_17:\n      pop\n      tag_18\n      0x04\n      dup1\n      calldatasize\n      sub\n      dup2\n      add\n      swap1\n      tag_19\n      swap2\n      swap1\n      tag_20\n      jump\t// in\n    tag_19:\n      tag_21\n      jump\t// in\n    tag_18:\n      mload(0x40)\n      tag_22\n      swap7\n      swap6\n      swap5\n      swap4\n      swap3\n      swap2\n      swap1\n      tag_23\n      jump\t// in\n    tag_22:\n      mload(0x40)\n      dup1\n      swap2\n      sub\n      swap1\n      return\n        /* \"Tripsplit.sol\":3711:4380  function executeProposal(uint256 proposalId)... */\n    tag_3:\n      callvalue\n      dup1\n      iszero\n      tag_24\n      jumpi\n      revert(0x00, 0x00)\n    tag_24:\n      pop\n      tag_25\n      0x04\n      dup1\n      calldatasize\n      sub\n      dup2\n      add\n      swap1\n      tag_26\n      swap2\n      swap1\n      tag_20\n      jump\t// in\n    tag_26:\n      tag_27\n      jump\t// in\n    tag_25:\n      stop\n        /* \"Tripsplit.sol\":4444:4539  function memberCount() external view returns (uint256) {... */\n    tag_4:\n      callvalue\n      dup1\n      iszero\n      tag_28\n      jumpi\n      revert(0x00, 0x00)\n    tag_28:\n      pop\n      tag_29\n      tag_30\n      jump\t// in\n    tag_29:\n      mload(0x40)\n      tag_31\n      swap2\n      swap1\n      tag_32\n      jump\t// in\n    tag_31:\n      mload(0x40)\n      dup1\n      swap2\n      sub\n      swap1\n      return\n        /* \"Tripsplit.sol\":871:899  uint256 public threshold = 2 */\n    tag_5:\n      callvalue\n      dup1\n      iszero\n      tag_33\n      jumpi\n      revert(0x00, 0x00)\n    tag_33:\n      pop\n      tag_34\n      tag_35\n      jump\t// in\n    tag_34:\n      mload(0x40)\n      tag_36\n      swap2\n      swap1\n      tag_32\n      jump\t// in\n    tag_36:\n      mload(0x40)\n      dup1\n      swap2\n      sub\n      swap1\n      return\n        /* \"Tripsplit.sol\":553:746  address[] public members = [... */\n    tag_6:\n      callvalue\n      dup1\n      iszero\n      tag_37\n      jumpi\n      revert(0x00, 0x00)\n    tag_37:\n      pop\n      tag_38\n      0x04\n      dup1\n      calldatasize\n      sub\n      dup2\n      add\n      swap1\n      tag_39\n      swap2\n      swap1\n      tag_20\n      jump\t// in\n    tag_39:\n      tag_40\n      jump\t// in\n    tag_38:\n      mload(0x40)\n      tag_41\n      swap2\n      swap1\n      tag_42\n      jump\t// in\n    tag_41:\n      mload(0x40)\n      dup1\n      swap2\n      sub\n      swap1\n      return\n        /* \"Tripsplit.sol\":1266:1328  mapping(uint256 => mapping(address => bool)) public approvedBy */\n    tag_7:\n      callvalue\n      dup1\n      iszero\n      tag_43\n      jumpi\n      revert(0x00, 0x00)\n    tag_43:\n      pop\n      tag_44\n      0x04\n      dup1\n      calldatasize\n      sub\n      dup2\n      add\n      swap1\n      tag_45\n      swap2\n      swap1\n      tag_46\n      jump\t// in\n    tag_45:\n      tag_47\n      jump\t// in\n    tag_44:\n      mload(0x40)\n      tag_48\n      swap2\n      swap1\n      tag_49\n      jump\t// in\n    tag_48:\n      mload(0x40)\n      dup1\n      swap2\n      sub\n      swap1\n      return\n        /* \"Tripsplit.sol\":908:934  uint256 public poolBalance */\n    tag_8:\n      callvalue\n      dup1\n      iszero\n      tag_50\n      jumpi\n      revert(0x00, 0x00)\n    tag_50:\n      pop\n      tag_51\n      tag_52\n      jump\t// in\n    tag_51:\n      mload(0x40)\n      tag_53\n      swap2\n      swap1\n      tag_32\n      jump\t// in\n    tag_53:\n      mload(0x40)\n      dup1\n      swap2\n      sub\n      swap1\n      return\n        /* \"Tripsplit.sol\":3183:3640  function approveProposal(uint256 proposalId) external onlyMember {... */\n    tag_9:\n      callvalue\n      dup1\n      iszero\n      tag_54\n      jumpi\n      revert(0x00, 0x00)\n    tag_54:\n      pop\n      tag_55\n      0x04\n      dup1\n      calldatasize\n      sub\n      dup2\n      add\n      swap1\n      tag_56\n      swap2\n      swap1\n      tag_20\n      jump\t// in\n    tag_56:\n      tag_57\n      jump\t// in\n    tag_55:\n      stop\n        /* \"Tripsplit.sol\":755:795  mapping(address => bool) public isMember */\n    tag_10:\n      callvalue\n      dup1\n      iszero\n      tag_58\n      jumpi\n      revert(0x00, 0x00)\n    tag_58:\n      pop\n      tag_59\n      0x04\n      dup1\n      calldatasize\n      sub\n      dup2\n      add\n      swap1\n      tag_60\n      swap2\n      swap1\n      tag_61\n      jump\t// in\n    tag_60:\n      tag_62\n      jump\t// in\n    tag_59:\n      mload(0x40)\n      tag_63\n      swap2\n      swap1\n      tag_49\n      jump\t// in\n    tag_63:\n      mload(0x40)\n      dup1\n      swap2\n      sub\n      swap1\n      return\n        /* \"Tripsplit.sol\":4654:5168  function getProposal(uint256 proposalId)... */\n    tag_11:\n      callvalue\n      dup1\n      iszero\n      tag_64\n      jumpi\n      revert(0x00, 0x00)\n    tag_64:\n      pop\n      tag_65\n      0x04\n      dup1\n      calldatasize\n      sub\n      dup2\n      add\n      swap1\n      tag_66\n      swap2\n      swap1\n      tag_20\n      jump\t// in\n    tag_66:\n      tag_67\n      jump\t// in\n    tag_65:\n      mload(0x40)\n      tag_68\n      swap7\n      swap6\n      swap5\n      swap4\n      swap3\n      swap2\n      swap1\n      tag_69\n      jump\t// in\n    tag_68:\n      mload(0x40)\n      dup1\n      swap2\n      sub\n      swap1\n      return\n        /* \"Tripsplit.sol\":2427:3117  function createProposal(... */\n    tag_12:\n      callvalue\n      dup1\n      iszero\n      tag_70\n      jumpi\n      revert(0x00, 0x00)\n    tag_70:\n      pop\n      tag_71\n      0x04\n      dup1\n      calldatasize\n      sub\n      dup2\n      add\n      swap1\n      tag_72\n      swap2\n      swap1\n      tag_73\n      jump\t// in\n    tag_72:\n      tag_74\n      jump\t// in\n    tag_71:\n      mload(0x40)\n      tag_75\n      swap2\n      swap1\n      tag_32\n      jump\t// in\n    tag_75:\n      mload(0x40)\n      dup1\n      swap2\n      sub\n      swap1\n      return\n        /* \"Tripsplit.sol\":2153:2347  function deposit() external payable onlyMember {... */\n    tag_13:\n      tag_76\n      tag_77\n      jump\t// in\n    tag_76:\n      stop\n        /* \"Tripsplit.sol\":4547:4646  function proposalCount() external view returns (uint256) {... */\n    tag_14:\n      callvalue\n      dup1\n      iszero\n      tag_78\n      jumpi\n      revert(0x00, 0x00)\n    tag_78:\n      pop\n      tag_79\n      tag_80\n      jump\t// in\n    tag_79:\n      mload(0x40)\n      tag_81\n      swap2\n      swap1\n      tag_32\n      jump\t// in\n    tag_81:\n      mload(0x40)\n      dup1\n      swap2\n      sub\n      swap1\n      return\n        /* \"Tripsplit.sol\":1188:1215  Proposal[] public proposals */\n    tag_21:\n      0x05\n      dup2\n      dup2\n      sload\n      dup2\n      lt\n      tag_82\n      jumpi\n      0x00\n      dup1\n      revert\n    tag_82:\n      swap1\n      0x00\n      mstore\n      keccak256(0x00, 0x20)\n      swap1\n      0x06\n      mul\n      add\n      0x00\n      swap2\n      pop\n      swap1\n      pop\n      dup1\n      0x00\n      add\n      0x00\n      swap1\n      sload\n      swap1\n      0x0100\n      exp\n      swap1\n      div\n      0xffffffffffffffffffffffffffffffffffffffff\n      and\n      swap1\n      dup1\n      0x01\n      add\n      0x00\n      swap1\n      sload\n      swap1\n      0x0100\n      exp\n      swap1\n      div\n      0xffffffffffffffffffffffffffffffffffffffff\n      and\n      swap1\n      dup1\n      0x02\n      add\n      sload\n      swap1\n      dup1\n      0x03\n      add\n      dup1\n      sload\n      tag_84\n      swap1\n      tag_85\n      jump\t// in\n    tag_84:\n      dup1\n      0x1f\n      add\n      0x20\n      dup1\n      swap2\n      div\n      mul\n      0x20\n      add\n      mload(0x40)\n      swap1\n      dup2\n      add\n      0x40\n      mstore\n      dup1\n      swap3\n      swap2\n      swap1\n      dup2\n      dup2\n      mstore\n      0x20\n      add\n      dup3\n      dup1\n      sload\n      tag_86\n      swap1\n      tag_85\n      jump\t// in\n    tag_86:\n      dup1\n      iszero\n      tag_87\n      jumpi\n      dup1\n      0x1f\n      lt\n      tag_88\n      jumpi\n      0x0100\n      dup1\n      dup4\n      sload\n      div\n      mul\n      dup4\n      mstore\n      swap2\n      0x20\n      add\n      swap2\n      jump(tag_87)\n    tag_88:\n      dup3\n      add\n      swap2\n      swap1\n      0x00\n      mstore\n      keccak256(0x00, 0x20)\n      swap1\n    tag_89:\n      dup2\n      sload\n      dup2\n      mstore\n      swap1\n      0x01\n      add\n      swap1\n      0x20\n      add\n      dup1\n      dup4\n      gt\n      tag_89\n      jumpi\n      dup3\n      swap1\n      sub\n      0x1f\n      and\n      dup3\n      add\n      swap2\n    tag_87:\n      pop\n      pop\n      pop\n      pop\n      pop\n      swap1\n      dup1\n      0x04\n      add\n      sload\n      swap1\n      dup1\n      0x05\n      add\n      0x00\n      swap1\n      sload\n      swap1\n      0x0100\n      exp\n      swap1\n      div\n      0xff\n      and\n      swap1\n      pop\n      dup7\n      jump\t// out\n        /* \"Tripsplit.sol\":3711:4380  function executeProposal(uint256 proposalId)... */\n    tag_27:\n        /* \"Tripsplit.sol\":400:401  1 */\n      0x01\n        /* \"Tripsplit.sol\":388:396  unlocked */\n      sload(0x00)\n        /* \"Tripsplit.sol\":388:401  unlocked == 1 */\n      eq\n        /* \"Tripsplit.sol\":380:416  require(unlocked == 1, \"Reentrancy\") */\n      tag_91\n      jumpi\n      mload(0x40)\n      0x08c379a000000000000000000000000000000000000000000000000000000000\n      dup2\n      mstore\n      0x04\n      add\n      tag_92\n      swap1\n      tag_93\n      jump\t// in\n    tag_92:\n      mload(0x40)\n      dup1\n      swap2\n      sub\n      swap1\n      revert\n    tag_91:\n        /* \"Tripsplit.sol\":438:439  2 */\n      0x02\n        /* \"Tripsplit.sol\":427:435  unlocked */\n      0x00\n        /* \"Tripsplit.sol\":427:439  unlocked = 2 */\n      dup2\n      swap1\n      sstore\n      pop\n        /* \"Tripsplit.sol\":1824:1832  isMember */\n      0x02\n        /* \"Tripsplit.sol\":1824:1844  isMember[msg.sender] */\n      0x00\n        /* \"Tripsplit.sol\":1833:1843  msg.sender */\n      caller\n        /* \"Tripsplit.sol\":1824:1844  isMember[msg.sender] */\n      0xffffffffffffffffffffffffffffffffffffffff\n      and\n      0xffffffffffffffffffffffffffffffffffffffff\n      and\n      dup2\n      mstore\n      0x20\n      add\n      swap1\n      dup2\n      mstore\n      0x20\n      add\n      0x00\n      keccak256\n      0x00\n      swap1\n      sload\n      swap1\n      0x0100\n      exp\n      swap1\n      div\n      0xff\n      and\n        /* \"Tripsplit.sol\":1816:1861  require(isMember[msg.sender], \"Not a member\") */\n      tag_95\n      jumpi\n      mload(0x40)\n      0x08c379a000000000000000000000000000000000000000000000000000000000\n      dup2\n      mstore\n      0x04\n      add\n      tag_96\n      swap1\n      tag_97\n      jump\t// in\n    tag_96:\n      mload(0x40)\n      dup1\n      swap2\n      sub\n      swap1\n      revert\n    tag_95:\n        /* \"Tripsplit.sol\":3853:3862  proposals */\n      0x05\n        /* \"Tripsplit.sol\":3853:3869  proposals.length */\n      dup1\n      sload\n      swap1\n      pop\n        /* \"Tripsplit.sol\":3840:3850  proposalId */\n      dup2\n        /* \"Tripsplit.sol\":3840:3869  proposalId < proposals.length */\n      lt\n        /* \"Tripsplit.sol\":3832:3880  require(proposalId < proposals.length, \"Bad id\") */\n      tag_99\n      jumpi\n      mload(0x40)\n      0x08c379a000000000000000000000000000000000000000000000000000000000\n      dup2\n      mstore\n      0x04\n      add\n      tag_100\n      swap1\n      tag_101\n      jump\t// in\n    tag_100:\n      mload(0x40)\n      dup1\n      swap2\n      sub\n      swap1\n      revert\n    tag_99:\n        /* \"Tripsplit.sol\":3893:3911  Proposal storage p */\n      0x00\n        /* \"Tripsplit.sol\":3914:3923  proposals */\n      0x05\n        /* \"Tripsplit.sol\":3924:3934  proposalId */\n      dup3\n        /* \"Tripsplit.sol\":3914:3935  proposals[proposalId] */\n      dup2\n      sload\n      dup2\n      lt\n      tag_102\n      jumpi\n      tag_103\n      tag_104\n      jump\t// in\n    tag_103:\n    tag_102:\n      swap1\n      0x00\n      mstore\n      keccak256(0x00, 0x20)\n      swap1\n      0x06\n      mul\n      add\n        /* \"Tripsplit.sol\":3893:3935  Proposal storage p = proposals[proposalId] */\n      swap1\n      pop\n        /* \"Tripsplit.sol\":3955:3956  p */\n      dup1\n        /* \"Tripsplit.sol\":3955:3965  p.executed */\n      0x05\n      add\n      0x00\n      swap1\n      sload\n      swap1\n      0x0100\n      exp\n      swap1\n      div\n      0xff\n      and\n        /* \"Tripsplit.sol\":3954:3965  !p.executed */\n      iszero\n        /* \"Tripsplit.sol\":3946:3986  require(!p.executed, \"Already executed\") */\n      tag_106\n      jumpi\n      mload(0x40)\n      0x08c379a000000000000000000000000000000000000000000000000000000000\n      dup2\n      mstore\n      0x04\n      add\n      tag_107\n      swap1\n      tag_108\n      jump\t// in\n    tag_107:\n      mload(0x40)\n      dup1\n      swap2\n      sub\n      swap1\n      revert\n    tag_106:\n        /* \"Tripsplit.sol\":4020:4029  threshold */\n      sload(0x03)\n        /* \"Tripsplit.sol\":4005:4006  p */\n      dup2\n        /* \"Tripsplit.sol\":4005:4016  p.approvals */\n      0x04\n      add\n      sload\n        /* \"Tripsplit.sol\":4005:4029  p.approvals >= threshold */\n      lt\n      iszero\n        /* \"Tripsplit.sol\":3997:4054  require(p.approvals >= threshold, \"Not enough approvals\") */\n      tag_109\n      jumpi\n      mload(0x40)\n      0x08c379a000000000000000000000000000000000000000000000000000000000\n      dup2\n      mstore\n      0x04\n      add\n      tag_110\n      swap1\n      tag_111\n      jump\t// in\n    tag_110:\n      mload(0x40)\n      dup1\n      swap2\n      sub\n      swap1\n      revert\n    tag_109:\n        /* \"Tripsplit.sol\":4085:4096  poolBalance */\n      sload(0x04)\n        /* \"Tripsplit.sol\":4073:4074  p */\n      dup2\n        /* \"Tripsplit.sol\":4073:4081  p.amount */\n      0x02\n      add\n      sload\n        /* \"Tripsplit.sol\":4073:4096  p.amount <= poolBalance */\n      gt\n      iszero\n        /* \"Tripsplit.sol\":4065:4113  require(p.amount <= poolBalance, \"Pool changed\") */\n      tag_112\n      jumpi\n      mload(0x40)\n      0x08c379a000000000000000000000000000000000000000000000000000000000\n      dup2\n      mstore\n      0x04\n      add\n      tag_113\n      swap1\n      tag_114\n      jump\t// in\n    tag_113:\n      mload(0x40)\n      dup1\n      swap2\n      sub\n      swap1\n      revert\n    tag_112:\n        /* \"Tripsplit.sol\":4159:4163  true */\n      0x01\n        /* \"Tripsplit.sol\":4146:4147  p */\n      dup2\n        /* \"Tripsplit.sol\":4146:4156  p.executed */\n      0x05\n      add\n      0x00\n        /* \"Tripsplit.sol\":4146:4163  p.executed = true */\n      0x0100\n      exp\n      dup2\n      sload\n      dup2\n      0xff\n      mul\n      not\n      and\n      swap1\n      dup4\n      iszero\n      iszero\n      mul\n      or\n      swap1\n      sstore\n      pop\n        /* \"Tripsplit.sol\":4189:4190  p */\n      dup1\n        /* \"Tripsplit.sol\":4189:4197  p.amount */\n      0x02\n      add\n      sload\n        /* \"Tripsplit.sol\":4174:4185  poolBalance */\n      0x04\n      0x00\n        /* \"Tripsplit.sol\":4174:4197  poolBalance -= p.amount */\n      dup3\n      dup3\n      sload\n      tag_115\n      swap2\n      swap1\n      tag_116\n      jump\t// in\n    tag_115:\n      swap3\n      pop\n      pop\n      dup2\n      swap1\n      sstore\n      pop\n        /* \"Tripsplit.sol\":4235:4242  bool ok */\n      0x00\n        /* \"Tripsplit.sol\":4248:4249  p */\n      dup2\n        /* \"Tripsplit.sol\":4248:4252  p.to */\n      0x01\n      add\n      0x00\n      swap1\n      sload\n      swap1\n      0x0100\n      exp\n      swap1\n      div\n      0xffffffffffffffffffffffffffffffffffffffff\n      and\n        /* \"Tripsplit.sol\":4248:4257  p.to.call */\n      0xffffffffffffffffffffffffffffffffffffffff\n      and\n        /* \"Tripsplit.sol\":4265:4266  p */\n      dup3\n        /* \"Tripsplit.sol\":4265:4273  p.amount */\n      0x02\n      add\n      sload\n        /* \"Tripsplit.sol\":4248:4278  p.to.call{value: p.amount}(\"\") */\n      mload(0x40)\n      tag_117\n      swap1\n      tag_118\n      jump\t// in\n    tag_117:\n      0x00\n      mload(0x40)\n      dup1\n      dup4\n      sub\n      dup2\n      dup6\n      dup8\n      gas\n      call\n      swap3\n      pop\n      pop\n      pop\n      returndatasize\n      dup1\n      0x00\n      dup2\n      eq\n      tag_121\n      jumpi\n      mload(0x40)\n      swap2\n      pop\n      and(add(returndatasize, 0x3f), not(0x1f))\n      dup3\n      add\n      0x40\n      mstore\n      returndatasize\n      dup3\n      mstore\n      returndatasize\n      0x00\n      0x20\n      dup5\n      add\n      returndatacopy\n      jump(tag_120)\n    tag_121:\n      0x60\n      swap2\n      pop\n    tag_120:\n      pop\n        /* \"Tripsplit.sol\":4234:4278  (bool ok, ) = p.to.call{value: p.amount}(\"\") */\n      pop\n      swap1\n      pop\n        /* \"Tripsplit.sol\":4297:4299  ok */\n      dup1\n        /* \"Tripsplit.sol\":4289:4318  require(ok, \"Payment failed\") */\n      tag_122\n      jumpi\n      mload(0x40)\n      0x08c379a000000000000000000000000000000000000000000000000000000000\n      dup2\n      mstore\n      0x04\n      add\n      tag_123\n      swap1\n      tag_124\n      jump\t// in\n    tag_123:\n      mload(0x40)\n      dup1\n      swap2\n      sub\n      swap1\n      revert\n    tag_122:\n        /* \"Tripsplit.sol\":4357:4358  p */\n      dup2\n        /* \"Tripsplit.sol\":4357:4361  p.to */\n      0x01\n      add\n      0x00\n      swap1\n      sload\n      swap1\n      0x0100\n      exp\n      swap1\n      div\n      0xffffffffffffffffffffffffffffffffffffffff\n      and\n        /* \"Tripsplit.sol\":4336:4372  Executed(proposalId, p.to, p.amount) */\n      0xffffffffffffffffffffffffffffffffffffffff\n      and\n        /* \"Tripsplit.sol\":4345:4355  proposalId */\n      dup4\n        /* \"Tripsplit.sol\":4336:4372  Executed(proposalId, p.to, p.amount) */\n      0x12c8907d32b752d626a36cf18f31719e25f1a3b6f750ee948c22c036373d48aa\n        /* \"Tripsplit.sol\":4363:4364  p */\n      dup5\n        /* \"Tripsplit.sol\":4363:4371  p.amount */\n      0x02\n      add\n      sload\n        /* \"Tripsplit.sol\":4336:4372  Executed(proposalId, p.to, p.amount) */\n      mload(0x40)\n      tag_125\n      swap2\n      swap1\n      tag_32\n      jump\t// in\n    tag_125:\n      mload(0x40)\n      dup1\n      swap2\n      sub\n      swap1\n      log3\n        /* \"Tripsplit.sol\":3821:4380  {... */\n      pop\n      pop\n        /* \"Tripsplit.sol\":473:474  1 */\n      0x01\n        /* \"Tripsplit.sol\":462:470  unlocked */\n      0x00\n        /* \"Tripsplit.sol\":462:474  unlocked = 1 */\n      dup2\n      swap1\n      sstore\n      pop\n        /* \"Tripsplit.sol\":3711:4380  function executeProposal(uint256 proposalId)... */\n      pop\n      jump\t// out\n        /* \"Tripsplit.sol\":4444:4539  function memberCount() external view returns (uint256) {... */\n    tag_30:\n        /* \"Tripsplit.sol\":4490:4497  uint256 */\n      0x00\n        /* \"Tripsplit.sol\":4517:4524  members */\n      0x01\n        /* \"Tripsplit.sol\":4517:4531  members.length */\n      dup1\n      sload\n      swap1\n      pop\n        /* \"Tripsplit.sol\":4510:4531  return members.length */\n      swap1\n      pop\n        /* \"Tripsplit.sol\":4444:4539  function memberCount() external view returns (uint256) {... */\n      swap1\n      jump\t// out\n        /* \"Tripsplit.sol\":871:899  uint256 public threshold = 2 */\n    tag_35:\n      sload(0x03)\n      dup2\n      jump\t// out\n        /* \"Tripsplit.sol\":553:746  address[] public members = [... */\n    tag_40:\n      0x01\n      dup2\n      dup2\n      sload\n      dup2\n      lt\n      tag_127\n      jumpi\n      0x00\n      dup1\n      revert\n    tag_127:\n      swap1\n      0x00\n      mstore\n      keccak256(0x00, 0x20)\n      add\n      0x00\n      swap2\n      pop\n      sload\n      swap1\n      0x0100\n      exp\n      swap1\n      div\n      0xffffffffffffffffffffffffffffffffffffffff\n      and\n      dup2\n      jump\t// out\n        /* \"Tripsplit.sol\":1266:1328  mapping(uint256 => mapping(address => bool)) public approvedBy */\n    tag_47:\n      mstore(0x20, 0x06)\n      dup2\n      0x00\n      mstore\n      mstore(0x20, keccak256(0x00, 0x40))\n      dup1\n      0x00\n      mstore\n      keccak256(0x00, 0x40)\n      0x00\n      swap2\n      pop\n      swap2\n      pop\n      swap1\n      sload\n      swap1\n      0x0100\n      exp\n      swap1\n      div\n      0xff\n      and\n      dup2\n      jump\t// out\n        /* \"Tripsplit.sol\":908:934  uint256 public poolBalance */\n    tag_52:\n      sload(0x04)\n      dup2\n      jump\t// out\n        /* \"Tripsplit.sol\":3183:3640  function approveProposal(uint256 proposalId) external onlyMember {... */\n    tag_57:\n        /* \"Tripsplit.sol\":1824:1832  isMember */\n      0x02\n        /* \"Tripsplit.sol\":1824:1844  isMember[msg.sender] */\n      0x00\n        /* \"Tripsplit.sol\":1833:1843  msg.sender */\n      caller\n        /* \"Tripsplit.sol\":1824:1844  isMember[msg.sender] */\n      0xffffffffffffffffffffffffffffffffffffffff\n      and\n      0xffffffffffffffffffffffffffffffffffffffff\n      and\n      dup2\n      mstore\n      0x20\n      add\n      swap1\n      dup2\n      mstore\n      0x20\n      add\n      0x00\n      keccak256\n      0x00\n      swap1\n      sload\n      swap1\n      0x0100\n      exp\n      swap1\n      div\n      0xff\n      and\n        /* \"Tripsplit.sol\":1816:1861  require(isMember[msg.sender], \"Not a member\") */\n      tag_130\n      jumpi\n      mload(0x40)\n      0x08c379a000000000000000000000000000000000000000000000000000000000\n      dup2\n      mstore\n      0x04\n      add\n      tag_131\n      swap1\n      tag_97\n      jump\t// in\n    tag_131:\n      mload(0x40)\n      dup1\n      swap2\n      sub\n      swap1\n      revert\n    tag_130:\n        /* \"Tripsplit.sol\":3280:3289  proposals */\n      0x05\n        /* \"Tripsplit.sol\":3280:3296  proposals.length */\n      dup1\n      sload\n      swap1\n      pop\n        /* \"Tripsplit.sol\":3267:3277  proposalId */\n      dup2\n        /* \"Tripsplit.sol\":3267:3296  proposalId < proposals.length */\n      lt\n        /* \"Tripsplit.sol\":3259:3307  require(proposalId < proposals.length, \"Bad id\") */\n      tag_133\n      jumpi\n      mload(0x40)\n      0x08c379a000000000000000000000000000000000000000000000000000000000\n      dup2\n      mstore\n      0x04\n      add\n      tag_134\n      swap1\n      tag_101\n      jump\t// in\n    tag_134:\n      mload(0x40)\n      dup1\n      swap2\n      sub\n      swap1\n      revert\n    tag_133:\n        /* \"Tripsplit.sol\":3320:3338  Proposal storage p */\n      0x00\n        /* \"Tripsplit.sol\":3341:3350  proposals */\n      0x05\n        /* \"Tripsplit.sol\":3351:3361  proposalId */\n      dup3\n        /* \"Tripsplit.sol\":3341:3362  proposals[proposalId] */\n      dup2\n      sload\n      dup2\n      lt\n      tag_135\n      jumpi\n      tag_136\n      tag_104\n      jump\t// in\n    tag_136:\n    tag_135:\n      swap1\n      0x00\n      mstore\n      keccak256(0x00, 0x20)\n      swap1\n      0x06\n      mul\n      add\n        /* \"Tripsplit.sol\":3320:3362  Proposal storage p = proposals[proposalId] */\n      swap1\n      pop\n        /* \"Tripsplit.sol\":3382:3383  p */\n      dup1\n        /* \"Tripsplit.sol\":3382:3392  p.executed */\n      0x05\n      add\n      0x00\n      swap1\n      sload\n      swap1\n      0x0100\n      exp\n      swap1\n      div\n      0xff\n      and\n        /* \"Tripsplit.sol\":3381:3392  !p.executed */\n      iszero\n        /* \"Tripsplit.sol\":3373:3413  require(!p.executed, \"Already executed\") */\n      tag_138\n      jumpi\n      mload(0x40)\n      0x08c379a000000000000000000000000000000000000000000000000000000000\n      dup2\n      mstore\n      0x04\n      add\n      tag_139\n      swap1\n      tag_108\n      jump\t// in\n    tag_139:\n      mload(0x40)\n      dup1\n      swap2\n      sub\n      swap1\n      revert\n    tag_138:\n        /* \"Tripsplit.sol\":3433:3443  approvedBy */\n      0x06\n        /* \"Tripsplit.sol\":3433:3455  approvedBy[proposalId] */\n      0x00\n        /* \"Tripsplit.sol\":3444:3454  proposalId */\n      dup4\n        /* \"Tripsplit.sol\":3433:3455  approvedBy[proposalId] */\n      dup2\n      mstore\n      0x20\n      add\n      swap1\n      dup2\n      mstore\n      0x20\n      add\n      0x00\n      keccak256\n        /* \"Tripsplit.sol\":3433:3467  approvedBy[proposalId][msg.sender] */\n      0x00\n        /* \"Tripsplit.sol\":3456:3466  msg.sender */\n      caller\n        /* \"Tripsplit.sol\":3433:3467  approvedBy[proposalId][msg.sender] */\n      0xffffffffffffffffffffffffffffffffffffffff\n      and\n      0xffffffffffffffffffffffffffffffffffffffff\n      and\n      dup2\n      mstore\n      0x20\n      add\n      swap1\n      dup2\n      mstore\n      0x20\n      add\n      0x00\n      keccak256\n      0x00\n      swap1\n      sload\n      swap1\n      0x0100\n      exp\n      swap1\n      div\n      0xff\n      and\n        /* \"Tripsplit.sol\":3432:3467  !approvedBy[proposalId][msg.sender] */\n      iszero\n        /* \"Tripsplit.sol\":3424:3488  require(!approvedBy[proposalId][msg.sender], \"Already approved\") */\n      tag_140\n      jumpi\n      mload(0x40)\n      0x08c379a000000000000000000000000000000000000000000000000000000000\n      dup2\n      mstore\n      0x04\n      add\n      tag_141\n      swap1\n      tag_142\n      jump\t// in\n    tag_141:\n      mload(0x40)\n      dup1\n      swap2\n      sub\n      swap1\n      revert\n    tag_140:\n        /* \"Tripsplit.sol\":3538:3542  true */\n      0x01\n        /* \"Tripsplit.sol\":3501:3511  approvedBy */\n      0x06\n        /* \"Tripsplit.sol\":3501:3523  approvedBy[proposalId] */\n      0x00\n        /* \"Tripsplit.sol\":3512:3522  proposalId */\n      dup5\n        /* \"Tripsplit.sol\":3501:3523  approvedBy[proposalId] */\n      dup2\n      mstore\n      0x20\n      add\n      swap1\n      dup2\n      mstore\n      0x20\n      add\n      0x00\n      keccak256\n        /* \"Tripsplit.sol\":3501:3535  approvedBy[proposalId][msg.sender] */\n      0x00\n        /* \"Tripsplit.sol\":3524:3534  msg.sender */\n      caller\n        /* \"Tripsplit.sol\":3501:3535  approvedBy[proposalId][msg.sender] */\n      0xffffffffffffffffffffffffffffffffffffffff\n      and\n      0xffffffffffffffffffffffffffffffffffffffff\n      and\n      dup2\n      mstore\n      0x20\n      add\n      swap1\n      dup2\n      mstore\n      0x20\n      add\n      0x00\n      keccak256\n      0x00\n        /* \"Tripsplit.sol\":3501:3542  approvedBy[proposalId][msg.sender] = true */\n      0x0100\n      exp\n      dup2\n      sload\n      dup2\n      0xff\n      mul\n      not\n      and\n      swap1\n      dup4\n      iszero\n      iszero\n      mul\n      or\n      swap1\n      sstore\n      pop\n        /* \"Tripsplit.sol\":3568:3569  1 */\n      0x01\n        /* \"Tripsplit.sol\":3553:3554  p */\n      dup2\n        /* \"Tripsplit.sol\":3553:3564  p.approvals */\n      0x04\n      add\n      0x00\n        /* \"Tripsplit.sol\":3553:3569  p.approvals += 1 */\n      dup3\n      dup3\n      sload\n      tag_143\n      swap2\n      swap1\n      tag_144\n      jump\t// in\n    tag_143:\n      swap3\n      pop\n      pop\n      dup2\n      swap1\n      sstore\n      pop\n        /* \"Tripsplit.sol\":3608:3618  msg.sender */\n      caller\n        /* \"Tripsplit.sol\":3587:3632  Approved(proposalId, msg.sender, p.approvals) */\n      0xffffffffffffffffffffffffffffffffffffffff\n      and\n        /* \"Tripsplit.sol\":3596:3606  proposalId */\n      dup3\n        /* \"Tripsplit.sol\":3587:3632  Approved(proposalId, msg.sender, p.approvals) */\n      0x7060996319a743911fa38fcb4f926382972b1bcd6abeea1bd65adeb620d5dfdf\n        /* \"Tripsplit.sol\":3620:3621  p */\n      dup4\n        /* \"Tripsplit.sol\":3620:3631  p.approvals */\n      0x04\n      add\n      sload\n        /* \"Tripsplit.sol\":3587:3632  Approved(proposalId, msg.sender, p.approvals) */\n      mload(0x40)\n      tag_145\n      swap2\n      swap1\n      tag_32\n      jump\t// in\n    tag_145:\n      mload(0x40)\n      dup1\n      swap2\n      sub\n      swap1\n      log3\n        /* \"Tripsplit.sol\":3248:3640  {... */\n      pop\n        /* \"Tripsplit.sol\":3183:3640  function approveProposal(uint256 proposalId) external onlyMember {... */\n      pop\n      jump\t// out\n        /* \"Tripsplit.sol\":755:795  mapping(address => bool) public isMember */\n    tag_62:\n      mstore(0x20, 0x02)\n      dup1\n      0x00\n      mstore\n      keccak256(0x00, 0x40)\n      0x00\n      swap2\n      pop\n      sload\n      swap1\n      0x0100\n      exp\n      swap1\n      div\n      0xff\n      and\n      dup2\n      jump\t// out\n        /* \"Tripsplit.sol\":4654:5168  function getProposal(uint256 proposalId)... */\n    tag_67:\n        /* \"Tripsplit.sol\":4759:4775  address proposer */\n      0x00\n        /* \"Tripsplit.sol\":4790:4800  address to */\n      0x00\n        /* \"Tripsplit.sol\":4815:4829  uint256 amount */\n      0x00\n        /* \"Tripsplit.sol\":4844:4862  string memory memo */\n      0x60\n        /* \"Tripsplit.sol\":4877:4894  uint256 approvals */\n      0x00\n        /* \"Tripsplit.sol\":4909:4922  bool executed */\n      0x00\n        /* \"Tripsplit.sol\":4950:4968  Proposal storage p */\n      0x00\n        /* \"Tripsplit.sol\":4971:4980  proposals */\n      0x05\n        /* \"Tripsplit.sol\":4981:4991  proposalId */\n      dup9\n        /* \"Tripsplit.sol\":4971:4992  proposals[proposalId] */\n      dup2\n      sload\n      dup2\n      lt\n      tag_147\n      jumpi\n      tag_148\n      tag_104\n      jump\t// in\n    tag_148:\n    tag_147:\n      swap1\n      0x00\n      mstore\n      keccak256(0x00, 0x20)\n      swap1\n      0x06\n      mul\n      add\n        /* \"Tripsplit.sol\":4950:4992  Proposal storage p = proposals[proposalId] */\n      swap1\n      pop\n        /* \"Tripsplit.sol\":5025:5026  p */\n      dup1\n        /* \"Tripsplit.sol\":5025:5035  p.proposer */\n      0x00\n      add\n      0x00\n      swap1\n      sload\n      swap1\n      0x0100\n      exp\n      swap1\n      div\n      0xffffffffffffffffffffffffffffffffffffffff\n      and\n        /* \"Tripsplit.sol\":5050:5051  p */\n      dup2\n        /* \"Tripsplit.sol\":5050:5054  p.to */\n      0x01\n      add\n      0x00\n      swap1\n      sload\n      swap1\n      0x0100\n      exp\n      swap1\n      div\n      0xffffffffffffffffffffffffffffffffffffffff\n      and\n        /* \"Tripsplit.sol\":5069:5070  p */\n      dup3\n        /* \"Tripsplit.sol\":5069:5077  p.amount */\n      0x02\n      add\n      sload\n        /* \"Tripsplit.sol\":5092:5093  p */\n      dup4\n        /* \"Tripsplit.sol\":5092:5098  p.memo */\n      0x03\n      add\n        /* \"Tripsplit.sol\":5113:5114  p */\n      dup5\n        /* \"Tripsplit.sol\":5113:5124  p.approvals */\n      0x04\n      add\n      sload\n        /* \"Tripsplit.sol\":5139:5140  p */\n      dup6\n        /* \"Tripsplit.sol\":5139:5149  p.executed */\n      0x05\n      add\n      0x00\n      swap1\n      sload\n      swap1\n      0x0100\n      exp\n      swap1\n      div\n      0xff\n      and\n        /* \"Tripsplit.sol\":5003:5160  return (... */\n      dup3\n      dup1\n      sload\n      tag_150\n      swap1\n      tag_85\n      jump\t// in\n    tag_150:\n      dup1\n      0x1f\n      add\n      0x20\n      dup1\n      swap2\n      div\n      mul\n      0x20\n      add\n      mload(0x40)\n      swap1\n      dup2\n      add\n      0x40\n      mstore\n      dup1\n      swap3\n      swap2\n      swap1\n      dup2\n      dup2\n      mstore\n      0x20\n      add\n      dup3\n      dup1\n      sload\n      tag_151\n      swap1\n      tag_85\n      jump\t// in\n    tag_151:\n      dup1\n      iszero\n      tag_152\n      jumpi\n      dup1\n      0x1f\n      lt\n      tag_153\n      jumpi\n      0x0100\n      dup1\n      dup4\n      sload\n      div\n      mul\n      dup4\n      mstore\n      swap2\n      0x20\n      add\n      swap2\n      jump(tag_152)\n    tag_153:\n      dup3\n      add\n      swap2\n      swap1\n      0x00\n      mstore\n      keccak256(0x00, 0x20)\n      swap1\n    tag_154:\n      dup2\n      sload\n      dup2\n      mstore\n      swap1\n      0x01\n      add\n      swap1\n      0x20\n      add\n      dup1\n      dup4\n      gt\n      tag_154\n      jumpi\n      dup3\n      swap1\n      sub\n      0x1f\n      and\n      dup3\n      add\n      swap2\n    tag_152:\n      pop\n      pop\n      pop\n      pop\n      pop\n      swap3\n      pop\n      swap7\n      pop\n      swap7\n      pop\n      swap7\n      pop\n      swap7\n      pop\n      swap7\n      pop\n      swap7\n      pop\n      pop\n        /* \"Tripsplit.sol\":4654:5168  function getProposal(uint256 proposalId)... */\n      swap2\n      swap4\n      swap6\n      pop\n      swap2\n      swap4\n      swap6\n      jump\t// out\n        /* \"Tripsplit.sol\":2427:3117  function createProposal(... */\n    tag_74:\n        /* \"Tripsplit.sol\":2599:2617  uint256 proposalId */\n      0x00\n        /* \"Tripsplit.sol\":1824:1832  isMember */\n      0x02\n        /* \"Tripsplit.sol\":1824:1844  isMember[msg.sender] */\n      0x00\n        /* \"Tripsplit.sol\":1833:1843  msg.sender */\n      caller\n        /* \"Tripsplit.sol\":1824:1844  isMember[msg.sender] */\n      0xffffffffffffffffffffffffffffffffffffffff\n      and\n      0xffffffffffffffffffffffffffffffffffffffff\n      and\n      dup2\n      mstore\n      0x20\n      add\n      swap1\n      dup2\n      mstore\n      0x20\n      add\n      0x00\n      keccak256\n      0x00\n      swap1\n      sload\n      swap1\n      0x0100\n      exp\n      swap1\n      div\n      0xff\n      and\n        /* \"Tripsplit.sol\":1816:1861  require(isMember[msg.sender], \"Not a member\") */\n      tag_156\n      jumpi\n      mload(0x40)\n      0x08c379a000000000000000000000000000000000000000000000000000000000\n      dup2\n      mstore\n      0x04\n      add\n      tag_157\n      swap1\n      tag_97\n      jump\t// in\n    tag_157:\n      mload(0x40)\n      dup1\n      swap2\n      sub\n      swap1\n      revert\n    tag_156:\n        /* \"Tripsplit.sol\":2657:2658  0 */\n      0x00\n        /* \"Tripsplit.sol\":2643:2659  to != address(0) */\n      0xffffffffffffffffffffffffffffffffffffffff\n      and\n        /* \"Tripsplit.sol\":2643:2645  to */\n      dup6\n        /* \"Tripsplit.sol\":2643:2659  to != address(0) */\n      0xffffffffffffffffffffffffffffffffffffffff\n      and\n      sub\n        /* \"Tripsplit.sol\":2635:2668  require(to != address(0), \"To=0\") */\n      tag_159\n      jumpi\n      mload(0x40)\n      0x08c379a000000000000000000000000000000000000000000000000000000000\n      dup2\n      mstore\n      0x04\n      add\n      tag_160\n      swap1\n      tag_161\n      jump\t// in\n    tag_160:\n      mload(0x40)\n      dup1\n      swap2\n      sub\n      swap1\n      revert\n    tag_159:\n        /* \"Tripsplit.sol\":2696:2697  0 */\n      0x00\n        /* \"Tripsplit.sol\":2687:2693  amount */\n      dup5\n        /* \"Tripsplit.sol\":2687:2697  amount > 0 */\n      gt\n        /* \"Tripsplit.sol\":2679:2710  require(amount > 0, \"Amount=0\") */\n      tag_162\n      jumpi\n      mload(0x40)\n      0x08c379a000000000000000000000000000000000000000000000000000000000\n      dup2\n      mstore\n      0x04\n      add\n      tag_163\n      swap1\n      tag_164\n      jump\t// in\n    tag_163:\n      mload(0x40)\n      dup1\n      swap2\n      sub\n      swap1\n      revert\n    tag_162:\n        /* \"Tripsplit.sol\":2739:2750  poolBalance */\n      sload(0x04)\n        /* \"Tripsplit.sol\":2729:2735  amount */\n      dup5\n        /* \"Tripsplit.sol\":2729:2750  amount <= poolBalance */\n      gt\n      iszero\n        /* \"Tripsplit.sol\":2721:2773  require(amount <= poolBalance, \"Not enough in pool\") */\n      tag_165\n      jumpi\n      mload(0x40)\n      0x08c379a000000000000000000000000000000000000000000000000000000000\n      dup2\n      mstore\n      0x04\n      add\n      tag_166\n      swap1\n      tag_167\n      jump\t// in\n    tag_166:\n      mload(0x40)\n      dup1\n      swap2\n      sub\n      swap1\n      revert\n    tag_165:\n        /* \"Tripsplit.sol\":2786:2795  proposals */\n      0x05\n        /* \"Tripsplit.sol\":2801:2989  Proposal({... */\n      mload(0x40)\n      dup1\n      0xc0\n      add\n      0x40\n      mstore\n      dup1\n        /* \"Tripsplit.sol\":2835:2845  msg.sender */\n      caller\n        /* \"Tripsplit.sol\":2801:2989  Proposal({... */\n      0xffffffffffffffffffffffffffffffffffffffff\n      and\n      dup2\n      mstore\n      0x20\n      add\n        /* \"Tripsplit.sol\":2864:2866  to */\n      dup8\n        /* \"Tripsplit.sol\":2801:2989  Proposal({... */\n      0xffffffffffffffffffffffffffffffffffffffff\n      and\n      dup2\n      mstore\n      0x20\n      add\n        /* \"Tripsplit.sol\":2889:2895  amount */\n      dup7\n        /* \"Tripsplit.sol\":2801:2989  Proposal({... */\n      dup2\n      mstore\n      0x20\n      add\n        /* \"Tripsplit.sol\":2916:2920  memo */\n      dup6\n      dup6\n        /* \"Tripsplit.sol\":2801:2989  Proposal({... */\n      dup1\n      dup1\n      0x1f\n      add\n      0x20\n      dup1\n      swap2\n      div\n      mul\n      0x20\n      add\n      mload(0x40)\n      swap1\n      dup2\n      add\n      0x40\n      mstore\n      dup1\n      swap4\n      swap3\n      swap2\n      swap1\n      dup2\n      dup2\n      mstore\n      0x20\n      add\n      dup4\n      dup4\n      dup1\n      dup3\n      dup5\n      calldatacopy\n      0x00\n      dup2\n      dup5\n      add\n      mstore\n      not(0x1f)\n      0x1f\n      dup3\n      add\n      and\n      swap1\n      pop\n      dup1\n      dup4\n      add\n      swap3\n      pop\n      pop\n      pop\n      pop\n      pop\n      pop\n      pop\n      dup2\n      mstore\n      0x20\n      add\n        /* \"Tripsplit.sol\":2946:2947  0 */\n      0x00\n        /* \"Tripsplit.sol\":2801:2989  Proposal({... */\n      dup2\n      mstore\n      0x20\n      add\n        /* \"Tripsplit.sol\":2972:2977  false */\n      0x00\n        /* \"Tripsplit.sol\":2801:2989  Proposal({... */\n      iszero\n      iszero\n      dup2\n      mstore\n      pop\n        /* \"Tripsplit.sol\":2786:2990  proposals.push(Proposal({... */\n      swap1\n      dup1\n      0x01\n      dup2\n      sload\n      add\n      dup1\n      dup3\n      sstore\n      dup1\n      swap2\n      pop\n      pop\n      0x01\n      swap1\n      sub\n      swap1\n      0x00\n      mstore\n      keccak256(0x00, 0x20)\n      swap1\n      0x06\n      mul\n      add\n      0x00\n      swap1\n      swap2\n      swap1\n      swap2\n      swap1\n      swap2\n      pop\n      0x00\n      dup3\n      add\n      mload\n      dup2\n      0x00\n      add\n      exp(0x0100, 0x00)\n      dup2\n      sload\n      dup2\n      0xffffffffffffffffffffffffffffffffffffffff\n      mul\n      not\n      and\n      swap1\n      dup4\n      0xffffffffffffffffffffffffffffffffffffffff\n      and\n      mul\n      or\n      swap1\n      sstore\n      pop\n      0x20\n      dup3\n      add\n      mload\n      dup2\n      0x01\n      add\n      exp(0x0100, 0x00)\n      dup2\n      sload\n      dup2\n      0xffffffffffffffffffffffffffffffffffffffff\n      mul\n      not\n      and\n      swap1\n      dup4\n      0xffffffffffffffffffffffffffffffffffffffff\n      and\n      mul\n      or\n      swap1\n      sstore\n      pop\n      0x40\n      dup3\n      add\n      mload\n      dup2\n      0x02\n      add\n      sstore\n      0x60\n      dup3\n      add\n      mload\n      dup2\n      0x03\n      add\n      swap1\n      dup2\n      tag_169\n      swap2\n      swap1\n      tag_170\n      jump\t// in\n    tag_169:\n      pop\n      0x80\n      dup3\n      add\n      mload\n      dup2\n      0x04\n      add\n      sstore\n      0xa0\n      dup3\n      add\n      mload\n      dup2\n      0x05\n      add\n      exp(0x0100, 0x00)\n      dup2\n      sload\n      dup2\n      0xff\n      mul\n      not\n      and\n      swap1\n      dup4\n      iszero\n      iszero\n      mul\n      or\n      swap1\n      sstore\n      pop\n      pop\n      pop\n        /* \"Tripsplit.sol\":3035:3036  1 */\n      0x01\n        /* \"Tripsplit.sol\":3016:3025  proposals */\n      0x05\n        /* \"Tripsplit.sol\":3016:3032  proposals.length */\n      dup1\n      sload\n      swap1\n      pop\n        /* \"Tripsplit.sol\":3016:3036  proposals.length - 1 */\n      tag_171\n      swap2\n      swap1\n      tag_116\n      jump\t// in\n    tag_171:\n        /* \"Tripsplit.sol\":3003:3036  proposalId = proposals.length - 1 */\n      swap1\n      pop\n        /* \"Tripsplit.sol\":3092:3094  to */\n      dup5\n        /* \"Tripsplit.sol\":3052:3109  ProposalCreated(proposalId, msg.sender, to, amount, memo) */\n      0xffffffffffffffffffffffffffffffffffffffff\n      and\n        /* \"Tripsplit.sol\":3080:3090  msg.sender */\n      caller\n        /* \"Tripsplit.sol\":3052:3109  ProposalCreated(proposalId, msg.sender, to, amount, memo) */\n      0xffffffffffffffffffffffffffffffffffffffff\n      and\n        /* \"Tripsplit.sol\":3068:3078  proposalId */\n      dup3\n        /* \"Tripsplit.sol\":3052:3109  ProposalCreated(proposalId, msg.sender, to, amount, memo) */\n      0x51820485866a12445a1d315205e4d28921833b1ed028aed01a8c0c26fa068d70\n        /* \"Tripsplit.sol\":3096:3102  amount */\n      dup8\n        /* \"Tripsplit.sol\":3104:3108  memo */\n      dup8\n      dup8\n        /* \"Tripsplit.sol\":3052:3109  ProposalCreated(proposalId, msg.sender, to, amount, memo) */\n      mload(0x40)\n      tag_172\n      swap4\n      swap3\n      swap2\n      swap1\n      tag_173\n      jump\t// in\n    tag_172:\n      mload(0x40)\n      dup1\n      swap2\n      sub\n      swap1\n      log4\n        /* \"Tripsplit.sol\":2427:3117  function createProposal(... */\n      swap5\n      swap4\n      pop\n      pop\n      pop\n      pop\n      jump\t// out\n        /* \"Tripsplit.sol\":2153:2347  function deposit() external payable onlyMember {... */\n    tag_77:\n        /* \"Tripsplit.sol\":1824:1832  isMember */\n      0x02\n        /* \"Tripsplit.sol\":1824:1844  isMember[msg.sender] */\n      0x00\n        /* \"Tripsplit.sol\":1833:1843  msg.sender */\n      caller\n        /* \"Tripsplit.sol\":1824:1844  isMember[msg.sender] */\n      0xffffffffffffffffffffffffffffffffffffffff\n      and\n      0xffffffffffffffffffffffffffffffffffffffff\n      and\n      dup2\n      mstore\n      0x20\n      add\n      swap1\n      dup2\n      mstore\n      0x20\n      add\n      0x00\n      keccak256\n      0x00\n      swap1\n      sload\n      swap1\n      0x0100\n      exp\n      swap1\n      div\n      0xff\n      and\n        /* \"Tripsplit.sol\":1816:1861  require(isMember[msg.sender], \"Not a member\") */\n      tag_175\n      jumpi\n      mload(0x40)\n      0x08c379a000000000000000000000000000000000000000000000000000000000\n      dup2\n      mstore\n      0x04\n      add\n      tag_176\n      swap1\n      tag_97\n      jump\t// in\n    tag_176:\n      mload(0x40)\n      dup1\n      swap2\n      sub\n      swap1\n      revert\n    tag_175:\n        /* \"Tripsplit.sol\":2231:2232  0 */\n      0x00\n        /* \"Tripsplit.sol\":2219:2228  msg.value */\n      callvalue\n        /* \"Tripsplit.sol\":2219:2232  msg.value > 0 */\n      gt\n        /* \"Tripsplit.sol\":2211:2243  require(msg.value > 0, \"No ETH\") */\n      tag_178\n      jumpi\n      mload(0x40)\n      0x08c379a000000000000000000000000000000000000000000000000000000000\n      dup2\n      mstore\n      0x04\n      add\n      tag_179\n      swap1\n      tag_180\n      jump\t// in\n    tag_179:\n      mload(0x40)\n      dup1\n      swap2\n      sub\n      swap1\n      revert\n    tag_178:\n        /* \"Tripsplit.sol\":2269:2278  msg.value */\n      callvalue\n        /* \"Tripsplit.sol\":2254:2265  poolBalance */\n      0x04\n      0x00\n        /* \"Tripsplit.sol\":2254:2278  poolBalance += msg.value */\n      dup3\n      dup3\n      sload\n      tag_181\n      swap2\n      swap1\n      tag_144\n      jump\t// in\n    tag_181:\n      swap3\n      pop\n      pop\n      dup2\n      swap1\n      sstore\n      pop\n        /* \"Tripsplit.sol\":2304:2314  msg.sender */\n      caller\n        /* \"Tripsplit.sol\":2294:2339  Deposited(msg.sender, msg.value, poolBalance) */\n      0xffffffffffffffffffffffffffffffffffffffff\n      and\n      0x73a19dd210f1a7f902193214c0ee91dd35ee5b4d920cba8d519eca65a7b488ca\n        /* \"Tripsplit.sol\":2316:2325  msg.value */\n      callvalue\n        /* \"Tripsplit.sol\":2327:2338  poolBalance */\n      sload(0x04)\n        /* \"Tripsplit.sol\":2294:2339  Deposited(msg.sender, msg.value, poolBalance) */\n      mload(0x40)\n      tag_182\n      swap3\n      swap2\n      swap1\n      tag_183\n      jump\t// in\n    tag_182:\n      mload(0x40)\n      dup1\n      swap2\n      sub\n      swap1\n      log2\n        /* \"Tripsplit.sol\":2153:2347  function deposit() external payable onlyMember {... */\n      jump\t// out\n        /* \"Tripsplit.sol\":4547:4646  function proposalCount() external view returns (uint256) {... */\n    tag_80:\n        /* \"Tripsplit.sol\":4595:4602  uint256 */\n      0x00\n        /* \"Tripsplit.sol\":4622:4631  proposals */\n      0x05\n        /* \"Tripsplit.sol\":4622:4638  proposals.length */\n      dup1\n      sload\n      swap1\n      pop\n        /* \"Tripsplit.sol\":4615:4638  return proposals.length */\n      swap1\n      pop\n        /* \"Tripsplit.sol\":4547:4646  function proposalCount() external view returns (uint256) {... */\n      swap1\n      jump\t// out\n        /* \"#utility.yul\":88:205   */\n    tag_186:\n        /* \"#utility.yul\":197:198   */\n      0x00\n        /* \"#utility.yul\":194:195   */\n      0x00\n        /* \"#utility.yul\":187:199   */\n      revert\n        /* \"#utility.yul\":211:328   */\n    tag_187:\n        /* \"#utility.yul\":320:321   */\n      0x00\n        /* \"#utility.yul\":317:318   */\n      0x00\n        /* \"#utility.yul\":310:322   */\n      revert\n        /* \"#utility.yul\":334:411   */\n    tag_188:\n        /* \"#utility.yul\":371:378   */\n      0x00\n        /* \"#utility.yul\":400:405   */\n      dup2\n        /* \"#utility.yul\":389:405   */\n      swap1\n      pop\n        /* \"#utility.yul\":334:411   */\n      swap2\n      swap1\n      pop\n      jump\t// out\n        /* \"#utility.yul\":417:539   */\n    tag_189:\n        /* \"#utility.yul\":490:514   */\n      tag_265\n        /* \"#utility.yul\":508:513   */\n      dup2\n        /* \"#utility.yul\":490:514   */\n      tag_188\n      jump\t// in\n    tag_265:\n        /* \"#utility.yul\":483:488   */\n      dup2\n        /* \"#utility.yul\":480:515   */\n      eq\n        /* \"#utility.yul\":470:533   */\n      tag_266\n      jumpi\n        /* \"#utility.yul\":529:530   */\n      0x00\n        /* \"#utility.yul\":526:527   */\n      0x00\n        /* \"#utility.yul\":519:531   */\n      revert\n        /* \"#utility.yul\":470:533   */\n    tag_266:\n        /* \"#utility.yul\":417:539   */\n      pop\n      jump\t// out\n        /* \"#utility.yul\":545:684   */\n    tag_190:\n        /* \"#utility.yul\":591:596   */\n      0x00\n        /* \"#utility.yul\":629:635   */\n      dup2\n        /* \"#utility.yul\":616:636   */\n      calldataload\n        /* \"#utility.yul\":607:636   */\n      swap1\n      pop\n        /* \"#utility.yul\":645:678   */\n      tag_268\n        /* \"#utility.yul\":672:677   */\n      dup2\n        /* \"#utility.yul\":645:678   */\n      tag_189\n      jump\t// in\n    tag_268:\n        /* \"#utility.yul\":545:684   */\n      swap3\n      swap2\n      pop\n      pop\n      jump\t// out\n        /* \"#utility.yul\":690:1019   */\n    tag_20:\n        /* \"#utility.yul\":749:755   */\n      0x00\n        /* \"#utility.yul\":798:800   */\n      0x20\n        /* \"#utility.yul\":786:795   */\n      dup3\n        /* \"#utility.yul\":777:784   */\n      dup5\n        /* \"#utility.yul\":773:796   */\n      sub\n        /* \"#utility.yul\":769:801   */\n      slt\n        /* \"#utility.yul\":766:885   */\n      iszero\n      tag_270\n      jumpi\n        /* \"#utility.yul\":804:883   */\n      tag_271\n      tag_186\n      jump\t// in\n    tag_271:\n        /* \"#utility.yul\":766:885   */\n    tag_270:\n        /* \"#utility.yul\":924:925   */\n      0x00\n        /* \"#utility.yul\":949:1002   */\n      tag_272\n        /* \"#utility.yul\":994:1001   */\n      dup5\n        /* \"#utility.yul\":985:991   */\n      dup3\n        /* \"#utility.yul\":974:983   */\n      dup6\n        /* \"#utility.yul\":970:992   */\n      add\n        /* \"#utility.yul\":949:1002   */\n      tag_190\n      jump\t// in\n    tag_272:\n        /* \"#utility.yul\":939:1002   */\n      swap2\n      pop\n        /* \"#utility.yul\":895:1012   */\n      pop\n        /* \"#utility.yul\":690:1019   */\n      swap3\n      swap2\n      pop\n      pop\n      jump\t// out\n        /* \"#utility.yul\":1025:1151   */\n    tag_191:\n        /* \"#utility.yul\":1062:1069   */\n      0x00\n        /* \"#utility.yul\":1102:1144   */\n      0xffffffffffffffffffffffffffffffffffffffff\n        /* \"#utility.yul\":1095:1100   */\n      dup3\n        /* \"#utility.yul\":1091:1145   */\n      and\n        /* \"#utility.yul\":1080:1145   */\n      swap1\n      pop\n        /* \"#utility.yul\":1025:1151   */\n      swap2\n      swap1\n      pop\n      jump\t// out\n        /* \"#utility.yul\":1157:1253   */\n    tag_192:\n        /* \"#utility.yul\":1194:1201   */\n      0x00\n        /* \"#utility.yul\":1223:1247   */\n      tag_275\n        /* \"#utility.yul\":1241:1246   */\n      dup3\n        /* \"#utility.yul\":1223:1247   */\n      tag_191\n      jump\t// in\n    tag_275:\n        /* \"#utility.yul\":1212:1247   */\n      swap1\n      pop\n        /* \"#utility.yul\":1157:1253   */\n      swap2\n      swap1\n      pop\n      jump\t// out\n        /* \"#utility.yul\":1259:1377   */\n    tag_193:\n        /* \"#utility.yul\":1346:1370   */\n      tag_277\n        /* \"#utility.yul\":1364:1369   */\n      dup2\n        /* \"#utility.yul\":1346:1370   */\n      tag_192\n      jump\t// in\n    tag_277:\n        /* \"#utility.yul\":1341:1344   */\n      dup3\n        /* \"#utility.yul\":1334:1371   */\n      mstore\n        /* \"#utility.yul\":1259:1377   */\n      pop\n      pop\n      jump\t// out\n        /* \"#utility.yul\":1383:1487   */\n    tag_194:\n        /* \"#utility.yul\":1428:1435   */\n      0x00\n        /* \"#utility.yul\":1457:1481   */\n      tag_279\n        /* \"#utility.yul\":1475:1480   */\n      dup3\n        /* \"#utility.yul\":1457:1481   */\n      tag_191\n      jump\t// in\n    tag_279:\n        /* \"#utility.yul\":1446:1481   */\n      swap1\n      pop\n        /* \"#utility.yul\":1383:1487   */\n      swap2\n      swap1\n      pop\n      jump\t// out\n        /* \"#utility.yul\":1493:1635   */\n    tag_195:\n        /* \"#utility.yul\":1596:1628   */\n      tag_281\n        /* \"#utility.yul\":1622:1627   */\n      dup2\n        /* \"#utility.yul\":1596:1628   */\n      tag_194\n      jump\t// in\n    tag_281:\n        /* \"#utility.yul\":1591:1594   */\n      dup3\n        /* \"#utility.yul\":1584:1629   */\n      mstore\n        /* \"#utility.yul\":1493:1635   */\n      pop\n      pop\n      jump\t// out\n        /* \"#utility.yul\":1641:1759   */\n    tag_196:\n        /* \"#utility.yul\":1728:1752   */\n      tag_283\n        /* \"#utility.yul\":1746:1751   */\n      dup2\n        /* \"#utility.yul\":1728:1752   */\n      tag_188\n      jump\t// in\n    tag_283:\n        /* \"#utility.yul\":1723:1726   */\n      dup3\n        /* \"#utility.yul\":1716:1753   */\n      mstore\n        /* \"#utility.yul\":1641:1759   */\n      pop\n      pop\n      jump\t// out\n        /* \"#utility.yul\":1765:1864   */\n    tag_197:\n        /* \"#utility.yul\":1817:1823   */\n      0x00\n        /* \"#utility.yul\":1851:1856   */\n      dup2\n        /* \"#utility.yul\":1845:1857   */\n      mload\n        /* \"#utility.yul\":1835:1857   */\n      swap1\n      pop\n        /* \"#utility.yul\":1765:1864   */\n      swap2\n      swap1\n      pop\n      jump\t// out\n        /* \"#utility.yul\":1870:2039   */\n    tag_198:\n        /* \"#utility.yul\":1954:1965   */\n      0x00\n        /* \"#utility.yul\":1988:1994   */\n      dup3\n        /* \"#utility.yul\":1983:1986   */\n      dup3\n        /* \"#utility.yul\":1976:1995   */\n      mstore\n        /* \"#utility.yul\":2028:2032   */\n      0x20\n        /* \"#utility.yul\":2023:2026   */\n      dup3\n        /* \"#utility.yul\":2019:2033   */\n      add\n        /* \"#utility.yul\":2004:2033   */\n      swap1\n      pop\n        /* \"#utility.yul\":1870:2039   */\n      swap3\n      swap2\n      pop\n      pop\n      jump\t// out\n        /* \"#utility.yul\":2045:2184   */\n    tag_199:\n        /* \"#utility.yul\":2134:2140   */\n      dup3\n        /* \"#utility.yul\":2129:2132   */\n      dup2\n        /* \"#utility.yul\":2124:2127   */\n      dup4\n        /* \"#utility.yul\":2118:2141   */\n      mcopy\n        /* \"#utility.yul\":2175:2176   */\n      0x00\n        /* \"#utility.yul\":2166:2172   */\n      dup4\n        /* \"#utility.yul\":2161:2164   */\n      dup4\n        /* \"#utility.yul\":2157:2173   */\n      add\n        /* \"#utility.yul\":2150:2177   */\n      mstore\n        /* \"#utility.yul\":2045:2184   */\n      pop\n      pop\n      pop\n      jump\t// out\n        /* \"#utility.yul\":2190:2292   */\n    tag_200:\n        /* \"#utility.yul\":2231:2237   */\n      0x00\n        /* \"#utility.yul\":2282:2284   */\n      0x1f\n        /* \"#utility.yul\":2278:2285   */\n      not\n        /* \"#utility.yul\":2273:2275   */\n      0x1f\n        /* \"#utility.yul\":2266:2271   */\n      dup4\n        /* \"#utility.yul\":2262:2276   */\n      add\n        /* \"#utility.yul\":2258:2286   */\n      and\n        /* \"#utility.yul\":2248:2286   */\n      swap1\n      pop\n        /* \"#utility.yul\":2190:2292   */\n      swap2\n      swap1\n      pop\n      jump\t// out\n        /* \"#utility.yul\":2298:2675   */\n    tag_201:\n        /* \"#utility.yul\":2386:2389   */\n      0x00\n        /* \"#utility.yul\":2414:2453   */\n      tag_289\n        /* \"#utility.yul\":2447:2452   */\n      dup3\n        /* \"#utility.yul\":2414:2453   */\n      tag_197\n      jump\t// in\n    tag_289:\n        /* \"#utility.yul\":2469:2540   */\n      tag_290\n        /* \"#utility.yul\":2533:2539   */\n      dup2\n        /* \"#utility.yul\":2528:2531   */\n      dup6\n        /* \"#utility.yul\":2469:2540   */\n      tag_198\n      jump\t// in\n    tag_290:\n        /* \"#utility.yul\":2462:2540   */\n      swap4\n      pop\n        /* \"#utility.yul\":2549:2614   */\n      tag_291\n        /* \"#utility.yul\":2607:2613   */\n      dup2\n        /* \"#utility.yul\":2602:2605   */\n      dup6\n        /* \"#utility.yul\":2595:2599   */\n      0x20\n        /* \"#utility.yul\":2588:2593   */\n      dup7\n        /* \"#utility.yul\":2584:2600   */\n      add\n        /* \"#utility.yul\":2549:2614   */\n      tag_199\n      jump\t// in\n    tag_291:\n        /* \"#utility.yul\":2639:2668   */\n      tag_292\n        /* \"#utility.yul\":2661:2667   */\n      dup2\n        /* \"#utility.yul\":2639:2668   */\n      tag_200\n      jump\t// in\n    tag_292:\n        /* \"#utility.yul\":2634:2637   */\n      dup5\n        /* \"#utility.yul\":2630:2669   */\n      add\n        /* \"#utility.yul\":2623:2669   */\n      swap2\n      pop\n        /* \"#utility.yul\":2390:2675   */\n      pop\n        /* \"#utility.yul\":2298:2675   */\n      swap3\n      swap2\n      pop\n      pop\n      jump\t// out\n        /* \"#utility.yul\":2681:2771   */\n    tag_202:\n        /* \"#utility.yul\":2715:2722   */\n      0x00\n        /* \"#utility.yul\":2758:2763   */\n      dup2\n        /* \"#utility.yul\":2751:2764   */\n      iszero\n        /* \"#utility.yul\":2744:2765   */\n      iszero\n        /* \"#utility.yul\":2733:2765   */\n      swap1\n      pop\n        /* \"#utility.yul\":2681:2771   */\n      swap2\n      swap1\n      pop\n      jump\t// out\n        /* \"#utility.yul\":2777:2886   */\n    tag_203:\n        /* \"#utility.yul\":2858:2879   */\n      tag_295\n        /* \"#utility.yul\":2873:2878   */\n      dup2\n        /* \"#utility.yul\":2858:2879   */\n      tag_202\n      jump\t// in\n    tag_295:\n        /* \"#utility.yul\":2853:2856   */\n      dup3\n        /* \"#utility.yul\":2846:2880   */\n      mstore\n        /* \"#utility.yul\":2777:2886   */\n      pop\n      pop\n      jump\t// out\n        /* \"#utility.yul\":2892:3778   */\n    tag_23:\n        /* \"#utility.yul\":3155:3159   */\n      0x00\n        /* \"#utility.yul\":3193:3196   */\n      0xc0\n        /* \"#utility.yul\":3182:3191   */\n      dup3\n        /* \"#utility.yul\":3178:3197   */\n      add\n        /* \"#utility.yul\":3170:3197   */\n      swap1\n      pop\n        /* \"#utility.yul\":3207:3278   */\n      tag_297\n        /* \"#utility.yul\":3275:3276   */\n      0x00\n        /* \"#utility.yul\":3264:3273   */\n      dup4\n        /* \"#utility.yul\":3260:3277   */\n      add\n        /* \"#utility.yul\":3251:3257   */\n      dup10\n        /* \"#utility.yul\":3207:3278   */\n      tag_193\n      jump\t// in\n    tag_297:\n        /* \"#utility.yul\":3288:3376   */\n      tag_298\n        /* \"#utility.yul\":3372:3374   */\n      0x20\n        /* \"#utility.yul\":3361:3370   */\n      dup4\n        /* \"#utility.yul\":3357:3375   */\n      add\n        /* \"#utility.yul\":3348:3354   */\n      dup9\n        /* \"#utility.yul\":3288:3376   */\n      tag_195\n      jump\t// in\n    tag_298:\n        /* \"#utility.yul\":3386:3458   */\n      tag_299\n        /* \"#utility.yul\":3454:3456   */\n      0x40\n        /* \"#utility.yul\":3443:3452   */\n      dup4\n        /* \"#utility.yul\":3439:3457   */\n      add\n        /* \"#utility.yul\":3430:3436   */\n      dup8\n        /* \"#utility.yul\":3386:3458   */\n      tag_196\n      jump\t// in\n    tag_299:\n        /* \"#utility.yul\":3505:3514   */\n      dup2\n        /* \"#utility.yul\":3499:3503   */\n      dup2\n        /* \"#utility.yul\":3495:3515   */\n      sub\n        /* \"#utility.yul\":3490:3492   */\n      0x60\n        /* \"#utility.yul\":3479:3488   */\n      dup4\n        /* \"#utility.yul\":3475:3493   */\n      add\n        /* \"#utility.yul\":3468:3516   */\n      mstore\n        /* \"#utility.yul\":3533:3611   */\n      tag_300\n        /* \"#utility.yul\":3606:3610   */\n      dup2\n        /* \"#utility.yul\":3597:3603   */\n      dup7\n        /* \"#utility.yul\":3533:3611   */\n      tag_201\n      jump\t// in\n    tag_300:\n        /* \"#utility.yul\":3525:3611   */\n      swap1\n      pop\n        /* \"#utility.yul\":3621:3694   */\n      tag_301\n        /* \"#utility.yul\":3689:3692   */\n      0x80\n        /* \"#utility.yul\":3678:3687   */\n      dup4\n        /* \"#utility.yul\":3674:3693   */\n      add\n        /* \"#utility.yul\":3665:3671   */\n      dup6\n        /* \"#utility.yul\":3621:3694   */\n      tag_196\n      jump\t// in\n    tag_301:\n        /* \"#utility.yul\":3704:3771   */\n      tag_302\n        /* \"#utility.yul\":3766:3769   */\n      0xa0\n        /* \"#utility.yul\":3755:3764   */\n      dup4\n        /* \"#utility.yul\":3751:3770   */\n      add\n        /* \"#utility.yul\":3742:3748   */\n      dup5\n        /* \"#utility.yul\":3704:3771   */\n      tag_203\n      jump\t// in\n    tag_302:\n        /* \"#utility.yul\":2892:3778   */\n      swap8\n      swap7\n      pop\n      pop\n      pop\n      pop\n      pop\n      pop\n      pop\n      jump\t// out\n        /* \"#utility.yul\":3784:4006   */\n    tag_32:\n        /* \"#utility.yul\":3877:3881   */\n      0x00\n        /* \"#utility.yul\":3915:3917   */\n      0x20\n        /* \"#utility.yul\":3904:3913   */\n      dup3\n        /* \"#utility.yul\":3900:3918   */\n      add\n        /* \"#utility.yul\":3892:3918   */\n      swap1\n      pop\n        /* \"#utility.yul\":3928:3999   */\n      tag_304\n        /* \"#utility.yul\":3996:3997   */\n      0x00\n        /* \"#utility.yul\":3985:3994   */\n      dup4\n        /* \"#utility.yul\":3981:3998   */\n      add\n        /* \"#utility.yul\":3972:3978   */\n      dup5\n        /* \"#utility.yul\":3928:3999   */\n      tag_196\n      jump\t// in\n    tag_304:\n        /* \"#utility.yul\":3784:4006   */\n      swap3\n      swap2\n      pop\n      pop\n      jump\t// out\n        /* \"#utility.yul\":4012:4234   */\n    tag_42:\n        /* \"#utility.yul\":4105:4109   */\n      0x00\n        /* \"#utility.yul\":4143:4145   */\n      0x20\n        /* \"#utility.yul\":4132:4141   */\n      dup3\n        /* \"#utility.yul\":4128:4146   */\n      add\n        /* \"#utility.yul\":4120:4146   */\n      swap1\n      pop\n        /* \"#utility.yul\":4156:4227   */\n      tag_306\n        /* \"#utility.yul\":4224:4225   */\n      0x00\n        /* \"#utility.yul\":4213:4222   */\n      dup4\n        /* \"#utility.yul\":4209:4226   */\n      add\n        /* \"#utility.yul\":4200:4206   */\n      dup5\n        /* \"#utility.yul\":4156:4227   */\n      tag_193\n      jump\t// in\n    tag_306:\n        /* \"#utility.yul\":4012:4234   */\n      swap3\n      swap2\n      pop\n      pop\n      jump\t// out\n        /* \"#utility.yul\":4240:4362   */\n    tag_204:\n        /* \"#utility.yul\":4313:4337   */\n      tag_308\n        /* \"#utility.yul\":4331:4336   */\n      dup2\n        /* \"#utility.yul\":4313:4337   */\n      tag_192\n      jump\t// in\n    tag_308:\n        /* \"#utility.yul\":4306:4311   */\n      dup2\n        /* \"#utility.yul\":4303:4338   */\n      eq\n        /* \"#utility.yul\":4293:4356   */\n      tag_309\n      jumpi\n        /* \"#utility.yul\":4352:4353   */\n      0x00\n        /* \"#utility.yul\":4349:4350   */\n      0x00\n        /* \"#utility.yul\":4342:4354   */\n      revert\n        /* \"#utility.yul\":4293:4356   */\n    tag_309:\n        /* \"#utility.yul\":4240:4362   */\n      pop\n      jump\t// out\n        /* \"#utility.yul\":4368:4507   */\n    tag_205:\n        /* \"#utility.yul\":4414:4419   */\n      0x00\n        /* \"#utility.yul\":4452:4458   */\n      dup2\n        /* \"#utility.yul\":4439:4459   */\n      calldataload\n        /* \"#utility.yul\":4430:4459   */\n      swap1\n      pop\n        /* \"#utility.yul\":4468:4501   */\n      tag_311\n        /* \"#utility.yul\":4495:4500   */\n      dup2\n        /* \"#utility.yul\":4468:4501   */\n      tag_204\n      jump\t// in\n    tag_311:\n        /* \"#utility.yul\":4368:4507   */\n      swap3\n      swap2\n      pop\n      pop\n      jump\t// out\n        /* \"#utility.yul\":4513:4987   */\n    tag_46:\n        /* \"#utility.yul\":4581:4587   */\n      0x00\n        /* \"#utility.yul\":4589:4595   */\n      0x00\n        /* \"#utility.yul\":4638:4640   */\n      0x40\n        /* \"#utility.yul\":4626:4635   */\n      dup4\n        /* \"#utility.yul\":4617:4624   */\n      dup6\n        /* \"#utility.yul\":4613:4636   */\n      sub\n        /* \"#utility.yul\":4609:4641   */\n      slt\n        /* \"#utility.yul\":4606:4725   */\n      iszero\n      tag_313\n      jumpi\n        /* \"#utility.yul\":4644:4723   */\n      tag_314\n      tag_186\n      jump\t// in\n    tag_314:\n        /* \"#utility.yul\":4606:4725   */\n    tag_313:\n        /* \"#utility.yul\":4764:4765   */\n      0x00\n        /* \"#utility.yul\":4789:4842   */\n      tag_315\n        /* \"#utility.yul\":4834:4841   */\n      dup6\n        /* \"#utility.yul\":4825:4831   */\n      dup3\n        /* \"#utility.yul\":4814:4823   */\n      dup7\n        /* \"#utility.yul\":4810:4832   */\n      add\n        /* \"#utility.yul\":4789:4842   */\n      tag_190\n      jump\t// in\n    tag_315:\n        /* \"#utility.yul\":4779:4842   */\n      swap3\n      pop\n        /* \"#utility.yul\":4735:4852   */\n      pop\n        /* \"#utility.yul\":4891:4893   */\n      0x20\n        /* \"#utility.yul\":4917:4970   */\n      tag_316\n        /* \"#utility.yul\":4962:4969   */\n      dup6\n        /* \"#utility.yul\":4953:4959   */\n      dup3\n        /* \"#utility.yul\":4942:4951   */\n      dup7\n        /* \"#utility.yul\":4938:4960   */\n      add\n        /* \"#utility.yul\":4917:4970   */\n      tag_205\n      jump\t// in\n    tag_316:\n        /* \"#utility.yul\":4907:4970   */\n      swap2\n      pop\n        /* \"#utility.yul\":4862:4980   */\n      pop\n        /* \"#utility.yul\":4513:4987   */\n      swap3\n      pop\n      swap3\n      swap1\n      pop\n      jump\t// out\n        /* \"#utility.yul\":4993:5203   */\n    tag_49:\n        /* \"#utility.yul\":5080:5084   */\n      0x00\n        /* \"#utility.yul\":5118:5120   */\n      0x20\n        /* \"#utility.yul\":5107:5116   */\n      dup3\n        /* \"#utility.yul\":5103:5121   */\n      add\n        /* \"#utility.yul\":5095:5121   */\n      swap1\n      pop\n        /* \"#utility.yul\":5131:5196   */\n      tag_318\n        /* \"#utility.yul\":5193:5194   */\n      0x00\n        /* \"#utility.yul\":5182:5191   */\n      dup4\n        /* \"#utility.yul\":5178:5195   */\n      add\n        /* \"#utility.yul\":5169:5175   */\n      dup5\n        /* \"#utility.yul\":5131:5196   */\n      tag_203\n      jump\t// in\n    tag_318:\n        /* \"#utility.yul\":4993:5203   */\n      swap3\n      swap2\n      pop\n      pop\n      jump\t// out\n        /* \"#utility.yul\":5209:5538   */\n    tag_61:\n        /* \"#utility.yul\":5268:5274   */\n      0x00\n        /* \"#utility.yul\":5317:5319   */\n      0x20\n        /* \"#utility.yul\":5305:5314   */\n      dup3\n        /* \"#utility.yul\":5296:5303   */\n      dup5\n        /* \"#utility.yul\":5292:5315   */\n      sub\n        /* \"#utility.yul\":5288:5320   */\n      slt\n        /* \"#utility.yul\":5285:5404   */\n      iszero\n      tag_320\n      jumpi\n        /* \"#utility.yul\":5323:5402   */\n      tag_321\n      tag_186\n      jump\t// in\n    tag_321:\n        /* \"#utility.yul\":5285:5404   */\n    tag_320:\n        /* \"#utility.yul\":5443:5444   */\n      0x00\n        /* \"#utility.yul\":5468:5521   */\n      tag_322\n        /* \"#utility.yul\":5513:5520   */\n      dup5\n        /* \"#utility.yul\":5504:5510   */\n      dup3\n        /* \"#utility.yul\":5493:5502   */\n      dup6\n        /* \"#utility.yul\":5489:5511   */\n      add\n        /* \"#utility.yul\":5468:5521   */\n      tag_205\n      jump\t// in\n    tag_322:\n        /* \"#utility.yul\":5458:5521   */\n      swap2\n      pop\n        /* \"#utility.yul\":5414:5531   */\n      pop\n        /* \"#utility.yul\":5209:5538   */\n      swap3\n      swap2\n      pop\n      pop\n      jump\t// out\n        /* \"#utility.yul\":5544:6398   */\n    tag_69:\n        /* \"#utility.yul\":5791:5795   */\n      0x00\n        /* \"#utility.yul\":5829:5832   */\n      0xc0\n        /* \"#utility.yul\":5818:5827   */\n      dup3\n        /* \"#utility.yul\":5814:5833   */\n      add\n        /* \"#utility.yul\":5806:5833   */\n      swap1\n      pop\n        /* \"#utility.yul\":5843:5914   */\n      tag_324\n        /* \"#utility.yul\":5911:5912   */\n      0x00\n        /* \"#utility.yul\":5900:5909   */\n      dup4\n        /* \"#utility.yul\":5896:5913   */\n      add\n        /* \"#utility.yul\":5887:5893   */\n      dup10\n        /* \"#utility.yul\":5843:5914   */\n      tag_193\n      jump\t// in\n    tag_324:\n        /* \"#utility.yul\":5924:5996   */\n      tag_325\n        /* \"#utility.yul\":5992:5994   */\n      0x20\n        /* \"#utility.yul\":5981:5990   */\n      dup4\n        /* \"#utility.yul\":5977:5995   */\n      add\n        /* \"#utility.yul\":5968:5974   */\n      dup9\n        /* \"#utility.yul\":5924:5996   */\n      tag_193\n      jump\t// in\n    tag_325:\n        /* \"#utility.yul\":6006:6078   */\n      tag_326\n        /* \"#utility.yul\":6074:6076   */\n      0x40\n        /* \"#utility.yul\":6063:6072   */\n      dup4\n        /* \"#utility.yul\":6059:6077   */\n      add\n        /* \"#utility.yul\":6050:6056   */\n      dup8\n        /* \"#utility.yul\":6006:6078   */\n      tag_196\n      jump\t// in\n    tag_326:\n        /* \"#utility.yul\":6125:6134   */\n      dup2\n        /* \"#utility.yul\":6119:6123   */\n      dup2\n        /* \"#utility.yul\":6115:6135   */\n      sub\n        /* \"#utility.yul\":6110:6112   */\n      0x60\n        /* \"#utility.yul\":6099:6108   */\n      dup4\n        /* \"#utility.yul\":6095:6113   */\n      add\n        /* \"#utility.yul\":6088:6136   */\n      mstore\n        /* \"#utility.yul\":6153:6231   */\n      tag_327\n        /* \"#utility.yul\":6226:6230   */\n      dup2\n        /* \"#utility.yul\":6217:6223   */\n      dup7\n        /* \"#utility.yul\":6153:6231   */\n      tag_201\n      jump\t// in\n    tag_327:\n        /* \"#utility.yul\":6145:6231   */\n      swap1\n      pop\n        /* \"#utility.yul\":6241:6314   */\n      tag_328\n        /* \"#utility.yul\":6309:6312   */\n      0x80\n        /* \"#utility.yul\":6298:6307   */\n      dup4\n        /* \"#utility.yul\":6294:6313   */\n      add\n        /* \"#utility.yul\":6285:6291   */\n      dup6\n        /* \"#utility.yul\":6241:6314   */\n      tag_196\n      jump\t// in\n    tag_328:\n        /* \"#utility.yul\":6324:6391   */\n      tag_329\n        /* \"#utility.yul\":6386:6389   */\n      0xa0\n        /* \"#utility.yul\":6375:6384   */\n      dup4\n        /* \"#utility.yul\":6371:6390   */\n      add\n        /* \"#utility.yul\":6362:6368   */\n      dup5\n        /* \"#utility.yul\":6324:6391   */\n      tag_203\n      jump\t// in\n    tag_329:\n        /* \"#utility.yul\":5544:6398   */\n      swap8\n      swap7\n      pop\n      pop\n      pop\n      pop\n      pop\n      pop\n      pop\n      jump\t// out\n        /* \"#utility.yul\":6404:6542   */\n    tag_206:\n        /* \"#utility.yul\":6485:6517   */\n      tag_331\n        /* \"#utility.yul\":6511:6516   */\n      dup2\n        /* \"#utility.yul\":6485:6517   */\n      tag_194\n      jump\t// in\n    tag_331:\n        /* \"#utility.yul\":6478:6483   */\n      dup2\n        /* \"#utility.yul\":6475:6518   */\n      eq\n        /* \"#utility.yul\":6465:6536   */\n      tag_332\n      jumpi\n        /* \"#utility.yul\":6532:6533   */\n      0x00\n        /* \"#utility.yul\":6529:6530   */\n      0x00\n        /* \"#utility.yul\":6522:6534   */\n      revert\n        /* \"#utility.yul\":6465:6536   */\n    tag_332:\n        /* \"#utility.yul\":6404:6542   */\n      pop\n      jump\t// out\n        /* \"#utility.yul\":6548:6703   */\n    tag_207:\n        /* \"#utility.yul\":6602:6607   */\n      0x00\n        /* \"#utility.yul\":6640:6646   */\n      dup2\n        /* \"#utility.yul\":6627:6647   */\n      calldataload\n        /* \"#utility.yul\":6618:6647   */\n      swap1\n      pop\n        /* \"#utility.yul\":6656:6697   */\n      tag_334\n        /* \"#utility.yul\":6691:6696   */\n      dup2\n        /* \"#utility.yul\":6656:6697   */\n      tag_206\n      jump\t// in\n    tag_334:\n        /* \"#utility.yul\":6548:6703   */\n      swap3\n      swap2\n      pop\n      pop\n      jump\t// out\n        /* \"#utility.yul\":6709:6826   */\n    tag_208:\n        /* \"#utility.yul\":6818:6819   */\n      0x00\n        /* \"#utility.yul\":6815:6816   */\n      0x00\n        /* \"#utility.yul\":6808:6820   */\n      revert\n        /* \"#utility.yul\":6832:6949   */\n    tag_209:\n        /* \"#utility.yul\":6941:6942   */\n      0x00\n        /* \"#utility.yul\":6938:6939   */\n      0x00\n        /* \"#utility.yul\":6931:6943   */\n      revert\n        /* \"#utility.yul\":6955:7072   */\n    tag_210:\n        /* \"#utility.yul\":7064:7065   */\n      0x00\n        /* \"#utility.yul\":7061:7062   */\n      0x00\n        /* \"#utility.yul\":7054:7066   */\n      revert\n        /* \"#utility.yul\":7092:7645   */\n    tag_211:\n        /* \"#utility.yul\":7150:7158   */\n      0x00\n        /* \"#utility.yul\":7160:7166   */\n      0x00\n        /* \"#utility.yul\":7210:7213   */\n      dup4\n        /* \"#utility.yul\":7203:7207   */\n      0x1f\n        /* \"#utility.yul\":7195:7201   */\n      dup5\n        /* \"#utility.yul\":7191:7208   */\n      add\n        /* \"#utility.yul\":7187:7214   */\n      slt\n        /* \"#utility.yul\":7177:7299   */\n      tag_339\n      jumpi\n        /* \"#utility.yul\":7218:7297   */\n      tag_340\n      tag_208\n      jump\t// in\n    tag_340:\n        /* \"#utility.yul\":7177:7299   */\n    tag_339:\n        /* \"#utility.yul\":7331:7337   */\n      dup3\n        /* \"#utility.yul\":7318:7338   */\n      calldataload\n        /* \"#utility.yul\":7308:7338   */\n      swap1\n      pop\n        /* \"#utility.yul\":7361:7379   */\n      0xffffffffffffffff\n        /* \"#utility.yul\":7353:7359   */\n      dup2\n        /* \"#utility.yul\":7350:7380   */\n      gt\n        /* \"#utility.yul\":7347:7464   */\n      iszero\n      tag_341\n      jumpi\n        /* \"#utility.yul\":7383:7462   */\n      tag_342\n      tag_209\n      jump\t// in\n    tag_342:\n        /* \"#utility.yul\":7347:7464   */\n    tag_341:\n        /* \"#utility.yul\":7497:7501   */\n      0x20\n        /* \"#utility.yul\":7489:7495   */\n      dup4\n        /* \"#utility.yul\":7485:7502   */\n      add\n        /* \"#utility.yul\":7473:7502   */\n      swap2\n      pop\n        /* \"#utility.yul\":7551:7554   */\n      dup4\n        /* \"#utility.yul\":7543:7547   */\n      0x01\n        /* \"#utility.yul\":7535:7541   */\n      dup3\n        /* \"#utility.yul\":7531:7548   */\n      mul\n        /* \"#utility.yul\":7521:7529   */\n      dup4\n        /* \"#utility.yul\":7517:7549   */\n      add\n        /* \"#utility.yul\":7514:7555   */\n      gt\n        /* \"#utility.yul\":7511:7639   */\n      iszero\n      tag_343\n      jumpi\n        /* \"#utility.yul\":7558:7637   */\n      tag_344\n      tag_210\n      jump\t// in\n    tag_344:\n        /* \"#utility.yul\":7511:7639   */\n    tag_343:\n        /* \"#utility.yul\":7092:7645   */\n      swap3\n      pop\n      swap3\n      swap1\n      pop\n      jump\t// out\n        /* \"#utility.yul\":7651:8486   */\n    tag_73:\n        /* \"#utility.yul\":7748:7754   */\n      0x00\n        /* \"#utility.yul\":7756:7762   */\n      0x00\n        /* \"#utility.yul\":7764:7770   */\n      0x00\n        /* \"#utility.yul\":7772:7778   */\n      0x00\n        /* \"#utility.yul\":7821:7823   */\n      0x60\n        /* \"#utility.yul\":7809:7818   */\n      dup6\n        /* \"#utility.yul\":7800:7807   */\n      dup8\n        /* \"#utility.yul\":7796:7819   */\n      sub\n        /* \"#utility.yul\":7792:7824   */\n      slt\n        /* \"#utility.yul\":7789:7908   */\n      iszero\n      tag_346\n      jumpi\n        /* \"#utility.yul\":7827:7906   */\n      tag_347\n      tag_186\n      jump\t// in\n    tag_347:\n        /* \"#utility.yul\":7789:7908   */\n    tag_346:\n        /* \"#utility.yul\":7947:7948   */\n      0x00\n        /* \"#utility.yul\":7972:8033   */\n      tag_348\n        /* \"#utility.yul\":8025:8032   */\n      dup8\n        /* \"#utility.yul\":8016:8022   */\n      dup3\n        /* \"#utility.yul\":8005:8014   */\n      dup9\n        /* \"#utility.yul\":8001:8023   */\n      add\n        /* \"#utility.yul\":7972:8033   */\n      tag_207\n      jump\t// in\n    tag_348:\n        /* \"#utility.yul\":7962:8033   */\n      swap5\n      pop\n        /* \"#utility.yul\":7918:8043   */\n      pop\n        /* \"#utility.yul\":8082:8084   */\n      0x20\n        /* \"#utility.yul\":8108:8161   */\n      tag_349\n        /* \"#utility.yul\":8153:8160   */\n      dup8\n        /* \"#utility.yul\":8144:8150   */\n      dup3\n        /* \"#utility.yul\":8133:8142   */\n      dup9\n        /* \"#utility.yul\":8129:8151   */\n      add\n        /* \"#utility.yul\":8108:8161   */\n      tag_190\n      jump\t// in\n    tag_349:\n        /* \"#utility.yul\":8098:8161   */\n      swap4\n      pop\n        /* \"#utility.yul\":8053:8171   */\n      pop\n        /* \"#utility.yul\":8238:8240   */\n      0x40\n        /* \"#utility.yul\":8227:8236   */\n      dup6\n        /* \"#utility.yul\":8223:8241   */\n      add\n        /* \"#utility.yul\":8210:8242   */\n      calldataload\n        /* \"#utility.yul\":8269:8287   */\n      0xffffffffffffffff\n        /* \"#utility.yul\":8261:8267   */\n      dup2\n        /* \"#utility.yul\":8258:8288   */\n      gt\n        /* \"#utility.yul\":8255:8372   */\n      iszero\n      tag_350\n      jumpi\n        /* \"#utility.yul\":8291:8370   */\n      tag_351\n      tag_187\n      jump\t// in\n    tag_351:\n        /* \"#utility.yul\":8255:8372   */\n    tag_350:\n        /* \"#utility.yul\":8404:8469   */\n      tag_352\n        /* \"#utility.yul\":8461:8468   */\n      dup8\n        /* \"#utility.yul\":8452:8458   */\n      dup3\n        /* \"#utility.yul\":8441:8450   */\n      dup9\n        /* \"#utility.yul\":8437:8459   */\n      add\n        /* \"#utility.yul\":8404:8469   */\n      tag_211\n      jump\t// in\n    tag_352:\n        /* \"#utility.yul\":8386:8469   */\n      swap3\n      pop\n      swap3\n      pop\n        /* \"#utility.yul\":8181:8479   */\n      pop\n        /* \"#utility.yul\":7651:8486   */\n      swap3\n      swap6\n      swap2\n      swap5\n      pop\n      swap3\n      pop\n      jump\t// out\n        /* \"#utility.yul\":8492:8672   */\n    tag_212:\n        /* \"#utility.yul\":8540:8617   */\n      0x4e487b7100000000000000000000000000000000000000000000000000000000\n        /* \"#utility.yul\":8537:8538   */\n      0x00\n        /* \"#utility.yul\":8530:8618   */\n      mstore\n        /* \"#utility.yul\":8637:8641   */\n      0x22\n        /* \"#utility.yul\":8634:8635   */\n      0x04\n        /* \"#utility.yul\":8627:8642   */\n      mstore\n        /* \"#utility.yul\":8661:8665   */\n      0x24\n        /* \"#utility.yul\":8658:8659   */\n      0x00\n        /* \"#utility.yul\":8651:8666   */\n      revert\n        /* \"#utility.yul\":8678:8998   */\n    tag_85:\n        /* \"#utility.yul\":8722:8728   */\n      0x00\n        /* \"#utility.yul\":8759:8760   */\n      0x02\n        /* \"#utility.yul\":8753:8757   */\n      dup3\n        /* \"#utility.yul\":8749:8761   */\n      div\n        /* \"#utility.yul\":8739:8761   */\n      swap1\n      pop\n        /* \"#utility.yul\":8806:8807   */\n      0x01\n        /* \"#utility.yul\":8800:8804   */\n      dup3\n        /* \"#utility.yul\":8796:8808   */\n      and\n        /* \"#utility.yul\":8827:8845   */\n      dup1\n        /* \"#utility.yul\":8817:8898   */\n      tag_355\n      jumpi\n        /* \"#utility.yul\":8883:8887   */\n      0x7f\n        /* \"#utility.yul\":8875:8881   */\n      dup3\n        /* \"#utility.yul\":8871:8888   */\n      and\n        /* \"#utility.yul\":8861:8888   */\n      swap2\n      pop\n        /* \"#utility.yul\":8817:8898   */\n    tag_355:\n        /* \"#utility.yul\":8945:8947   */\n      0x20\n        /* \"#utility.yul\":8937:8943   */\n      dup3\n        /* \"#utility.yul\":8934:8948   */\n      lt\n        /* \"#utility.yul\":8914:8932   */\n      dup2\n        /* \"#utility.yul\":8911:8949   */\n      sub\n        /* \"#utility.yul\":8908:8992   */\n      tag_356\n      jumpi\n        /* \"#utility.yul\":8964:8982   */\n      tag_357\n      tag_212\n      jump\t// in\n    tag_357:\n        /* \"#utility.yul\":8908:8992   */\n    tag_356:\n        /* \"#utility.yul\":8729:8998   */\n      pop\n        /* \"#utility.yul\":8678:8998   */\n      swap2\n      swap1\n      pop\n      jump\t// out\n        /* \"#utility.yul\":9004:9164   */\n    tag_213:\n        /* \"#utility.yul\":9144:9156   */\n      0x5265656e7472616e637900000000000000000000000000000000000000000000\n        /* \"#utility.yul\":9140:9141   */\n      0x00\n        /* \"#utility.yul\":9132:9138   */\n      dup3\n        /* \"#utility.yul\":9128:9142   */\n      add\n        /* \"#utility.yul\":9121:9157   */\n      mstore\n        /* \"#utility.yul\":9004:9164   */\n      pop\n      jump\t// out\n        /* \"#utility.yul\":9170:9536   */\n    tag_214:\n        /* \"#utility.yul\":9312:9315   */\n      0x00\n        /* \"#utility.yul\":9333:9400   */\n      tag_360\n        /* \"#utility.yul\":9397:9399   */\n      0x0a\n        /* \"#utility.yul\":9392:9395   */\n      dup4\n        /* \"#utility.yul\":9333:9400   */\n      tag_198\n      jump\t// in\n    tag_360:\n        /* \"#utility.yul\":9326:9400   */\n      swap2\n      pop\n        /* \"#utility.yul\":9409:9502   */\n      tag_361\n        /* \"#utility.yul\":9498:9501   */\n      dup3\n        /* \"#utility.yul\":9409:9502   */\n      tag_213\n      jump\t// in\n    tag_361:\n        /* \"#utility.yul\":9527:9529   */\n      0x20\n        /* \"#utility.yul\":9522:9525   */\n      dup3\n        /* \"#utility.yul\":9518:9530   */\n      add\n        /* \"#utility.yul\":9511:9530   */\n      swap1\n      pop\n        /* \"#utility.yul\":9170:9536   */\n      swap2\n      swap1\n      pop\n      jump\t// out\n        /* \"#utility.yul\":9542:9961   */\n    tag_93:\n        /* \"#utility.yul\":9708:9712   */\n      0x00\n        /* \"#utility.yul\":9746:9748   */\n      0x20\n        /* \"#utility.yul\":9735:9744   */\n      dup3\n        /* \"#utility.yul\":9731:9749   */\n      add\n        /* \"#utility.yul\":9723:9749   */\n      swap1\n      pop\n        /* \"#utility.yul\":9795:9804   */\n      dup2\n        /* \"#utility.yul\":9789:9793   */\n      dup2\n        /* \"#utility.yul\":9785:9805   */\n      sub\n        /* \"#utility.yul\":9781:9782   */\n      0x00\n        /* \"#utility.yul\":9770:9779   */\n      dup4\n        /* \"#utility.yul\":9766:9783   */\n      add\n        /* \"#utility.yul\":9759:9806   */\n      mstore\n        /* \"#utility.yul\":9823:9954   */\n      tag_363\n        /* \"#utility.yul\":9949:9953   */\n      dup2\n        /* \"#utility.yul\":9823:9954   */\n      tag_214\n      jump\t// in\n    tag_363:\n        /* \"#utility.yul\":9815:9954   */\n      swap1\n      pop\n        /* \"#utility.yul\":9542:9961   */\n      swap2\n      swap1\n      pop\n      jump\t// out\n        /* \"#utility.yul\":9967:10129   */\n    tag_215:\n        /* \"#utility.yul\":10107:10121   */\n      0x4e6f742061206d656d6265720000000000000000000000000000000000000000\n        /* \"#utility.yul\":10103:10104   */\n      0x00\n        /* \"#utility.yul\":10095:10101   */\n      dup3\n        /* \"#utility.yul\":10091:10105   */\n      add\n        /* \"#utility.yul\":10084:10122   */\n      mstore\n        /* \"#utility.yul\":9967:10129   */\n      pop\n      jump\t// out\n        /* \"#utility.yul\":10135:10501   */\n    tag_216:\n        /* \"#utility.yul\":10277:10280   */\n      0x00\n        /* \"#utility.yul\":10298:10365   */\n      tag_366\n        /* \"#utility.yul\":10362:10364   */\n      0x0c\n        /* \"#utility.yul\":10357:10360   */\n      dup4\n        /* \"#utility.yul\":10298:10365   */\n      tag_198\n      jump\t// in\n    tag_366:\n        /* \"#utility.yul\":10291:10365   */\n      swap2\n      pop\n        /* \"#utility.yul\":10374:10467   */\n      tag_367\n        /* \"#utility.yul\":10463:10466   */\n      dup3\n        /* \"#utility.yul\":10374:10467   */\n      tag_215\n      jump\t// in\n    tag_367:\n        /* \"#utility.yul\":10492:10494   */\n      0x20\n        /* \"#utility.yul\":10487:10490   */\n      dup3\n        /* \"#utility.yul\":10483:10495   */\n      add\n        /* \"#utility.yul\":10476:10495   */\n      swap1\n      pop\n        /* \"#utility.yul\":10135:10501   */\n      swap2\n      swap1\n      pop\n      jump\t// out\n        /* \"#utility.yul\":10507:10926   */\n    tag_97:\n        /* \"#utility.yul\":10673:10677   */\n      0x00\n        /* \"#utility.yul\":10711:10713   */\n      0x20\n        /* \"#utility.yul\":10700:10709   */\n      dup3\n        /* \"#utility.yul\":10696:10714   */\n      add\n        /* \"#utility.yul\":10688:10714   */\n      swap1\n      pop\n        /* \"#utility.yul\":10760:10769   */\n      dup2\n        /* \"#utility.yul\":10754:10758   */\n      dup2\n        /* \"#utility.yul\":10750:10770   */\n      sub\n        /* \"#utility.yul\":10746:10747   */\n      0x00\n        /* \"#utility.yul\":10735:10744   */\n      dup4\n        /* \"#utility.yul\":10731:10748   */\n      add\n        /* \"#utility.yul\":10724:10771   */\n      mstore\n        /* \"#utility.yul\":10788:10919   */\n      tag_369\n        /* \"#utility.yul\":10914:10918   */\n      dup2\n        /* \"#utility.yul\":10788:10919   */\n      tag_216\n      jump\t// in\n    tag_369:\n        /* \"#utility.yul\":10780:10919   */\n      swap1\n      pop\n        /* \"#utility.yul\":10507:10926   */\n      swap2\n      swap1\n      pop\n      jump\t// out\n        /* \"#utility.yul\":10932:11088   */\n    tag_217:\n        /* \"#utility.yul\":11072:11080   */\n      0x4261642069640000000000000000000000000000000000000000000000000000\n        /* \"#utility.yul\":11068:11069   */\n      0x00\n        /* \"#utility.yul\":11060:11066   */\n      dup3\n        /* \"#utility.yul\":11056:11070   */\n      add\n        /* \"#utility.yul\":11049:11081   */\n      mstore\n        /* \"#utility.yul\":10932:11088   */\n      pop\n      jump\t// out\n        /* \"#utility.yul\":11094:11459   */\n    tag_218:\n        /* \"#utility.yul\":11236:11239   */\n      0x00\n        /* \"#utility.yul\":11257:11323   */\n      tag_372\n        /* \"#utility.yul\":11321:11322   */\n      0x06\n        /* \"#utility.yul\":11316:11319   */\n      dup4\n        /* \"#utility.yul\":11257:11323   */\n      tag_198\n      jump\t// in\n    tag_372:\n        /* \"#utility.yul\":11250:11323   */\n      swap2\n      pop\n        /* \"#utility.yul\":11332:11425   */\n      tag_373\n        /* \"#utility.yul\":11421:11424   */\n      dup3\n        /* \"#utility.yul\":11332:11425   */\n      tag_217\n      jump\t// in\n    tag_373:\n        /* \"#utility.yul\":11450:11452   */\n      0x20\n        /* \"#utility.yul\":11445:11448   */\n      dup3\n        /* \"#utility.yul\":11441:11453   */\n      add\n        /* \"#utility.yul\":11434:11453   */\n      swap1\n      pop\n        /* \"#utility.yul\":11094:11459   */\n      swap2\n      swap1\n      pop\n      jump\t// out\n        /* \"#utility.yul\":11465:11884   */\n    tag_101:\n        /* \"#utility.yul\":11631:11635   */\n      0x00\n        /* \"#utility.yul\":11669:11671   */\n      0x20\n        /* \"#utility.yul\":11658:11667   */\n      dup3\n        /* \"#utility.yul\":11654:11672   */\n      add\n        /* \"#utility.yul\":11646:11672   */\n      swap1\n      pop\n        /* \"#utility.yul\":11718:11727   */\n      dup2\n        /* \"#utility.yul\":11712:11716   */\n      dup2\n        /* \"#utility.yul\":11708:11728   */\n      sub\n        /* \"#utility.yul\":11704:11705   */\n      0x00\n        /* \"#utility.yul\":11693:11702   */\n      dup4\n        /* \"#utility.yul\":11689:11706   */\n      add\n        /* \"#utility.yul\":11682:11729   */\n      mstore\n        /* \"#utility.yul\":11746:11877   */\n      tag_375\n        /* \"#utility.yul\":11872:11876   */\n      dup2\n        /* \"#utility.yul\":11746:11877   */\n      tag_218\n      jump\t// in\n    tag_375:\n        /* \"#utility.yul\":11738:11877   */\n      swap1\n      pop\n        /* \"#utility.yul\":11465:11884   */\n      swap2\n      swap1\n      pop\n      jump\t// out\n        /* \"#utility.yul\":11890:12070   */\n    tag_104:\n        /* \"#utility.yul\":11938:12015   */\n      0x4e487b7100000000000000000000000000000000000000000000000000000000\n        /* \"#utility.yul\":11935:11936   */\n      0x00\n        /* \"#utility.yul\":11928:12016   */\n      mstore\n        /* \"#utility.yul\":12035:12039   */\n      0x32\n        /* \"#utility.yul\":12032:12033   */\n      0x04\n        /* \"#utility.yul\":12025:12040   */\n      mstore\n        /* \"#utility.yul\":12059:12063   */\n      0x24\n        /* \"#utility.yul\":12056:12057   */\n      0x00\n        /* \"#utility.yul\":12049:12064   */\n      revert\n        /* \"#utility.yul\":12076:12242   */\n    tag_219:\n        /* \"#utility.yul\":12216:12234   */\n      0x416c726561647920657865637574656400000000000000000000000000000000\n        /* \"#utility.yul\":12212:12213   */\n      0x00\n        /* \"#utility.yul\":12204:12210   */\n      dup3\n        /* \"#utility.yul\":12200:12214   */\n      add\n        /* \"#utility.yul\":12193:12235   */\n      mstore\n        /* \"#utility.yul\":12076:12242   */\n      pop\n      jump\t// out\n        /* \"#utility.yul\":12248:12614   */\n    tag_220:\n        /* \"#utility.yul\":12390:12393   */\n      0x00\n        /* \"#utility.yul\":12411:12478   */\n      tag_379\n        /* \"#utility.yul\":12475:12477   */\n      0x10\n        /* \"#utility.yul\":12470:12473   */\n      dup4\n        /* \"#utility.yul\":12411:12478   */\n      tag_198\n      jump\t// in\n    tag_379:\n        /* \"#utility.yul\":12404:12478   */\n      swap2\n      pop\n        /* \"#utility.yul\":12487:12580   */\n      tag_380\n        /* \"#utility.yul\":12576:12579   */\n      dup3\n        /* \"#utility.yul\":12487:12580   */\n      tag_219\n      jump\t// in\n    tag_380:\n        /* \"#utility.yul\":12605:12607   */\n      0x20\n        /* \"#utility.yul\":12600:12603   */\n      dup3\n        /* \"#utility.yul\":12596:12608   */\n      add\n        /* \"#utility.yul\":12589:12608   */\n      swap1\n      pop\n        /* \"#utility.yul\":12248:12614   */\n      swap2\n      swap1\n      pop\n      jump\t// out\n        /* \"#utility.yul\":12620:13039   */\n    tag_108:\n        /* \"#utility.yul\":12786:12790   */\n      0x00\n        /* \"#utility.yul\":12824:12826   */\n      0x20\n        /* \"#utility.yul\":12813:12822   */\n      dup3\n        /* \"#utility.yul\":12809:12827   */\n      add\n        /* \"#utility.yul\":12801:12827   */\n      swap1\n      pop\n        /* \"#utility.yul\":12873:12882   */\n      dup2\n        /* \"#utility.yul\":12867:12871   */\n      dup2\n        /* \"#utility.yul\":12863:12883   */\n      sub\n        /* \"#utility.yul\":12859:12860   */\n      0x00\n        /* \"#utility.yul\":12848:12857   */\n      dup4\n        /* \"#utility.yul\":12844:12861   */\n      add\n        /* \"#utility.yul\":12837:12884   */\n      mstore\n        /* \"#utility.yul\":12901:13032   */\n      tag_382\n        /* \"#utility.yul\":13027:13031   */\n      dup2\n        /* \"#utility.yul\":12901:13032   */\n      tag_220\n      jump\t// in\n    tag_382:\n        /* \"#utility.yul\":12893:13032   */\n      swap1\n      pop\n        /* \"#utility.yul\":12620:13039   */\n      swap2\n      swap1\n      pop\n      jump\t// out\n        /* \"#utility.yul\":13045:13215   */\n    tag_221:\n        /* \"#utility.yul\":13185:13207   */\n      0x4e6f7420656e6f75676820617070726f76616c73000000000000000000000000\n        /* \"#utility.yul\":13181:13182   */\n      0x00\n        /* \"#utility.yul\":13173:13179   */\n      dup3\n        /* \"#utility.yul\":13169:13183   */\n      add\n        /* \"#utility.yul\":13162:13208   */\n      mstore\n        /* \"#utility.yul\":13045:13215   */\n      pop\n      jump\t// out\n        /* \"#utility.yul\":13221:13587   */\n    tag_222:\n        /* \"#utility.yul\":13363:13366   */\n      0x00\n        /* \"#utility.yul\":13384:13451   */\n      tag_385\n        /* \"#utility.yul\":13448:13450   */\n      0x14\n        /* \"#utility.yul\":13443:13446   */\n      dup4\n        /* \"#utility.yul\":13384:13451   */\n      tag_198\n      jump\t// in\n    tag_385:\n        /* \"#utility.yul\":13377:13451   */\n      swap2\n      pop\n        /* \"#utility.yul\":13460:13553   */\n      tag_386\n        /* \"#utility.yul\":13549:13552   */\n      dup3\n        /* \"#utility.yul\":13460:13553   */\n      tag_221\n      jump\t// in\n    tag_386:\n        /* \"#utility.yul\":13578:13580   */\n      0x20\n        /* \"#utility.yul\":13573:13576   */\n      dup3\n        /* \"#utility.yul\":13569:13581   */\n      add\n        /* \"#utility.yul\":13562:13581   */\n      swap1\n      pop\n        /* \"#utility.yul\":13221:13587   */\n      swap2\n      swap1\n      pop\n      jump\t// out\n        /* \"#utility.yul\":13593:14012   */\n    tag_111:\n        /* \"#utility.yul\":13759:13763   */\n      0x00\n        /* \"#utility.yul\":13797:13799   */\n      0x20\n        /* \"#utility.yul\":13786:13795   */\n      dup3\n        /* \"#utility.yul\":13782:13800   */\n      add\n        /* \"#utility.yul\":13774:13800   */\n      swap1\n      pop\n        /* \"#utility.yul\":13846:13855   */\n      dup2\n        /* \"#utility.yul\":13840:13844   */\n      dup2\n        /* \"#utility.yul\":13836:13856   */\n      sub\n        /* \"#utility.yul\":13832:13833   */\n      0x00\n        /* \"#utility.yul\":13821:13830   */\n      dup4\n        /* \"#utility.yul\":13817:13834   */\n      add\n        /* \"#utility.yul\":13810:13857   */\n      mstore\n        /* \"#utility.yul\":13874:14005   */\n      tag_388\n        /* \"#utility.yul\":14000:14004   */\n      dup2\n        /* \"#utility.yul\":13874:14005   */\n      tag_222\n      jump\t// in\n    tag_388:\n        /* \"#utility.yul\":13866:14005   */\n      swap1\n      pop\n        /* \"#utility.yul\":13593:14012   */\n      swap2\n      swap1\n      pop\n      jump\t// out\n        /* \"#utility.yul\":14018:14180   */\n    tag_223:\n        /* \"#utility.yul\":14158:14172   */\n      0x506f6f6c206368616e6765640000000000000000000000000000000000000000\n        /* \"#utility.yul\":14154:14155   */\n      0x00\n        /* \"#utility.yul\":14146:14152   */\n      dup3\n        /* \"#utility.yul\":14142:14156   */\n      add\n        /* \"#utility.yul\":14135:14173   */\n      mstore\n        /* \"#utility.yul\":14018:14180   */\n      pop\n      jump\t// out\n        /* \"#utility.yul\":14186:14552   */\n    tag_224:\n        /* \"#utility.yul\":14328:14331   */\n      0x00\n        /* \"#utility.yul\":14349:14416   */\n      tag_391\n        /* \"#utility.yul\":14413:14415   */\n      0x0c\n        /* \"#utility.yul\":14408:14411   */\n      dup4\n        /* \"#utility.yul\":14349:14416   */\n      tag_198\n      jump\t// in\n    tag_391:\n        /* \"#utility.yul\":14342:14416   */\n      swap2\n      pop\n        /* \"#utility.yul\":14425:14518   */\n      tag_392\n        /* \"#utility.yul\":14514:14517   */\n      dup3\n        /* \"#utility.yul\":14425:14518   */\n      tag_223\n      jump\t// in\n    tag_392:\n        /* \"#utility.yul\":14543:14545   */\n      0x20\n        /* \"#utility.yul\":14538:14541   */\n      dup3\n        /* \"#utility.yul\":14534:14546   */\n      add\n        /* \"#utility.yul\":14527:14546   */\n      swap1\n      pop\n        /* \"#utility.yul\":14186:14552   */\n      swap2\n      swap1\n      pop\n      jump\t// out\n        /* \"#utility.yul\":14558:14977   */\n    tag_114:\n        /* \"#utility.yul\":14724:14728   */\n      0x00\n        /* \"#utility.yul\":14762:14764   */\n      0x20\n        /* \"#utility.yul\":14751:14760   */\n      dup3\n        /* \"#utility.yul\":14747:14765   */\n      add\n        /* \"#utility.yul\":14739:14765   */\n      swap1\n      pop\n        /* \"#utility.yul\":14811:14820   */\n      dup2\n        /* \"#utility.yul\":14805:14809   */\n      dup2\n        /* \"#utility.yul\":14801:14821   */\n      sub\n        /* \"#utility.yul\":14797:14798   */\n      0x00\n        /* \"#utility.yul\":14786:14795   */\n      dup4\n        /* \"#utility.yul\":14782:14799   */\n      add\n        /* \"#utility.yul\":14775:14822   */\n      mstore\n        /* \"#utility.yul\":14839:14970   */\n      tag_394\n        /* \"#utility.yul\":14965:14969   */\n      dup2\n        /* \"#utility.yul\":14839:14970   */\n      tag_224\n      jump\t// in\n    tag_394:\n        /* \"#utility.yul\":14831:14970   */\n      swap1\n      pop\n        /* \"#utility.yul\":14558:14977   */\n      swap2\n      swap1\n      pop\n      jump\t// out\n        /* \"#utility.yul\":14983:15163   */\n    tag_225:\n        /* \"#utility.yul\":15031:15108   */\n      0x4e487b7100000000000000000000000000000000000000000000000000000000\n        /* \"#utility.yul\":15028:15029   */\n      0x00\n        /* \"#utility.yul\":15021:15109   */\n      mstore\n        /* \"#utility.yul\":15128:15132   */\n      0x11\n        /* \"#utility.yul\":15125:15126   */\n      0x04\n        /* \"#utility.yul\":15118:15133   */\n      mstore\n        /* \"#utility.yul\":15152:15156   */\n      0x24\n        /* \"#utility.yul\":15149:15150   */\n      0x00\n        /* \"#utility.yul\":15142:15157   */\n      revert\n        /* \"#utility.yul\":15169:15363   */\n    tag_116:\n        /* \"#utility.yul\":15209:15213   */\n      0x00\n        /* \"#utility.yul\":15229:15249   */\n      tag_397\n        /* \"#utility.yul\":15247:15248   */\n      dup3\n        /* \"#utility.yul\":15229:15249   */\n      tag_188\n      jump\t// in\n    tag_397:\n        /* \"#utility.yul\":15224:15249   */\n      swap2\n      pop\n        /* \"#utility.yul\":15263:15283   */\n      tag_398\n        /* \"#utility.yul\":15281:15282   */\n      dup4\n        /* \"#utility.yul\":15263:15283   */\n      tag_188\n      jump\t// in\n    tag_398:\n        /* \"#utility.yul\":15258:15283   */\n      swap3\n      pop\n        /* \"#utility.yul\":15307:15308   */\n      dup3\n        /* \"#utility.yul\":15304:15305   */\n      dup3\n        /* \"#utility.yul\":15300:15309   */\n      sub\n        /* \"#utility.yul\":15292:15309   */\n      swap1\n      pop\n        /* \"#utility.yul\":15331:15332   */\n      dup2\n        /* \"#utility.yul\":15325:15329   */\n      dup2\n        /* \"#utility.yul\":15322:15333   */\n      gt\n        /* \"#utility.yul\":15319:15356   */\n      iszero\n      tag_399\n      jumpi\n        /* \"#utility.yul\":15336:15354   */\n      tag_400\n      tag_225\n      jump\t// in\n    tag_400:\n        /* \"#utility.yul\":15319:15356   */\n    tag_399:\n        /* \"#utility.yul\":15169:15363   */\n      swap3\n      swap2\n      pop\n      pop\n      jump\t// out\n        /* \"#utility.yul\":15369:15516   */\n    tag_226:\n        /* \"#utility.yul\":15470:15481   */\n      0x00\n        /* \"#utility.yul\":15507:15510   */\n      dup2\n        /* \"#utility.yul\":15492:15510   */\n      swap1\n      pop\n        /* \"#utility.yul\":15369:15516   */\n      swap3\n      swap2\n      pop\n      pop\n      jump\t// out\n        /* \"#utility.yul\":15522:15636   */\n    tag_227:\n      pop\n      jump\t// out\n        /* \"#utility.yul\":15642:16040   */\n    tag_228:\n        /* \"#utility.yul\":15801:15804   */\n      0x00\n        /* \"#utility.yul\":15822:15905   */\n      tag_404\n        /* \"#utility.yul\":15903:15904   */\n      0x00\n        /* \"#utility.yul\":15898:15901   */\n      dup4\n        /* \"#utility.yul\":15822:15905   */\n      tag_226\n      jump\t// in\n    tag_404:\n        /* \"#utility.yul\":15815:15905   */\n      swap2\n      pop\n        /* \"#utility.yul\":15914:16007   */\n      tag_405\n        /* \"#utility.yul\":16003:16006   */\n      dup3\n        /* \"#utility.yul\":15914:16007   */\n      tag_227\n      jump\t// in\n    tag_405:\n        /* \"#utility.yul\":16032:16033   */\n      0x00\n        /* \"#utility.yul\":16027:16030   */\n      dup3\n        /* \"#utility.yul\":16023:16034   */\n      add\n        /* \"#utility.yul\":16016:16034   */\n      swap1\n      pop\n        /* \"#utility.yul\":15642:16040   */\n      swap2\n      swap1\n      pop\n      jump\t// out\n        /* \"#utility.yul\":16046:16425   */\n    tag_118:\n        /* \"#utility.yul\":16230:16233   */\n      0x00\n        /* \"#utility.yul\":16252:16399   */\n      tag_407\n        /* \"#utility.yul\":16395:16398   */\n      dup3\n        /* \"#utility.yul\":16252:16399   */\n      tag_228\n      jump\t// in\n    tag_407:\n        /* \"#utility.yul\":16245:16399   */\n      swap2\n      pop\n        /* \"#utility.yul\":16416:16419   */\n      dup2\n        /* \"#utility.yul\":16409:16419   */\n      swap1\n      pop\n        /* \"#utility.yul\":16046:16425   */\n      swap2\n      swap1\n      pop\n      jump\t// out\n        /* \"#utility.yul\":16431:16595   */\n    tag_229:\n        /* \"#utility.yul\":16571:16587   */\n      0x5061796d656e74206661696c6564000000000000000000000000000000000000\n        /* \"#utility.yul\":16567:16568   */\n      0x00\n        /* \"#utility.yul\":16559:16565   */\n      dup3\n        /* \"#utility.yul\":16555:16569   */\n      add\n        /* \"#utility.yul\":16548:16588   */\n      mstore\n        /* \"#utility.yul\":16431:16595   */\n      pop\n      jump\t// out\n        /* \"#utility.yul\":16601:16967   */\n    tag_230:\n        /* \"#utility.yul\":16743:16746   */\n      0x00\n        /* \"#utility.yul\":16764:16831   */\n      tag_410\n        /* \"#utility.yul\":16828:16830   */\n      0x0e\n        /* \"#utility.yul\":16823:16826   */\n      dup4\n        /* \"#utility.yul\":16764:16831   */\n      tag_198\n      jump\t// in\n    tag_410:\n        /* \"#utility.yul\":16757:16831   */\n      swap2\n      pop\n        /* \"#utility.yul\":16840:16933   */\n      tag_411\n        /* \"#utility.yul\":16929:16932   */\n      dup3\n        /* \"#utility.yul\":16840:16933   */\n      tag_229\n      jump\t// in\n    tag_411:\n        /* \"#utility.yul\":16958:16960   */\n      0x20\n        /* \"#utility.yul\":16953:16956   */\n      dup3\n        /* \"#utility.yul\":16949:16961   */\n      add\n        /* \"#utility.yul\":16942:16961   */\n      swap1\n      pop\n        /* \"#utility.yul\":16601:16967   */\n      swap2\n      swap1\n      pop\n      jump\t// out\n        /* \"#utility.yul\":16973:17392   */\n    tag_124:\n        /* \"#utility.yul\":17139:17143   */\n      0x00\n        /* \"#utility.yul\":17177:17179   */\n      0x20\n        /* \"#utility.yul\":17166:17175   */\n      dup3\n        /* \"#utility.yul\":17162:17180   */\n      add\n        /* \"#utility.yul\":17154:17180   */\n      swap1\n      pop\n        /* \"#utility.yul\":17226:17235   */\n      dup2\n        /* \"#utility.yul\":17220:17224   */\n      dup2\n        /* \"#utility.yul\":17216:17236   */\n      sub\n        /* \"#utility.yul\":17212:17213   */\n      0x00\n        /* \"#utility.yul\":17201:17210   */\n      dup4\n        /* \"#utility.yul\":17197:17214   */\n      add\n        /* \"#utility.yul\":17190:17237   */\n      mstore\n        /* \"#utility.yul\":17254:17385   */\n      tag_413\n        /* \"#utility.yul\":17380:17384   */\n      dup2\n        /* \"#utility.yul\":17254:17385   */\n      tag_230\n      jump\t// in\n    tag_413:\n        /* \"#utility.yul\":17246:17385   */\n      swap1\n      pop\n        /* \"#utility.yul\":16973:17392   */\n      swap2\n      swap1\n      pop\n      jump\t// out\n        /* \"#utility.yul\":17398:17564   */\n    tag_231:\n        /* \"#utility.yul\":17538:17556   */\n      0x416c726561647920617070726f76656400000000000000000000000000000000\n        /* \"#utility.yul\":17534:17535   */\n      0x00\n        /* \"#utility.yul\":17526:17532   */\n      dup3\n        /* \"#utility.yul\":17522:17536   */\n      add\n        /* \"#utility.yul\":17515:17557   */\n      mstore\n        /* \"#utility.yul\":17398:17564   */\n      pop\n      jump\t// out\n        /* \"#utility.yul\":17570:17936   */\n    tag_232:\n        /* \"#utility.yul\":17712:17715   */\n      0x00\n        /* \"#utility.yul\":17733:17800   */\n      tag_416\n        /* \"#utility.yul\":17797:17799   */\n      0x10\n        /* \"#utility.yul\":17792:17795   */\n      dup4\n        /* \"#utility.yul\":17733:17800   */\n      tag_198\n      jump\t// in\n    tag_416:\n        /* \"#utility.yul\":17726:17800   */\n      swap2\n      pop\n        /* \"#utility.yul\":17809:17902   */\n      tag_417\n        /* \"#utility.yul\":17898:17901   */\n      dup3\n        /* \"#utility.yul\":17809:17902   */\n      tag_231\n      jump\t// in\n    tag_417:\n        /* \"#utility.yul\":17927:17929   */\n      0x20\n        /* \"#utility.yul\":17922:17925   */\n      dup3\n        /* \"#utility.yul\":17918:17930   */\n      add\n        /* \"#utility.yul\":17911:17930   */\n      swap1\n      pop\n        /* \"#utility.yul\":17570:17936   */\n      swap2\n      swap1\n      pop\n      jump\t// out\n        /* \"#utility.yul\":17942:18361   */\n    tag_142:\n        /* \"#utility.yul\":18108:18112   */\n      0x00\n        /* \"#utility.yul\":18146:18148   */\n      0x20\n        /* \"#utility.yul\":18135:18144   */\n      dup3\n        /* \"#utility.yul\":18131:18149   */\n      add\n        /* \"#utility.yul\":18123:18149   */\n      swap1\n      pop\n        /* \"#utility.yul\":18195:18204   */\n      dup2\n        /* \"#utility.yul\":18189:18193   */\n      dup2\n        /* \"#utility.yul\":18185:18205   */\n      sub\n        /* \"#utility.yul\":18181:18182   */\n      0x00\n        /* \"#utility.yul\":18170:18179   */\n      dup4\n        /* \"#utility.yul\":18166:18183   */\n      add\n        /* \"#utility.yul\":18159:18206   */\n      mstore\n        /* \"#utility.yul\":18223:18354   */\n      tag_419\n        /* \"#utility.yul\":18349:18353   */\n      dup2\n        /* \"#utility.yul\":18223:18354   */\n      tag_232\n      jump\t// in\n    tag_419:\n        /* \"#utility.yul\":18215:18354   */\n      swap1\n      pop\n        /* \"#utility.yul\":17942:18361   */\n      swap2\n      swap1\n      pop\n      jump\t// out\n        /* \"#utility.yul\":18367:18558   */\n    tag_144:\n        /* \"#utility.yul\":18407:18410   */\n      0x00\n        /* \"#utility.yul\":18426:18446   */\n      tag_421\n        /* \"#utility.yul\":18444:18445   */\n      dup3\n        /* \"#utility.yul\":18426:18446   */\n      tag_188\n      jump\t// in\n    tag_421:\n        /* \"#utility.yul\":18421:18446   */\n      swap2\n      pop\n        /* \"#utility.yul\":18460:18480   */\n      tag_422\n        /* \"#utility.yul\":18478:18479   */\n      dup4\n        /* \"#utility.yul\":18460:18480   */\n      tag_188\n      jump\t// in\n    tag_422:\n        /* \"#utility.yul\":18455:18480   */\n      swap3\n      pop\n        /* \"#utility.yul\":18503:18504   */\n      dup3\n        /* \"#utility.yul\":18500:18501   */\n      dup3\n        /* \"#utility.yul\":18496:18505   */\n      add\n        /* \"#utility.yul\":18489:18505   */\n      swap1\n      pop\n        /* \"#utility.yul\":18524:18527   */\n      dup1\n        /* \"#utility.yul\":18521:18522   */\n      dup3\n        /* \"#utility.yul\":18518:18528   */\n      gt\n        /* \"#utility.yul\":18515:18551   */\n      iszero\n      tag_423\n      jumpi\n        /* \"#utility.yul\":18531:18549   */\n      tag_424\n      tag_225\n      jump\t// in\n    tag_424:\n        /* \"#utility.yul\":18515:18551   */\n    tag_423:\n        /* \"#utility.yul\":18367:18558   */\n      swap3\n      swap2\n      pop\n      pop\n      jump\t// out\n        /* \"#utility.yul\":18564:18718   */\n    tag_233:\n        /* \"#utility.yul\":18704:18710   */\n      0x546f3d3000000000000000000000000000000000000000000000000000000000\n        /* \"#utility.yul\":18700:18701   */\n      0x00\n        /* \"#utility.yul\":18692:18698   */\n      dup3\n        /* \"#utility.yul\":18688:18702   */\n      add\n        /* \"#utility.yul\":18681:18711   */\n      mstore\n        /* \"#utility.yul\":18564:18718   */\n      pop\n      jump\t// out\n        /* \"#utility.yul\":18724:19089   */\n    tag_234:\n        /* \"#utility.yul\":18866:18869   */\n      0x00\n        /* \"#utility.yul\":18887:18953   */\n      tag_427\n        /* \"#utility.yul\":18951:18952   */\n      0x04\n        /* \"#utility.yul\":18946:18949   */\n      dup4\n        /* \"#utility.yul\":18887:18953   */\n      tag_198\n      jump\t// in\n    tag_427:\n        /* \"#utility.yul\":18880:18953   */\n      swap2\n      pop\n        /* \"#utility.yul\":18962:19055   */\n      tag_428\n        /* \"#utility.yul\":19051:19054   */\n      dup3\n        /* \"#utility.yul\":18962:19055   */\n      tag_233\n      jump\t// in\n    tag_428:\n        /* \"#utility.yul\":19080:19082   */\n      0x20\n        /* \"#utility.yul\":19075:19078   */\n      dup3\n        /* \"#utility.yul\":19071:19083   */\n      add\n        /* \"#utility.yul\":19064:19083   */\n      swap1\n      pop\n        /* \"#utility.yul\":18724:19089   */\n      swap2\n      swap1\n      pop\n      jump\t// out\n        /* \"#utility.yul\":19095:19514   */\n    tag_161:\n        /* \"#utility.yul\":19261:19265   */\n      0x00\n        /* \"#utility.yul\":19299:19301   */\n      0x20\n        /* \"#utility.yul\":19288:19297   */\n      dup3\n        /* \"#utility.yul\":19284:19302   */\n      add\n        /* \"#utility.yul\":19276:19302   */\n      swap1\n      pop\n        /* \"#utility.yul\":19348:19357   */\n      dup2\n        /* \"#utility.yul\":19342:19346   */\n      dup2\n        /* \"#utility.yul\":19338:19358   */\n      sub\n        /* \"#utility.yul\":19334:19335   */\n      0x00\n        /* \"#utility.yul\":19323:19332   */\n      dup4\n        /* \"#utility.yul\":19319:19336   */\n      add\n        /* \"#utility.yul\":19312:19359   */\n      mstore\n        /* \"#utility.yul\":19376:19507   */\n      tag_430\n        /* \"#utility.yul\":19502:19506   */\n      dup2\n        /* \"#utility.yul\":19376:19507   */\n      tag_234\n      jump\t// in\n    tag_430:\n        /* \"#utility.yul\":19368:19507   */\n      swap1\n      pop\n        /* \"#utility.yul\":19095:19514   */\n      swap2\n      swap1\n      pop\n      jump\t// out\n        /* \"#utility.yul\":19520:19678   */\n    tag_235:\n        /* \"#utility.yul\":19660:19670   */\n      0x416d6f756e743d30000000000000000000000000000000000000000000000000\n        /* \"#utility.yul\":19656:19657   */\n      0x00\n        /* \"#utility.yul\":19648:19654   */\n      dup3\n        /* \"#utility.yul\":19644:19658   */\n      add\n        /* \"#utility.yul\":19637:19671   */\n      mstore\n        /* \"#utility.yul\":19520:19678   */\n      pop\n      jump\t// out\n        /* \"#utility.yul\":19684:20049   */\n    tag_236:\n        /* \"#utility.yul\":19826:19829   */\n      0x00\n        /* \"#utility.yul\":19847:19913   */\n      tag_433\n        /* \"#utility.yul\":19911:19912   */\n      0x08\n        /* \"#utility.yul\":19906:19909   */\n      dup4\n        /* \"#utility.yul\":19847:19913   */\n      tag_198\n      jump\t// in\n    tag_433:\n        /* \"#utility.yul\":19840:19913   */\n      swap2\n      pop\n        /* \"#utility.yul\":19922:20015   */\n      tag_434\n        /* \"#utility.yul\":20011:20014   */\n      dup3\n        /* \"#utility.yul\":19922:20015   */\n      tag_235\n      jump\t// in\n    tag_434:\n        /* \"#utility.yul\":20040:20042   */\n      0x20\n        /* \"#utility.yul\":20035:20038   */\n      dup3\n        /* \"#utility.yul\":20031:20043   */\n      add\n        /* \"#utility.yul\":20024:20043   */\n      swap1\n      pop\n        /* \"#utility.yul\":19684:20049   */\n      swap2\n      swap1\n      pop\n      jump\t// out\n        /* \"#utility.yul\":20055:20474   */\n    tag_164:\n        /* \"#utility.yul\":20221:20225   */\n      0x00\n        /* \"#utility.yul\":20259:20261   */\n      0x20\n        /* \"#utility.yul\":20248:20257   */\n      dup3\n        /* \"#utility.yul\":20244:20262   */\n      add\n        /* \"#utility.yul\":20236:20262   */\n      swap1\n      pop\n        /* \"#utility.yul\":20308:20317   */\n      dup2\n        /* \"#utility.yul\":20302:20306   */\n      dup2\n        /* \"#utility.yul\":20298:20318   */\n      sub\n        /* \"#utility.yul\":20294:20295   */\n      0x00\n        /* \"#utility.yul\":20283:20292   */\n      dup4\n        /* \"#utility.yul\":20279:20296   */\n      add\n        /* \"#utility.yul\":20272:20319   */\n      mstore\n        /* \"#utility.yul\":20336:20467   */\n      tag_436\n        /* \"#utility.yul\":20462:20466   */\n      dup2\n        /* \"#utility.yul\":20336:20467   */\n      tag_236\n      jump\t// in\n    tag_436:\n        /* \"#utility.yul\":20328:20467   */\n      swap1\n      pop\n        /* \"#utility.yul\":20055:20474   */\n      swap2\n      swap1\n      pop\n      jump\t// out\n        /* \"#utility.yul\":20480:20648   */\n    tag_237:\n        /* \"#utility.yul\":20620:20640   */\n      0x4e6f7420656e6f75676820696e20706f6f6c0000000000000000000000000000\n        /* \"#utility.yul\":20616:20617   */\n      0x00\n        /* \"#utility.yul\":20608:20614   */\n      dup3\n        /* \"#utility.yul\":20604:20618   */\n      add\n        /* \"#utility.yul\":20597:20641   */\n      mstore\n        /* \"#utility.yul\":20480:20648   */\n      pop\n      jump\t// out\n        /* \"#utility.yul\":20654:21020   */\n    tag_238:\n        /* \"#utility.yul\":20796:20799   */\n      0x00\n        /* \"#utility.yul\":20817:20884   */\n      tag_439\n        /* \"#utility.yul\":20881:20883   */\n      0x12\n        /* \"#utility.yul\":20876:20879   */\n      dup4\n        /* \"#utility.yul\":20817:20884   */\n      tag_198\n      jump\t// in\n    tag_439:\n        /* \"#utility.yul\":20810:20884   */\n      swap2\n      pop\n        /* \"#utility.yul\":20893:20986   */\n      tag_440\n        /* \"#utility.yul\":20982:20985   */\n      dup3\n        /* \"#utility.yul\":20893:20986   */\n      tag_237\n      jump\t// in\n    tag_440:\n        /* \"#utility.yul\":21011:21013   */\n      0x20\n        /* \"#utility.yul\":21006:21009   */\n      dup3\n        /* \"#utility.yul\":21002:21014   */\n      add\n        /* \"#utility.yul\":20995:21014   */\n      swap1\n      pop\n        /* \"#utility.yul\":20654:21020   */\n      swap2\n      swap1\n      pop\n      jump\t// out\n        /* \"#utility.yul\":21026:21445   */\n    tag_167:\n        /* \"#utility.yul\":21192:21196   */\n      0x00\n        /* \"#utility.yul\":21230:21232   */\n      0x20\n        /* \"#utility.yul\":21219:21228   */\n      dup3\n        /* \"#utility.yul\":21215:21233   */\n      add\n        /* \"#utility.yul\":21207:21233   */\n      swap1\n      pop\n        /* \"#utility.yul\":21279:21288   */\n      dup2\n        /* \"#utility.yul\":21273:21277   */\n      dup2\n        /* \"#utility.yul\":21269:21289   */\n      sub\n        /* \"#utility.yul\":21265:21266   */\n      0x00\n        /* \"#utility.yul\":21254:21263   */\n      dup4\n        /* \"#utility.yul\":21250:21267   */\n      add\n        /* \"#utility.yul\":21243:21290   */\n      mstore\n        /* \"#utility.yul\":21307:21438   */\n      tag_442\n        /* \"#utility.yul\":21433:21437   */\n      dup2\n        /* \"#utility.yul\":21307:21438   */\n      tag_238\n      jump\t// in\n    tag_442:\n        /* \"#utility.yul\":21299:21438   */\n      swap1\n      pop\n        /* \"#utility.yul\":21026:21445   */\n      swap2\n      swap1\n      pop\n      jump\t// out\n        /* \"#utility.yul\":21451:21631   */\n    tag_239:\n        /* \"#utility.yul\":21499:21576   */\n      0x4e487b7100000000000000000000000000000000000000000000000000000000\n        /* \"#utility.yul\":21496:21497   */\n      0x00\n        /* \"#utility.yul\":21489:21577   */\n      mstore\n        /* \"#utility.yul\":21596:21600   */\n      0x41\n        /* \"#utility.yul\":21593:21594   */\n      0x04\n        /* \"#utility.yul\":21586:21601   */\n      mstore\n        /* \"#utility.yul\":21620:21624   */\n      0x24\n        /* \"#utility.yul\":21617:21618   */\n      0x00\n        /* \"#utility.yul\":21610:21625   */\n      revert\n        /* \"#utility.yul\":21637:21778   */\n    tag_240:\n        /* \"#utility.yul\":21686:21690   */\n      0x00\n        /* \"#utility.yul\":21709:21712   */\n      dup2\n        /* \"#utility.yul\":21701:21712   */\n      swap1\n      pop\n        /* \"#utility.yul\":21732:21735   */\n      dup2\n        /* \"#utility.yul\":21729:21730   */\n      0x00\n        /* \"#utility.yul\":21722:21736   */\n      mstore\n        /* \"#utility.yul\":21766:21770   */\n      0x20\n        /* \"#utility.yul\":21763:21764   */\n      0x00\n        /* \"#utility.yul\":21753:21771   */\n      keccak256\n        /* \"#utility.yul\":21745:21771   */\n      swap1\n      pop\n        /* \"#utility.yul\":21637:21778   */\n      swap2\n      swap1\n      pop\n      jump\t// out\n        /* \"#utility.yul\":21784:21877   */\n    tag_241:\n        /* \"#utility.yul\":21821:21827   */\n      0x00\n        /* \"#utility.yul\":21868:21870   */\n      0x20\n        /* \"#utility.yul\":21863:21865   */\n      0x1f\n        /* \"#utility.yul\":21856:21861   */\n      dup4\n        /* \"#utility.yul\":21852:21866   */\n      add\n        /* \"#utility.yul\":21848:21871   */\n      div\n        /* \"#utility.yul\":21838:21871   */\n      swap1\n      pop\n        /* \"#utility.yul\":21784:21877   */\n      swap2\n      swap1\n      pop\n      jump\t// out\n        /* \"#utility.yul\":21883:21990   */\n    tag_242:\n        /* \"#utility.yul\":21927:21935   */\n      0x00\n        /* \"#utility.yul\":21977:21982   */\n      dup3\n        /* \"#utility.yul\":21971:21975   */\n      dup3\n        /* \"#utility.yul\":21967:21983   */\n      shl\n        /* \"#utility.yul\":21946:21983   */\n      swap1\n      pop\n        /* \"#utility.yul\":21883:21990   */\n      swap3\n      swap2\n      pop\n      pop\n      jump\t// out\n        /* \"#utility.yul\":21996:22389   */\n    tag_243:\n        /* \"#utility.yul\":22065:22071   */\n      0x00\n        /* \"#utility.yul\":22115:22116   */\n      0x08\n        /* \"#utility.yul\":22103:22113   */\n      dup4\n        /* \"#utility.yul\":22099:22117   */\n      mul\n        /* \"#utility.yul\":22138:22235   */\n      tag_448\n        /* \"#utility.yul\":22168:22234   */\n      0xffffffffffffffffffffffffffffffffffffffffffffffffffffffffffffffff\n        /* \"#utility.yul\":22157:22166   */\n      dup3\n        /* \"#utility.yul\":22138:22235   */\n      tag_242\n      jump\t// in\n    tag_448:\n        /* \"#utility.yul\":22256:22295   */\n      tag_449\n        /* \"#utility.yul\":22286:22294   */\n      dup7\n        /* \"#utility.yul\":22275:22284   */\n      dup4\n        /* \"#utility.yul\":22256:22295   */\n      tag_242\n      jump\t// in\n    tag_449:\n        /* \"#utility.yul\":22244:22295   */\n      swap6\n      pop\n        /* \"#utility.yul\":22328:22332   */\n      dup1\n        /* \"#utility.yul\":22324:22333   */\n      not\n        /* \"#utility.yul\":22317:22322   */\n      dup5\n        /* \"#utility.yul\":22313:22334   */\n      and\n        /* \"#utility.yul\":22304:22334   */\n      swap4\n      pop\n        /* \"#utility.yul\":22377:22381   */\n      dup1\n        /* \"#utility.yul\":22367:22375   */\n      dup7\n        /* \"#utility.yul\":22363:22382   */\n      and\n        /* \"#utility.yul\":22356:22361   */\n      dup5\n        /* \"#utility.yul\":22353:22383   */\n      or\n        /* \"#utility.yul\":22343:22383   */\n      swap3\n      pop\n        /* \"#utility.yul\":22072:22389   */\n      pop\n      pop\n        /* \"#utility.yul\":21996:22389   */\n      swap4\n      swap3\n      pop\n      pop\n      pop\n      jump\t// out\n        /* \"#utility.yul\":22395:22455   */\n    tag_244:\n        /* \"#utility.yul\":22423:22426   */\n      0x00\n        /* \"#utility.yul\":22444:22449   */\n      dup2\n        /* \"#utility.yul\":22437:22449   */\n      swap1\n      pop\n        /* \"#utility.yul\":22395:22455   */\n      swap2\n      swap1\n      pop\n      jump\t// out\n        /* \"#utility.yul\":22461:22603   */\n    tag_245:\n        /* \"#utility.yul\":22511:22520   */\n      0x00\n        /* \"#utility.yul\":22544:22597   */\n      tag_452\n        /* \"#utility.yul\":22562:22596   */\n      tag_453\n        /* \"#utility.yul\":22571:22595   */\n      tag_454\n        /* \"#utility.yul\":22589:22594   */\n      dup5\n        /* \"#utility.yul\":22571:22595   */\n      tag_188\n      jump\t// in\n    tag_454:\n        /* \"#utility.yul\":22562:22596   */\n      tag_244\n      jump\t// in\n    tag_453:\n        /* \"#utility.yul\":22544:22597   */\n      tag_188\n      jump\t// in\n    tag_452:\n        /* \"#utility.yul\":22531:22597   */\n      swap1\n      pop\n        /* \"#utility.yul\":22461:22603   */\n      swap2\n      swap1\n      pop\n      jump\t// out\n        /* \"#utility.yul\":22609:22684   */\n    tag_246:\n        /* \"#utility.yul\":22652:22655   */\n      0x00\n        /* \"#utility.yul\":22673:22678   */\n      dup2\n        /* \"#utility.yul\":22666:22678   */\n      swap1\n      pop\n        /* \"#utility.yul\":22609:22684   */\n      swap2\n      swap1\n      pop\n      jump\t// out\n        /* \"#utility.yul\":22690:22959   */\n    tag_247:\n        /* \"#utility.yul\":22800:22839   */\n      tag_457\n        /* \"#utility.yul\":22831:22838   */\n      dup4\n        /* \"#utility.yul\":22800:22839   */\n      tag_245\n      jump\t// in\n    tag_457:\n        /* \"#utility.yul\":22861:22952   */\n      tag_458\n        /* \"#utility.yul\":22910:22951   */\n      tag_459\n        /* \"#utility.yul\":22934:22950   */\n      dup3\n        /* \"#utility.yul\":22910:22951   */\n      tag_246\n      jump\t// in\n    tag_459:\n        /* \"#utility.yul\":22902:22908   */\n      dup5\n        /* \"#utility.yul\":22895:22899   */\n      dup5\n        /* \"#utility.yul\":22889:22900   */\n      sload\n        /* \"#utility.yul\":22861:22952   */\n      tag_243\n      jump\t// in\n    tag_458:\n        /* \"#utility.yul\":22855:22859   */\n      dup3\n        /* \"#utility.yul\":22848:22953   */\n      sstore\n        /* \"#utility.yul\":22766:22959   */\n      pop\n        /* \"#utility.yul\":22690:22959   */\n      pop\n      pop\n      pop\n      jump\t// out\n        /* \"#utility.yul\":22965:23038   */\n    tag_248:\n        /* \"#utility.yul\":23010:23013   */\n      0x00\n        /* \"#utility.yul\":23031:23032   */\n      0x00\n        /* \"#utility.yul\":23024:23032   */\n      swap1\n      pop\n        /* \"#utility.yul\":22965:23038   */\n      swap1\n      jump\t// out\n        /* \"#utility.yul\":23044:23233   */\n    tag_249:\n        /* \"#utility.yul\":23121:23153   */\n      tag_462\n      tag_248\n      jump\t// in\n    tag_462:\n        /* \"#utility.yul\":23162:23227   */\n      tag_463\n        /* \"#utility.yul\":23220:23226   */\n      dup2\n        /* \"#utility.yul\":23212:23218   */\n      dup5\n        /* \"#utility.yul\":23206:23210   */\n      dup5\n        /* \"#utility.yul\":23162:23227   */\n      tag_247\n      jump\t// in\n    tag_463:\n        /* \"#utility.yul\":23097:23233   */\n      pop\n        /* \"#utility.yul\":23044:23233   */\n      pop\n      pop\n      jump\t// out\n        /* \"#utility.yul\":23239:23425   */\n    tag_250:\n        /* \"#utility.yul\":23299:23419   */\n    tag_465:\n        /* \"#utility.yul\":23316:23319   */\n      dup2\n        /* \"#utility.yul\":23309:23314   */\n      dup2\n        /* \"#utility.yul\":23306:23320   */\n      lt\n        /* \"#utility.yul\":23299:23419   */\n      iszero\n      tag_467\n      jumpi\n        /* \"#utility.yul\":23370:23409   */\n      tag_468\n        /* \"#utility.yul\":23407:23408   */\n      0x00\n        /* \"#utility.yul\":23400:23405   */\n      dup3\n        /* \"#utility.yul\":23370:23409   */\n      tag_249\n      jump\t// in\n    tag_468:\n        /* \"#utility.yul\":23343:23344   */\n      0x01\n        /* \"#utility.yul\":23336:23341   */\n      dup2\n        /* \"#utility.yul\":23332:23345   */\n      add\n        /* \"#utility.yul\":23323:23345   */\n      swap1\n      pop\n        /* \"#utility.yul\":23299:23419   */\n      jump(tag_465)\n    tag_467:\n        /* \"#utility.yul\":23239:23425   */\n      pop\n      pop\n      jump\t// out\n        /* \"#utility.yul\":23431:23974   */\n    tag_251:\n        /* \"#utility.yul\":23532:23534   */\n      0x1f\n        /* \"#utility.yul\":23527:23530   */\n      dup3\n        /* \"#utility.yul\":23524:23535   */\n      gt\n        /* \"#utility.yul\":23521:23967   */\n      iszero\n      tag_470\n      jumpi\n        /* \"#utility.yul\":23566:23604   */\n      tag_471\n        /* \"#utility.yul\":23598:23603   */\n      dup2\n        /* \"#utility.yul\":23566:23604   */\n      tag_240\n      jump\t// in\n    tag_471:\n        /* \"#utility.yul\":23650:23679   */\n      tag_472\n        /* \"#utility.yul\":23668:23678   */\n      dup5\n        /* \"#utility.yul\":23650:23679   */\n      tag_241\n      jump\t// in\n    tag_472:\n        /* \"#utility.yul\":23640:23648   */\n      dup2\n        /* \"#utility.yul\":23636:23680   */\n      add\n        /* \"#utility.yul\":23833:23835   */\n      0x20\n        /* \"#utility.yul\":23821:23831   */\n      dup6\n        /* \"#utility.yul\":23818:23836   */\n      lt\n        /* \"#utility.yul\":23815:23864   */\n      iszero\n      tag_473\n      jumpi\n        /* \"#utility.yul\":23854:23862   */\n      dup2\n        /* \"#utility.yul\":23839:23862   */\n      swap1\n      pop\n        /* \"#utility.yul\":23815:23864   */\n    tag_473:\n        /* \"#utility.yul\":23877:23957   */\n      tag_474\n        /* \"#utility.yul\":23933:23955   */\n      tag_475\n        /* \"#utility.yul\":23951:23954   */\n      dup6\n        /* \"#utility.yul\":23933:23955   */\n      tag_241\n      jump\t// in\n    tag_475:\n        /* \"#utility.yul\":23923:23931   */\n      dup4\n        /* \"#utility.yul\":23919:23956   */\n      add\n        /* \"#utility.yul\":23906:23917   */\n      dup3\n        /* \"#utility.yul\":23877:23957   */\n      tag_250\n      jump\t// in\n    tag_474:\n        /* \"#utility.yul\":23536:23967   */\n      pop\n      pop\n        /* \"#utility.yul\":23521:23967   */\n    tag_470:\n        /* \"#utility.yul\":23431:23974   */\n      pop\n      pop\n      pop\n      jump\t// out\n        /* \"#utility.yul\":23980:24097   */\n    tag_252:\n        /* \"#utility.yul\":24034:24042   */\n      0x00\n        /* \"#utility.yul\":24084:24089   */\n      dup3\n        /* \"#utility.yul\":24078:24082   */\n      dup3\n        /* \"#utility.yul\":24074:24090   */\n      shr\n        /* \"#utility.yul\":24053:24090   */\n      swap1\n      pop\n        /* \"#utility.yul\":23980:24097   */\n      swap3\n      swap2\n      pop\n      pop\n      jump\t// out\n        /* \"#utility.yul\":24103:24272   */\n    tag_253:\n        /* \"#utility.yul\":24147:24153   */\n      0x00\n        /* \"#utility.yul\":24180:24231   */\n      tag_478\n        /* \"#utility.yul\":24228:24229   */\n      0x00\n        /* \"#utility.yul\":24224:24230   */\n      not\n        /* \"#utility.yul\":24216:24221   */\n      dup5\n        /* \"#utility.yul\":24213:24214   */\n      0x08\n        /* \"#utility.yul\":24209:24222   */\n      mul\n        /* \"#utility.yul\":24180:24231   */\n      tag_252\n      jump\t// in\n    tag_478:\n        /* \"#utility.yul\":24176:24232   */\n      not\n        /* \"#utility.yul\":24261:24265   */\n      dup1\n        /* \"#utility.yul\":24255:24259   */\n      dup4\n        /* \"#utility.yul\":24251:24266   */\n      and\n        /* \"#utility.yul\":24241:24266   */\n      swap2\n      pop\n        /* \"#utility.yul\":24154:24272   */\n      pop\n        /* \"#utility.yul\":24103:24272   */\n      swap3\n      swap2\n      pop\n      pop\n      jump\t// out\n        /* \"#utility.yul\":24277:24572   */\n    tag_254:\n        /* \"#utility.yul\":24353:24357   */\n      0x00\n        /* \"#utility.yul\":24499:24528   */\n      tag_480\n        /* \"#utility.yul\":24524:24527   */\n      dup4\n        /* \"#utility.yul\":24518:24522   */\n      dup4\n        /* \"#utility.yul\":24499:24528   */\n      tag_253\n      jump\t// in\n    tag_480:\n        /* \"#utility.yul\":24491:24528   */\n      swap2\n      pop\n        /* \"#utility.yul\":24561:24564   */\n      dup3\n        /* \"#utility.yul\":24558:24559   */\n      0x02\n        /* \"#utility.yul\":24554:24565   */\n      mul\n        /* \"#utility.yul\":24548:24552   */\n      dup3\n        /* \"#utility.yul\":24545:24566   */\n      or\n        /* \"#utility.yul\":24537:24566   */\n      swap1\n      pop\n        /* \"#utility.yul\":24277:24572   */\n      swap3\n      swap2\n      pop\n      pop\n      jump\t// out\n        /* \"#utility.yul\":24577:25972   */\n    tag_170:\n        /* \"#utility.yul\":24694:24731   */\n      tag_482\n        /* \"#utility.yul\":24727:24730   */\n      dup3\n        /* \"#utility.yul\":24694:24731   */\n      tag_197\n      jump\t// in\n    tag_482:\n        /* \"#utility.yul\":24796:24814   */\n      0xffffffffffffffff\n        /* \"#utility.yul\":24788:24794   */\n      dup2\n        /* \"#utility.yul\":24785:24815   */\n      gt\n        /* \"#utility.yul\":24782:24838   */\n      iszero\n      tag_483\n      jumpi\n        /* \"#utility.yul\":24818:24836   */\n      tag_484\n      tag_239\n      jump\t// in\n    tag_484:\n        /* \"#utility.yul\":24782:24838   */\n    tag_483:\n        /* \"#utility.yul\":24862:24900   */\n      tag_485\n        /* \"#utility.yul\":24894:24898   */\n      dup3\n        /* \"#utility.yul\":24888:24899   */\n      sload\n        /* \"#utility.yul\":24862:24900   */\n      tag_85\n      jump\t// in\n    tag_485:\n        /* \"#utility.yul\":24947:25014   */\n      tag_486\n        /* \"#utility.yul\":25007:25013   */\n      dup3\n        /* \"#utility.yul\":24999:25005   */\n      dup3\n        /* \"#utility.yul\":24993:24997   */\n      dup6\n        /* \"#utility.yul\":24947:25014   */\n      tag_251\n      jump\t// in\n    tag_486:\n        /* \"#utility.yul\":25041:25042   */\n      0x00\n        /* \"#utility.yul\":25065:25069   */\n      0x20\n        /* \"#utility.yul\":25052:25069   */\n      swap1\n      pop\n        /* \"#utility.yul\":25097:25099   */\n      0x1f\n        /* \"#utility.yul\":25089:25095   */\n      dup4\n        /* \"#utility.yul\":25086:25100   */\n      gt\n        /* \"#utility.yul\":25114:25115   */\n      0x01\n        /* \"#utility.yul\":25109:25727   */\n      dup2\n      eq\n      tag_488\n      jumpi\n        /* \"#utility.yul\":25771:25772   */\n      0x00\n        /* \"#utility.yul\":25788:25794   */\n      dup5\n        /* \"#utility.yul\":25785:25862   */\n      iszero\n      tag_489\n      jumpi\n        /* \"#utility.yul\":25837:25846   */\n      dup3\n        /* \"#utility.yul\":25832:25835   */\n      dup8\n        /* \"#utility.yul\":25828:25847   */\n      add\n        /* \"#utility.yul\":25822:25848   */\n      mload\n        /* \"#utility.yul\":25813:25848   */\n      swap1\n      pop\n        /* \"#utility.yul\":25785:25862   */\n    tag_489:\n        /* \"#utility.yul\":25888:25955   */\n      tag_490\n        /* \"#utility.yul\":25948:25954   */\n      dup6\n        /* \"#utility.yul\":25941:25946   */\n      dup3\n        /* \"#utility.yul\":25888:25955   */\n      tag_254\n      jump\t// in\n    tag_490:\n        /* \"#utility.yul\":25882:25886   */\n      dup7\n        /* \"#utility.yul\":25875:25956   */\n      sstore\n        /* \"#utility.yul\":25744:25966   */\n      pop\n        /* \"#utility.yul\":25079:25966   */\n      jump(tag_487)\n        /* \"#utility.yul\":25109:25727   */\n    tag_488:\n        /* \"#utility.yul\":25161:25165   */\n      0x1f\n        /* \"#utility.yul\":25157:25166   */\n      not\n        /* \"#utility.yul\":25149:25155   */\n      dup5\n        /* \"#utility.yul\":25145:25167   */\n      and\n        /* \"#utility.yul\":25195:25232   */\n      tag_491\n        /* \"#utility.yul\":25227:25231   */\n      dup7\n        /* \"#utility.yul\":25195:25232   */\n      tag_240\n      jump\t// in\n    tag_491:\n        /* \"#utility.yul\":25254:25255   */\n      0x00\n        /* \"#utility.yul\":25268:25476   */\n    tag_492:\n        /* \"#utility.yul\":25282:25289   */\n      dup3\n        /* \"#utility.yul\":25279:25280   */\n      dup2\n        /* \"#utility.yul\":25276:25290   */\n      lt\n        /* \"#utility.yul\":25268:25476   */\n      iszero\n      tag_494\n      jumpi\n        /* \"#utility.yul\":25361:25370   */\n      dup5\n        /* \"#utility.yul\":25356:25359   */\n      dup10\n        /* \"#utility.yul\":25352:25371   */\n      add\n        /* \"#utility.yul\":25346:25372   */\n      mload\n        /* \"#utility.yul\":25338:25344   */\n      dup3\n        /* \"#utility.yul\":25331:25373   */\n      sstore\n        /* \"#utility.yul\":25412:25413   */\n      0x01\n        /* \"#utility.yul\":25404:25410   */\n      dup3\n        /* \"#utility.yul\":25400:25414   */\n      add\n        /* \"#utility.yul\":25390:25414   */\n      swap2\n      pop\n        /* \"#utility.yul\":25459:25461   */\n      0x20\n        /* \"#utility.yul\":25448:25457   */\n      dup6\n        /* \"#utility.yul\":25444:25462   */\n      add\n        /* \"#utility.yul\":25431:25462   */\n      swap5\n      pop\n        /* \"#utility.yul\":25305:25309   */\n      0x20\n        /* \"#utility.yul\":25302:25303   */\n      dup2\n        /* \"#utility.yul\":25298:25310   */\n      add\n        /* \"#utility.yul\":25293:25310   */\n      swap1\n      pop\n        /* \"#utility.yul\":25268:25476   */\n      jump(tag_492)\n    tag_494:\n        /* \"#utility.yul\":25504:25510   */\n      dup7\n        /* \"#utility.yul\":25495:25502   */\n      dup4\n        /* \"#utility.yul\":25492:25511   */\n      lt\n        /* \"#utility.yul\":25489:25668   */\n      iszero\n      tag_495\n      jumpi\n        /* \"#utility.yul\":25562:25571   */\n      dup5\n        /* \"#utility.yul\":25557:25560   */\n      dup10\n        /* \"#utility.yul\":25553:25572   */\n      add\n        /* \"#utility.yul\":25547:25573   */\n      mload\n        /* \"#utility.yul\":25605:25653   */\n      tag_496\n        /* \"#utility.yul\":25647:25651   */\n      0x1f\n        /* \"#utility.yul\":25639:25645   */\n      dup10\n        /* \"#utility.yul\":25635:25652   */\n      and\n        /* \"#utility.yul\":25624:25633   */\n      dup3\n        /* \"#utility.yul\":25605:25653   */\n      tag_253\n      jump\t// in\n    tag_496:\n        /* \"#utility.yul\":25597:25603   */\n      dup4\n        /* \"#utility.yul\":25590:25654   */\n      sstore\n        /* \"#utility.yul\":25512:25668   */\n      pop\n        /* \"#utility.yul\":25489:25668   */\n    tag_495:\n        /* \"#utility.yul\":25714:25715   */\n      0x01\n        /* \"#utility.yul\":25710:25711   */\n      0x02\n        /* \"#utility.yul\":25702:25708   */\n      dup9\n        /* \"#utility.yul\":25698:25712   */\n      mul\n        /* \"#utility.yul\":25694:25716   */\n      add\n        /* \"#utility.yul\":25688:25692   */\n      dup9\n        /* \"#utility.yul\":25681:25717   */\n      sstore\n        /* \"#utility.yul\":25116:25727   */\n      pop\n      pop\n      pop\n        /* \"#utility.yul\":25079:25966   */\n    tag_487:\n      pop\n        /* \"#utility.yul\":24669:25972   */\n      pop\n      pop\n      pop\n        /* \"#utility.yul\":24577:25972   */\n      pop\n      pop\n      jump\t// out\n        /* \"#utility.yul\":25978:26126   */\n    tag_255:\n        /* \"#utility.yul\":26076:26082   */\n      dup3\n        /* \"#utility.yul\":26071:26074   */\n      dup2\n        /* \"#utility.yul\":26066:26069   */\n      dup4\n        /* \"#utility.yul\":26053:26083   */\n      calldatacopy\n        /* \"#utility.yul\":26117:26118   */\n      0x00\n        /* \"#utility.yul\":26108:26114   */\n      dup4\n        /* \"#utility.yul\":26103:26106   */\n      dup4\n        /* \"#utility.yul\":26099:26115   */\n      add\n        /* \"#utility.yul\":26092:26119   */\n      mstore\n        /* \"#utility.yul\":25978:26126   */\n      pop\n      pop\n      pop\n      jump\t// out\n        /* \"#utility.yul\":26156:26473   */\n    tag_256:\n        /* \"#utility.yul\":26254:26257   */\n      0x00\n        /* \"#utility.yul\":26275:26346   */\n      tag_499\n        /* \"#utility.yul\":26339:26345   */\n      dup4\n        /* \"#utility.yul\":26334:26337   */\n      dup6\n        /* \"#utility.yul\":26275:26346   */\n      tag_198\n      jump\t// in\n    tag_499:\n        /* \"#utility.yul\":26268:26346   */\n      swap4\n      pop\n        /* \"#utility.yul\":26356:26412   */\n      tag_500\n        /* \"#utility.yul\":26405:26411   */\n      dup4\n        /* \"#utility.yul\":26400:26403   */\n      dup6\n        /* \"#utility.yul\":26393:26398   */\n      dup5\n        /* \"#utility.yul\":26356:26412   */\n      tag_255\n      jump\t// in\n    tag_500:\n        /* \"#utility.yul\":26437:26466   */\n      tag_501\n        /* \"#utility.yul\":26459:26465   */\n      dup4\n        /* \"#utility.yul\":26437:26466   */\n      tag_200\n      jump\t// in\n    tag_501:\n        /* \"#utility.yul\":26432:26435   */\n      dup5\n        /* \"#utility.yul\":26428:26467   */\n      add\n        /* \"#utility.yul\":26421:26467   */\n      swap1\n      pop\n        /* \"#utility.yul\":26156:26473   */\n      swap4\n      swap3\n      pop\n      pop\n      pop\n      jump\t// out\n        /* \"#utility.yul\":26479:26922   */\n    tag_173:\n        /* \"#utility.yul\":26630:26634   */\n      0x00\n        /* \"#utility.yul\":26668:26670   */\n      0x40\n        /* \"#utility.yul\":26657:26666   */\n      dup3\n        /* \"#utility.yul\":26653:26671   */\n      add\n        /* \"#utility.yul\":26645:26671   */\n      swap1\n      pop\n        /* \"#utility.yul\":26681:26752   */\n      tag_503\n        /* \"#utility.yul\":26749:26750   */\n      0x00\n        /* \"#utility.yul\":26738:26747   */\n      dup4\n        /* \"#utility.yul\":26734:26751   */\n      add\n        /* \"#utility.yul\":26725:26731   */\n      dup7\n        /* \"#utility.yul\":26681:26752   */\n      tag_196\n      jump\t// in\n    tag_503:\n        /* \"#utility.yul\":26799:26808   */\n      dup2\n        /* \"#utility.yul\":26793:26797   */\n      dup2\n        /* \"#utility.yul\":26789:26809   */\n      sub\n        /* \"#utility.yul\":26784:26786   */\n      0x20\n        /* \"#utility.yul\":26773:26782   */\n      dup4\n        /* \"#utility.yul\":26769:26787   */\n      add\n        /* \"#utility.yul\":26762:26810   */\n      mstore\n        /* \"#utility.yul\":26827:26915   */\n      tag_504\n        /* \"#utility.yul\":26910:26914   */\n      dup2\n        /* \"#utility.yul\":26901:26907   */\n      dup5\n        /* \"#utility.yul\":26893:26899   */\n      dup7\n        /* \"#utility.yul\":26827:26915   */\n      tag_256\n      jump\t// in\n    tag_504:\n        /* \"#utility.yul\":26819:26915   */\n      swap1\n      pop\n        /* \"#utility.yul\":26479:26922   */\n      swap5\n      swap4\n      pop\n      pop\n      pop\n      pop\n      jump\t// out\n        /* \"#utility.yul\":26928:27084   */\n    tag_257:\n        /* \"#utility.yul\":27068:27076   */\n      0x4e6f204554480000000000000000000000000000000000000000000000000000\n        /* \"#utility.yul\":27064:27065   */\n      0x00\n        /* \"#utility.yul\":27056:27062   */\n      dup3\n        /* \"#utility.yul\":27052:27066   */\n      add\n        /* \"#utility.yul\":27045:27077   */\n      mstore\n        /* \"#utility.yul\":26928:27084   */\n      pop\n      jump\t// out\n        /* \"#utility.yul\":27090:27455   */\n    tag_258:\n        /* \"#utility.yul\":27232:27235   */\n      0x00\n        /* \"#utility.yul\":27253:27319   */\n      tag_507\n        /* \"#utility.yul\":27317:27318   */\n      0x06\n        /* \"#utility.yul\":27312:27315   */\n      dup4\n        /* \"#utility.yul\":27253:27319   */\n      tag_198\n      jump\t// in\n    tag_507:\n        /* \"#utility.yul\":27246:27319   */\n      swap2\n      pop\n        /* \"#utility.yul\":27328:27421   */\n      tag_508\n        /* \"#utility.yul\":27417:27420   */\n      dup3\n        /* \"#utility.yul\":27328:27421   */\n      tag_257\n      jump\t// in\n    tag_508:\n        /* \"#utility.yul\":27446:27448   */\n      0x20\n        /* \"#utility.yul\":27441:27444   */\n      dup3\n        /* \"#utility.yul\":27437:27449   */\n      add\n        /* \"#utility.yul\":27430:27449   */\n      swap1\n      pop\n        /* \"#utility.yul\":27090:27455   */\n      swap2\n      swap1\n      pop\n      jump\t// out\n        /* \"#utility.yul\":27461:27880   */\n    tag_180:\n        /* \"#utility.yul\":27627:27631   */\n      0x00\n        /* \"#utility.yul\":27665:27667   */\n      0x20\n        /* \"#utility.yul\":27654:27663   */\n      dup3\n        /* \"#utility.yul\":27650:27668   */\n      add\n        /* \"#utility.yul\":27642:27668   */\n      swap1\n      pop\n        /* \"#utility.yul\":27714:27723   */\n      dup2\n        /* \"#utility.yul\":27708:27712   */\n      dup2\n        /* \"#utility.yul\":27704:27724   */\n      sub\n        /* \"#utility.yul\":27700:27701   */\n      0x00\n        /* \"#utility.yul\":27689:27698   */\n      dup4\n        /* \"#utility.yul\":27685:27702   */\n      add\n        /* \"#utility.yul\":27678:27725   */\n      mstore\n        /* \"#utility.yul\":27742:27873   */\n      tag_510\n        /* \"#utility.yul\":27868:27872   */\n      dup2\n        /* \"#utility.yul\":27742:27873   */\n      tag_258\n      jump\t// in\n    tag_510:\n        /* \"#utility.yul\":27734:27873   */\n      swap1\n      pop\n        /* \"#utility.yul\":27461:27880   */\n      swap2\n      swap1\n      pop\n      jump\t// out\n        /* \"#utility.yul\":27886:28218   */\n    tag_183:\n        /* \"#utility.yul\":28007:28011   */\n      0x00\n        /* \"#utility.yul\":28045:28047   */\n      0x40\n        /* \"#utility.yul\":28034:28043   */\n      dup3\n        /* \"#utility.yul\":28030:28048   */\n      add\n        /* \"#utility.yul\":28022:28048   */\n      swap1\n      pop\n        /* \"#utility.yul\":28058:28129   */\n      tag_512\n        /* \"#utility.yul\":28126:28127   */\n      0x00\n        /* \"#utility.yul\":28115:28124   */\n      dup4\n        /* \"#utility.yul\":28111:28128   */\n      add\n        /* \"#utility.yul\":28102:28108   */\n      dup6\n        /* \"#utility.yul\":28058:28129   */\n      tag_196\n      jump\t// in\n    tag_512:\n        /* \"#utility.yul\":28139:28211   */\n      tag_513\n        /* \"#utility.yul\":28207:28209   */\n      0x20\n        /* \"#utility.yul\":28196:28205   */\n      dup4\n        /* \"#utility.yul\":28192:28210   */\n      add\n        /* \"#utility.yul\":28183:28189   */\n      dup5\n        /* \"#utility.yul\":28139:28211   */\n      tag_196\n      jump\t// in\n    tag_513:\n        /* \"#utility.yul\":27886:28218   */\n      swap4\n      swap3\n      pop\n      pop\n      pop\n      jump\t// out\n\n    auxdata: 0xa2646970667358221220823b896a61cd4f4b2432b34461ca4a073913036c408ebdd7f6d925ec2e2015f464736f6c634300081f0033\n}\n",
				"bytecode": {
					"linkReferences": {},
					"object": "608060405260015f5560405180606001604052807317f6ad8ef982297579c203069c1dbffe4348c37273ffffffffffffffffffffffffffffffffffffffff1673ffffffffffffffffffffffffffffffffffffffff168152602001735b38da6a701c568545dcfcb03fcb875f56beddc473ffffffffffffffffffffffffffffffffffffffff1673ffffffffffffffffffffffffffffffffffffffff1681526020017378731d3ca6b7e34ac0f824c42a7cc18a495cabab73ffffffffffffffffffffffffffffffffffffffff1673ffffffffffffffffffffffffffffffffffffffff1681525060019060036100f39291906101ba565b506002600355348015610104575f5ffd5b505f5f90505b6001805490508110156101b457600160025f600184815481106101305761012f61025c565b5b905f5260205f20015f9054906101000a900473ffffffffffffffffffffffffffffffffffffffff1673ffffffffffffffffffffffffffffffffffffffff1673ffffffffffffffffffffffffffffffffffffffff1681526020019081526020015f205f6101000a81548160ff021916908315150217905550808060010191505061010a565b50610289565b828054828255905f5260205f20908101928215610230579160200282015b8281111561022f578251825f6101000a81548173ffffffffffffffffffffffffffffffffffffffff021916908373ffffffffffffffffffffffffffffffffffffffff160217905550916020019190600101906101d8565b5b50905061023d9190610241565b5090565b5b80821115610258575f815f905550600101610242565b5090565b7f4e487b71000000000000000000000000000000000000000000000000000000005f52603260045260245ffd5b611eff806102965f395ff3fe6080604052600436106100c1575f3560e01c806396365d441161007e578063c7f758a811610058578063c7f758a814610288578063cca5a8b2146102c9578063d0e30db014610305578063da35c6641461030f576100c1565b806396365d44146101fa57806398951b5614610224578063a230c5241461024c576100c1565b8063013cf08b146100c55780630d61b5191461010657806311aee3801461012e57806342cde4e8146101585780635daf08ca1461018257806385667f1c146101be575b5f5ffd5b3480156100d0575f5ffd5b506100eb60048036038101906100e69190611195565b610339565b6040516100fd969594939291906112b8565b60405180910390f35b348015610111575f5ffd5b5061012c60048036038101906101279190611195565b610450565b005b348015610139575f5ffd5b506101426107fa565b60405161014f919061131e565b60405180910390f35b348015610163575f5ffd5b5061016c610806565b604051610179919061131e565b60405180910390f35b34801561018d575f5ffd5b506101a860048036038101906101a39190611195565b61080c565b6040516101b59190611337565b60405180910390f35b3480156101c9575f5ffd5b506101e460048036038101906101df919061137a565b610847565b6040516101f191906113b8565b60405180910390f35b348015610205575f5ffd5b5061020e610871565b60405161021b919061131e565b60405180910390f35b34801561022f575f5ffd5b5061024a60048036038101906102459190611195565b610877565b005b348015610257575f5ffd5b50610272600480360381019061026d91906113d1565b610b2a565b60405161027f91906113b8565b60405180910390f35b348015610293575f5ffd5b506102ae60048036038101906102a99190611195565b610b47565b6040516102c0969594939291906113fc565b60405180910390f35b3480156102d4575f5ffd5b506102ef60048036038101906102ea91906114ed565b610c77565b6040516102fc919061131e565b60405180910390f35b61030d611017565b005b34801561031a575f5ffd5b5061032361114e565b604051610330919061131e565b60405180910390f35b60058181548110610348575f80fd5b905f5260205f2090600602015f91509050805f015f9054906101000a900473ffffffffffffffffffffffffffffffffffffffff1690806001015f9054906101000a900473ffffffffffffffffffffffffffffffffffffffff16908060020154908060030180546103b79061158b565b80601f01602080910402602001604051908101604052809291908181526020018280546103e39061158b565b801561042e5780601f106104055761010080835404028352916020019161042e565b820191905f5260205f20905b81548152906001019060200180831161041157829003601f168201915b505050505090806004015490806005015f9054906101000a900460ff16905086565b60015f5414610494576040517f08c379a000000000000000000000000000000000000000000000000000000000815260040161048b90611605565b60405180910390fd5b60025f8190555060025f3373ffffffffffffffffffffffffffffffffffffffff1673ffffffffffffffffffffffffffffffffffffffff1681526020019081526020015f205f9054906101000a900460ff16610524576040517f08c379a000000000000000000000000000000000000000000000000000000000815260040161051b9061166d565b60405180910390fd5b600580549050811061056b576040517f08c379a0000000000000000000000000000000000000000000000000000000008152600401610562906116d5565b60405180910390fd5b5f600582815481106105805761057f6116f3565b5b905f5260205f2090600602019050806005015f9054906101000a900460ff16156105df576040517f08c379a00000000000000000000000000000000000000000000000000000000081526004016105d69061176a565b60405180910390fd5b60035481600401541015610628576040517f08c379a000000000000000000000000000000000000000000000000000000000815260040161061f906117d2565b60405180910390fd5b60045481600201541115610671576040517f08c379a00000000000000000000000000000000000000000000000000000000081526004016106689061183a565b60405180910390fd5b6001816005015f6101000a81548160ff021916908315150217905550806002015460045f8282546106a29190611885565b925050819055505f816001015f9054906101000a900473ffffffffffffffffffffffffffffffffffffffff1673ffffffffffffffffffffffffffffffffffffffff1682600201546040516106f5906118e5565b5f6040518083038185875af1925050503d805f811461072f576040519150601f19603f3d011682016040523d82523d5f602084013e610734565b606091505b5050905080610778576040517f08c379a000000000000000000000000000000000000000000000000000000000815260040161076f90611943565b60405180910390fd5b816001015f9054906101000a900473ffffffffffffffffffffffffffffffffffffffff1673ffffffffffffffffffffffffffffffffffffffff16837f12c8907d32b752d626a36cf18f31719e25f1a3b6f750ee948c22c036373d48aa84600201546040516107e6919061131e565b60405180910390a3505060015f8190555050565b5f600180549050905090565b60035481565b6001818154811061081b575f80fd5b905f5260205f20015f915054906101000a900473ffffffffffffffffffffffffffffffffffffffff1681565b6006602052815f5260405f20602052805f5260405f205f915091509054906101000a900460ff1681565b60045481565b60025f3373ffffffffffffffffffffffffffffffffffffffff1673ffffffffffffffffffffffffffffffffffffffff1681526020019081526020015f205f9054906101000a900460ff16610900576040517f08c379a00000000000000000000000000000000000000000000000000000000081526004016108f79061166d565b60405180910390fd5b6005805490508110610947576040517f08c379a000000000000000000000000000000000000000000000000000000000815260040161093e906116d5565b60405180910390fd5b5f6005828154811061095c5761095b6116f3565b5b905f5260205f2090600602019050806005015f9054906101000a900460ff16156109bb576040517f08c379a00000000000000000000000000000000000000000000000000000000081526004016109b29061176a565b60405180910390fd5b60065f8381526020019081526020015f205f3373ffffffffffffffffffffffffffffffffffffffff1673ffffffffffffffffffffffffffffffffffffffff1681526020019081526020015f205f9054906101000a900460ff1615610a54576040517f08c379a0000000000000000000000000000000000000000000000000000000008152600401610a4b906119ab565b60405180910390fd5b600160065f8481526020019081526020015f205f3373ffffffffffffffffffffffffffffffffffffffff1673ffffffffffffffffffffffffffffffffffffffff1681526020019081526020015f205f6101000a81548160ff0219169083151502179055506001816004015f828254610acc91906119c9565b925050819055503373ffffffffffffffffffffffffffffffffffffffff16827f7060996319a743911fa38fcb4f926382972b1bcd6abeea1bd65adeb620d5dfdf8360040154604051610b1e919061131e565b60405180910390a35050565b6002602052805f5260405f205f915054906101000a900460ff1681565b5f5f5f60605f5f5f60058881548110610b6357610b626116f3565b5b905f5260205f2090600602019050805f015f9054906101000a900473ffffffffffffffffffffffffffffffffffffffff16816001015f9054906101000a900473ffffffffffffffffffffffffffffffffffffffff168260020154836003018460040154856005015f9054906101000a900460ff16828054610be39061158b565b80601f0160208091040260200160405190810160405280929190818152602001828054610c0f9061158b565b8015610c5a5780601f10610c3157610100808354040283529160200191610c5a565b820191905f5260205f20905b815481529060010190602001808311610c3d57829003601f168201915b505050505092509650965096509650965096505091939550919395565b5f60025f3373ffffffffffffffffffffffffffffffffffffffff1673ffffffffffffffffffffffffffffffffffffffff1681526020019081526020015f205f9054906101000a900460ff16610d01576040517f08c379a0000000000000000000000000000000000000000000000000000000008152600401610cf89061166d565b60405180910390fd5b5f73ffffffffffffffffffffffffffffffffffffffff168573ffffffffffffffffffffffffffffffffffffffff1603610d6f576040517f08c379a0000000000000000000000000000000000000000000000000000000008152600401610d6690611a46565b60405180910390fd5b5f8411610db1576040517f08c379a0000000000000000000000000000000000000000000000000000000008152600401610da890611aae565b60405180910390fd5b600454841115610df6576040517f08c379a0000000000000000000000000000000000000000000000000000000008152600401610ded90611b16565b60405180910390fd5b60056040518060c001604052803373ffffffffffffffffffffffffffffffffffffffff1681526020018773ffffffffffffffffffffffffffffffffffffffff16815260200186815260200185858080601f0160208091040260200160405190810160405280939291908181526020018383808284375f81840152601f19601f8201169050808301925050505050505081526020015f81526020015f1515815250908060018154018082558091505060019003905f5260205f2090600602015f909190919091505f820151815f015f6101000a81548173ffffffffffffffffffffffffffffffffffffffff021916908373ffffffffffffffffffffffffffffffffffffffff1602179055506020820151816001015f6101000a81548173ffffffffffffffffffffffffffffffffffffffff021916908373ffffffffffffffffffffffffffffffffffffffff160217905550604082015181600201556060820151816003019081610f659190611d01565b506080820151816004015560a0820151816005015f6101000a81548160ff02191690831515021790555050506001600580549050610fa39190611885565b90508473ffffffffffffffffffffffffffffffffffffffff163373ffffffffffffffffffffffffffffffffffffffff16827f51820485866a12445a1d315205e4d28921833b1ed028aed01a8c0c26fa068d7087878760405161100793929190611e0a565b60405180910390a4949350505050565b60025f3373ffffffffffffffffffffffffffffffffffffffff1673ffffffffffffffffffffffffffffffffffffffff1681526020019081526020015f205f9054906101000a900460ff166110a0576040517f08c379a00000000000000000000000000000000000000000000000000000000081526004016110979061166d565b60405180910390fd5b5f34116110e2576040517f08c379a00000000000000000000000000000000000000000000000000000000081526004016110d990611e84565b60405180910390fd5b3460045f8282546110f391906119c9565b925050819055503373ffffffffffffffffffffffffffffffffffffffff167f73a19dd210f1a7f902193214c0ee91dd35ee5b4d920cba8d519eca65a7b488ca34600454604051611144929190611ea2565b60405180910390a2565b5f600580549050905090565b5f5ffd5b5f5ffd5b5f819050919050565b61117481611162565b811461117e575f5ffd5b50565b5f8135905061118f8161116b565b92915050565b5f602082840312156111aa576111a961115a565b5b5f6111b784828501611181565b91505092915050565b5f73ffffffffffffffffffffffffffffffffffffffff82169050919050565b5f6111e9826111c0565b9050919050565b6111f9816111df565b82525050565b5f611209826111c0565b9050919050565b611219816111ff565b82525050565b61122881611162565b82525050565b5f81519050919050565b5f82825260208201905092915050565b8281835e5f83830152505050565b5f601f19601f8301169050919050565b5f6112708261122e565b61127a8185611238565b935061128a818560208601611248565b61129381611256565b840191505092915050565b5f8115159050919050565b6112b28161129e565b82525050565b5f60c0820190506112cb5f8301896111f0565b6112d86020830188611210565b6112e5604083018761121f565b81810360608301526112f78186611266565b9050611306608083018561121f565b61131360a08301846112a9565b979650505050505050565b5f6020820190506113315f83018461121f565b92915050565b5f60208201905061134a5f8301846111f0565b92915050565b611359816111df565b8114611363575f5ffd5b50565b5f8135905061137481611350565b92915050565b5f5f604083850312156113905761138f61115a565b5b5f61139d85828601611181565b92505060206113ae85828601611366565b9150509250929050565b5f6020820190506113cb5f8301846112a9565b92915050565b5f602082840312156113e6576113e561115a565b5b5f6113f384828501611366565b91505092915050565b5f60c08201905061140f5f8301896111f0565b61141c60208301886111f0565b611429604083018761121f565b818103606083015261143b8186611266565b905061144a608083018561121f565b61145760a08301846112a9565b979650505050505050565b61146b816111ff565b8114611475575f5ffd5b50565b5f8135905061148681611462565b92915050565b5f5ffd5b5f5ffd5b5f5ffd5b5f5f83601f8401126114ad576114ac61148c565b5b8235905067ffffffffffffffff8111156114ca576114c9611490565b5b6020830191508360018202830111156114e6576114e5611494565b5b9250929050565b5f5f5f5f606085870312156115055761150461115a565b5b5f61151287828801611478565b945050602061152387828801611181565b935050604085013567ffffffffffffffff8111156115445761154361115e565b5b61155087828801611498565b925092505092959194509250565b7f4e487b71000000000000000000000000000000000000000000000000000000005f52602260045260245ffd5b5f60028204905060018216806115a257607f821691505b6020821081036115b5576115b461155e565b5b50919050565b7f5265656e7472616e6379000000000000000000000000000000000000000000005f82015250565b5f6115ef600a83611238565b91506115fa826115bb565b602082019050919050565b5f6020820190508181035f83015261161c816115e3565b9050919050565b7f4e6f742061206d656d62657200000000000000000000000000000000000000005f82015250565b5f611657600c83611238565b915061166282611623565b602082019050919050565b5f6020820190508181035f8301526116848161164b565b9050919050565b7f42616420696400000000000000000000000000000000000000000000000000005f82015250565b5f6116bf600683611238565b91506116ca8261168b565b602082019050919050565b5f6020820190508181035f8301526116ec816116b3565b9050919050565b7f4e487b71000000000000000000000000000000000000000000000000000000005f52603260045260245ffd5b7f416c7265616479206578656375746564000000000000000000000000000000005f82015250565b5f611754601083611238565b915061175f82611720565b602082019050919050565b5f6020820190508181035f83015261178181611748565b9050919050565b7f4e6f7420656e6f75676820617070726f76616c730000000000000000000000005f82015250565b5f6117bc601483611238565b91506117c782611788565b602082019050919050565b5f6020820190508181035f8301526117e9816117b0565b9050919050565b7f506f6f6c206368616e67656400000000000000000000000000000000000000005f82015250565b5f611824600c83611238565b915061182f826117f0565b602082019050919050565b5f6020820190508181035f83015261185181611818565b9050919050565b7f4e487b71000000000000000000000000000000000000000000000000000000005f52601160045260245ffd5b5f61188f82611162565b915061189a83611162565b92508282039050818111156118b2576118b1611858565b5b92915050565b5f81905092915050565b50565b5f6118d05f836118b8565b91506118db826118c2565b5f82019050919050565b5f6118ef826118c5565b9150819050919050565b7f5061796d656e74206661696c65640000000000000000000000000000000000005f82015250565b5f61192d600e83611238565b9150611938826118f9565b602082019050919050565b5f6020820190508181035f83015261195a81611921565b9050919050565b7f416c726561647920617070726f766564000000000000000000000000000000005f82015250565b5f611995601083611238565b91506119a082611961565b602082019050919050565b5f6020820190508181035f8301526119c281611989565b9050919050565b5f6119d382611162565b91506119de83611162565b92508282019050808211156119f6576119f5611858565b5b92915050565b7f546f3d30000000000000000000000000000000000000000000000000000000005f82015250565b5f611a30600483611238565b9150611a3b826119fc565b602082019050919050565b5f6020820190508181035f830152611a5d81611a24565b9050919050565b7f416d6f756e743d300000000000000000000000000000000000000000000000005f82015250565b5f611a98600883611238565b9150611aa382611a64565b602082019050919050565b5f6020820190508181035f830152611ac581611a8c565b9050919050565b7f4e6f7420656e6f75676820696e20706f6f6c00000000000000000000000000005f82015250565b5f611b00601283611238565b9150611b0b82611acc565b602082019050919050565b5f6020820190508181035f830152611b2d81611af4565b9050919050565b7f4e487b71000000000000000000000000000000000000000000000000000000005f52604160045260245ffd5b5f819050815f5260205f209050919050565b5f6020601f8301049050919050565b5f82821b905092915050565b5f60088302611bbd7fffffffffffffffffffffffffffffffffffffffffffffffffffffffffffffffff82611b82565b611bc78683611b82565b95508019841693508086168417925050509392505050565b5f819050919050565b5f611c02611bfd611bf884611162565b611bdf565b611162565b9050919050565b5f819050919050565b611c1b83611be8565b611c2f611c2782611c09565b848454611b8e565b825550505050565b5f5f905090565b611c46611c37565b611c51818484611c12565b505050565b5b81811015611c7457611c695f82611c3e565b600181019050611c57565b5050565b601f821115611cb957611c8a81611b61565b611c9384611b73565b81016020851015611ca2578190505b611cb6611cae85611b73565b830182611c56565b50505b505050565b5f82821c905092915050565b5f611cd95f1984600802611cbe565b1980831691505092915050565b5f611cf18383611cca565b9150826002028217905092915050565b611d0a8261122e565b67ffffffffffffffff811115611d2357611d22611b34565b5b611d2d825461158b565b611d38828285611c78565b5f60209050601f831160018114611d69575f8415611d57578287015190505b611d618582611ce6565b865550611dc8565b601f198416611d7786611b61565b5f5b82811015611d9e57848901518255600182019150602085019450602081019050611d79565b86831015611dbb5784890151611db7601f891682611cca565b8355505b6001600288020188555050505b505050505050565b828183375f83830152505050565b5f611de98385611238565b9350611df6838584611dd0565b611dff83611256565b840190509392505050565b5f604082019050611e1d5f83018661121f565b8181036020830152611e30818486611dde565b9050949350505050565b7f4e6f2045544800000000000000000000000000000000000000000000000000005f82015250565b5f611e6e600683611238565b9150611e7982611e3a565b602082019050919050565b5f6020820190508181035f830152611e9b81611e62565b9050919050565b5f604082019050611eb55f83018561121f565b611ec2602083018461121f565b939250505056fea2646970667358221220823b896a61cd4f4b2432b34461ca4a073913036c408ebdd7f6d925ec2e2015f464736f6c634300081f0033",
					"opcodes": "PUSH1 0x80 PUSH1 0x40 MSTORE PUSH1 0x1 PUSH0 SSTORE PUSH1 0x40 MLOAD DUP1 PUSH1 0x60 ADD PUSH1 0x40 MSTORE DUP1 PUSH20 0x17F6AD8EF982297579C203069C1DBFFE4348C372 PUSH20 0xFFFFFFFFFFFFFFFFFFFFFFFFFFFFFFFFFFFFFFFF AND PUSH20 0xFFFFFFFFFFFFFFFFFFFFFFFFFFFFFFFFFFFFFFFF AND DUP2 MSTORE PUSH1 0x20 ADD PUSH20 0x5B38DA6A701C568545DCFCB03FCB875F56BEDDC4 PUSH20 0xFFFFFFFFFFFFFFFFFFFFFFFFFFFFFFFFFFFFFFFF AND PUSH20 0xFFFFFFFFFFFFFFFFFFFFFFFFFFFFFFFFFFFFFFFF AND DUP2 MSTORE PUSH1 0x20 ADD PUSH20 0x78731D3CA6B7E34AC0F824C42A7CC18A495CABAB PUSH20 0xFFFFFFFFFFFFFFFFFFFFFFFFFFFFFFFFFFFFFFFF AND PUSH20 0xFFFFFFFFFFFFFFFFFFFFFFFFFFFFFFFFFFFFFFFF AND DUP2 MSTORE POP PUSH1 0x1 SWAP1 PUSH1 0x3 PUSH2 0xF3 SWAP3 SWAP2 SWAP1 PUSH2 0x1BA JUMP JUMPDEST POP PUSH1 0x2 PUSH1 0x3 SSTORE CALLVALUE DUP1 ISZERO PUSH2 0x104 JUMPI PUSH0 PUSH0 REVERT JUMPDEST POP PUSH0 PUSH0 SWAP1 POP JUMPDEST PUSH1 0x1 DUP1 SLOAD SWAP1 POP DUP2 LT ISZERO PUSH2 0x1B4 JUMPI PUSH1 0x1 PUSH1 0x2 PUSH0 PUSH1 0x1 DUP5 DUP2 SLOAD DUP2 LT PUSH2 0x130 JUMPI PUSH2 0x12F PUSH2 0x25C JUMP JUMPDEST JUMPDEST SWAP1 PUSH0 MSTORE PUSH1 0x20 PUSH0 KECCAK256 ADD PUSH0 SWAP1 SLOAD SWAP1 PUSH2 0x100 EXP SWAP1 DIV PUSH20 0xFFFFFFFFFFFFFFFFFFFFFFFFFFFFFFFFFFFFFFFF AND PUSH20 0xFFFFFFFFFFFFFFFFFFFFFFFFFFFFFFFFFFFFFFFF AND PUSH20 0xFFFFFFFFFFFFFFFFFFFFFFFFFFFFFFFFFFFFFFFF AND DUP2 MSTORE PUSH1 0x20 ADD SWAP1 DUP2 MSTORE PUSH1 0x20 ADD PUSH0 KECCAK256 PUSH0 PUSH2 0x100 EXP DUP2 SLOAD DUP2 PUSH1 0xFF MUL NOT AND SWAP1 DUP4 ISZERO ISZERO MUL OR SWAP1 SSTORE POP DUP1 DUP1 PUSH1 0x1 ADD SWAP2 POP POP PUSH2 0x10A JUMP JUMPDEST POP PUSH2 0x289 JUMP JUMPDEST DUP3 DUP1 SLOAD DUP3 DUP3 SSTORE SWAP1 PUSH0 MSTORE PUSH1 0x20 PUSH0 KECCAK256 SWAP1 DUP2 ADD SWAP3 DUP3 ISZERO PUSH2 0x230 JUMPI SWAP2 PUSH1 0x20 MUL DUP3 ADD JUMPDEST DUP3 DUP2 GT ISZERO PUSH2 0x22F JUMPI DUP3 MLOAD DUP3 PUSH0 PUSH2 0x100 EXP DUP2 SLOAD DUP2 PUSH20 0xFFFFFFFFFFFFFFFFFFFFFFFFFFFFFFFFFFFFFFFF MUL NOT AND SWAP1 DUP4 PUSH20 0xFFFFFFFFFFFFFFFFFFFFFFFFFFFFFFFFFFFFFFFF AND MUL OR SWAP1 SSTORE POP SWAP2 PUSH1 0x20 ADD SWAP2 SWAP1 PUSH1 0x1 ADD SWAP1 PUSH2 0x1D8 JUMP JUMPDEST JUMPDEST POP SWAP1 POP PUSH2 0x23D SWAP2 SWAP1 PUSH2 0x241 JUMP JUMPDEST POP SWAP1 JUMP JUMPDEST JUMPDEST DUP1 DUP3 GT ISZERO PUSH2 0x258 JUMPI PUSH0 DUP2 PUSH0 SWAP1 SSTORE POP PUSH1 0x1 ADD PUSH2 0x242 JUMP JUMPDEST POP SWAP1 JUMP JUMPDEST PUSH32 0x4E487B7100000000000000000000000000000000000000000000000000000000 PUSH0 MSTORE PUSH1 0x32 PUSH1 0x4 MSTORE PUSH1 0x24 PUSH0 REVERT JUMPDEST PUSH2 0x1EFF DUP1 PUSH2 0x296 PUSH0 CODECOPY PUSH0 RETURN INVALID PUSH1 0x80 PUSH1 0x40 MSTORE PUSH1 0x4 CALLDATASIZE LT PUSH2 0xC1 JUMPI PUSH0 CALLDATALOAD PUSH1 0xE0 SHR DUP1 PUSH4 0x96365D44 GT PUSH2 0x7E JUMPI DUP1 PUSH4 0xC7F758A8 GT PUSH2 0x58 JUMPI DUP1 PUSH4 0xC7F758A8 EQ PUSH2 0x288 JUMPI DUP1 PUSH4 0xCCA5A8B2 EQ PUSH2 0x2C9 JUMPI DUP1 PUSH4 0xD0E30DB0 EQ PUSH2 0x305 JUMPI DUP1 PUSH4 0xDA35C664 EQ PUSH2 0x30F JUMPI PUSH2 0xC1 JUMP JUMPDEST DUP1 PUSH4 0x96365D44 EQ PUSH2 0x1FA JUMPI DUP1 PUSH4 0x98951B56 EQ PUSH2 0x224 JUMPI DUP1 PUSH4 0xA230C524 EQ PUSH2 0x24C JUMPI PUSH2 0xC1 JUMP JUMPDEST DUP1 PUSH4 0x13CF08B EQ PUSH2 0xC5 JUMPI DUP1 PUSH4 0xD61B519 EQ PUSH2 0x106 JUMPI DUP1 PUSH4 0x11AEE380 EQ PUSH2 0x12E JUMPI DUP1 PUSH4 0x42CDE4E8 EQ PUSH2 0x158 JUMPI DUP1 PUSH4 0x5DAF08CA EQ PUSH2 0x182 JUMPI DUP1 PUSH4 0x85667F1C EQ PUSH2 0x1BE JUMPI JUMPDEST PUSH0 PUSH0 REVERT JUMPDEST CALLVALUE DUP1 ISZERO PUSH2 0xD0 JUMPI PUSH0 PUSH0 REVERT JUMPDEST POP PUSH2 0xEB PUSH1 0x4 DUP1 CALLDATASIZE SUB DUP2 ADD SWAP1 PUSH2 0xE6 SWAP2 SWAP1 PUSH2 0x1195 JUMP JUMPDEST PUSH2 0x339 JUMP JUMPDEST PUSH1 0x40 MLOAD PUSH2 0xFD SWAP7 SWAP6 SWAP5 SWAP4 SWAP3 SWAP2 SWAP1 PUSH2 0x12B8 JUMP JUMPDEST PUSH1 0x40 MLOAD DUP1 SWAP2 SUB SWAP1 RETURN JUMPDEST CALLVALUE DUP1 ISZERO PUSH2 0x111 JUMPI PUSH0 PUSH0 REVERT JUMPDEST POP PUSH2 0x12C PUSH1 0x4 DUP1 CALLDATASIZE SUB DUP2 ADD SWAP1 PUSH2 0x127 SWAP2 SWAP1 PUSH2 0x1195 JUMP JUMPDEST PUSH2 0x450 JUMP JUMPDEST STOP JUMPDEST CALLVALUE DUP1 ISZERO PUSH2 0x139 JUMPI PUSH0 PUSH0 REVERT JUMPDEST POP PUSH2 0x142 PUSH2 0x7FA JUMP JUMPDEST PUSH1 0x40 MLOAD PUSH2 0x14F SWAP2 SWAP1 PUSH2 0x131E JUMP JUMPDEST PUSH1 0x40 MLOAD DUP1 SWAP2 SUB SWAP1 RETURN JUMPDEST CALLVALUE DUP1 ISZERO PUSH2 0x163 JUMPI PUSH0 PUSH0 REVERT JUMPDEST POP PUSH2 0x16C PUSH2 0x806 JUMP JUMPDEST PUSH1 0x40 MLOAD PUSH2 0x179 SWAP2 SWAP1 PUSH2 0x131E JUMP JUMPDEST PUSH1 0x40 MLOAD DUP1 SWAP2 SUB SWAP1 RETURN JUMPDEST CALLVALUE DUP1 ISZERO PUSH2 0x18D JUMPI PUSH0 PUSH0 REVERT JUMPDEST POP PUSH2 0x1A8 PUSH1 0x4 DUP1 CALLDATASIZE SUB DUP2 ADD SWAP1 PUSH2 0x1A3 SWAP2 SWAP1 PUSH2 0x1195 JUMP JUMPDEST PUSH2 0x80C JUMP JUMPDEST PUSH1 0x40 MLOAD PUSH2 0x1B5 SWAP2 SWAP1 PUSH2 0x1337 JUMP JUMPDEST PUSH1 0x40 MLOAD DUP1 SWAP2 SUB SWAP1 RETURN JUMPDEST CALLVALUE DUP1 ISZERO PUSH2 0x1C9 JUMPI PUSH0 PUSH0 REVERT JUMPDEST POP PUSH2 0x1E4 PUSH1 0x4 DUP1 CALLDATASIZE SUB DUP2 ADD SWAP1 PUSH2 0x1DF SWAP2 SWAP1 PUSH2 0x137A JUMP JUMPDEST PUSH2 0x847 JUMP JUMPDEST PUSH1 0x40 MLOAD PUSH2 0x1F1 SWAP2 SWAP1 PUSH2 0x13B8 JUMP JUMPDEST PUSH1 0x40 MLOAD DUP1 SWAP2 SUB SWAP1 RETURN JUMPDEST CALLVALUE DUP1 ISZERO PUSH2 0x205 JUMPI PUSH0 PUSH0 REVERT JUMPDEST POP PUSH2 0x20E PUSH2 0x871 JUMP JUMPDEST PUSH1 0x40 MLOAD PUSH2 0x21B SWAP2 SWAP1 PUSH2 0x131E JUMP JUMPDEST PUSH1 0x40 MLOAD DUP1 SWAP2 SUB SWAP1 RETURN JUMPDEST CALLVALUE DUP1 ISZERO PUSH2 0x22F JUMPI PUSH0 PUSH0 REVERT JUMPDEST POP PUSH2 0x24A PUSH1 0x4 DUP1 CALLDATASIZE SUB DUP2 ADD SWAP1 PUSH2 0x245 SWAP2 SWAP1 PUSH2 0x1195 JUMP JUMPDEST PUSH2 0x877 JUMP JUMPDEST STOP JUMPDEST CALLVALUE DUP1 ISZERO PUSH2 0x257 JUMPI PUSH0 PUSH0 REVERT JUMPDEST POP PUSH2 0x272 PUSH1 0x4 DUP1 CALLDATASIZE SUB DUP2 ADD SWAP1 PUSH2 0x26D SWAP2 SWAP1 PUSH2 0x13D1 JUMP JUMPDEST PUSH2 0xB2A JUMP JUMPDEST PUSH1 0x40 MLOAD PUSH2 0x27F SWAP2 SWAP1 PUSH2 0x13B8 JUMP JUMPDEST PUSH1 0x40 MLOAD DUP1 SWAP2 SUB SWAP1 RETURN JUMPDEST CALLVALUE DUP1 ISZERO PUSH2 0x293 JUMPI PUSH0 PUSH0 REVERT JUMPDEST POP PUSH2 0x2AE PUSH1 0x4 DUP1 CALLDATASIZE SUB DUP2 ADD SWAP1 PUSH2 0x2A9 SWAP2 SWAP1 PUSH2 0x1195 JUMP JUMPDEST PUSH2 0xB47 JUMP JUMPDEST PUSH1 0x40 MLOAD PUSH2 0x2C0 SWAP7 SWAP6 SWAP5 SWAP4 SWAP3 SWAP2 SWAP1 PUSH2 0x13FC JUMP JUMPDEST PUSH1 0x40 MLOAD DUP1 SWAP2 SUB SWAP1 RETURN JUMPDEST CALLVALUE DUP1 ISZERO PUSH2 0x2D4 JUMPI PUSH0 PUSH0 REVERT JUMPDEST POP PUSH2 0x2EF PUSH1 0x4 DUP1 CALLDATASIZE SUB DUP2 ADD SWAP1 PUSH2 0x2EA SWAP2 SWAP1 PUSH2 0x14ED JUMP JUMPDEST PUSH2 0xC77 JUMP JUMPDEST PUSH1 0x40 MLOAD PUSH2 0x2FC SWAP2 SWAP1 PUSH2 0x131E JUMP JUMPDEST PUSH1 0x40 MLOAD DUP1 SWAP2 SUB SWAP1 RETURN JUMPDEST PUSH2 0x30D PUSH2 0x1017 JUMP JUMPDEST STOP JUMPDEST CALLVALUE DUP1 ISZERO PUSH2 0x31A JUMPI PUSH0 PUSH0 REVERT JUMPDEST POP PUSH2 0x323 PUSH2 0x114E JUMP JUMPDEST PUSH1 0x40 MLOAD PUSH2 0x330 SWAP2 SWAP1 PUSH2 0x131E JUMP JUMPDEST PUSH1 0x40 MLOAD DUP1 SWAP2 SUB SWAP1 RETURN JUMPDEST PUSH1 0x5 DUP2 DUP2 SLOAD DUP2 LT PUSH2 0x348 JUMPI PUSH0 DUP1 REVERT JUMPDEST SWAP1 PUSH0 MSTORE PUSH1 0x20 PUSH0 KECCAK256 SWAP1 PUSH1 0x6 MUL ADD PUSH0 SWAP2 POP SWAP1 POP DUP1 PUSH0 ADD PUSH0 SWAP1 SLOAD SWAP1 PUSH2 0x100 EXP SWAP1 DIV PUSH20 0xFFFFFFFFFFFFFFFFFFFFFFFFFFFFFFFFFFFFFFFF AND SWAP1 DUP1 PUSH1 0x1 ADD PUSH0 SWAP1 SLOAD SWAP1 PUSH2 0x100 EXP SWAP1 DIV PUSH20 0xFFFFFFFFFFFFFFFFFFFFFFFFFFFFFFFFFFFFFFFF AND SWAP1 DUP1 PUSH1 0x2 ADD SLOAD SWAP1 DUP1 PUSH1 0x3 ADD DUP1 SLOAD PUSH2 0x3B7 SWAP1 PUSH2 0x158B JUMP JUMPDEST DUP1 PUSH1 0x1F ADD PUSH1 0x20 DUP1 SWAP2 DIV MUL PUSH1 0x20 ADD PUSH1 0x40 MLOAD SWAP1 DUP2 ADD PUSH1 0x40 MSTORE DUP1 SWAP3 SWAP2 SWAP1 DUP2 DUP2 MSTORE PUSH1 0x20 ADD DUP3 DUP1 SLOAD PUSH2 0x3E3 SWAP1 PUSH2 0x158B JUMP JUMPDEST DUP1 ISZERO PUSH2 0x42E JUMPI DUP1 PUSH1 0x1F LT PUSH2 0x405 JUMPI PUSH2 0x100 DUP1 DUP4 SLOAD DIV MUL DUP4 MSTORE SWAP2 PUSH1 0x20 ADD SWAP2 PUSH2 0x42E JUMP JUMPDEST DUP3 ADD SWAP2 SWAP1 PUSH0 MSTORE PUSH1 0x20 PUSH0 KECCAK256 SWAP1 JUMPDEST DUP2 SLOAD DUP2 MSTORE SWAP1 PUSH1 0x1 ADD SWAP1 PUSH1 0x20 ADD DUP1 DUP4 GT PUSH2 0x411 JUMPI DUP3 SWAP1 SUB PUSH1 0x1F AND DUP3 ADD SWAP2 JUMPDEST POP POP POP POP POP SWAP1 DUP1 PUSH1 0x4 ADD SLOAD SWAP1 DUP1 PUSH1 0x5 ADD PUSH0 SWAP1 SLOAD SWAP1 PUSH2 0x100 EXP SWAP1 DIV PUSH1 0xFF AND SWAP1 POP DUP7 JUMP JUMPDEST PUSH1 0x1 PUSH0 SLOAD EQ PUSH2 0x494 JUMPI PUSH1 0x40 MLOAD PUSH32 0x8C379A000000000000000000000000000000000000000000000000000000000 DUP2 MSTORE PUSH1 0x4 ADD PUSH2 0x48B SWAP1 PUSH2 0x1605 JUMP JUMPDEST PUSH1 0x40 MLOAD DUP1 SWAP2 SUB SWAP1 REVERT JUMPDEST PUSH1 0x2 PUSH0 DUP2 SWAP1 SSTORE POP PUSH1 0x2 PUSH0 CALLER PUSH20 0xFFFFFFFFFFFFFFFFFFFFFFFFFFFFFFFFFFFFFFFF AND PUSH20 0xFFFFFFFFFFFFFFFFFFFFFFFFFFFFFFFFFFFFFFFF AND DUP2 MSTORE PUSH1 0x20 ADD SWAP1 DUP2 MSTORE PUSH1 0x20 ADD PUSH0 KECCAK256 PUSH0 SWAP1 SLOAD SWAP1 PUSH2 0x100 EXP SWAP1 DIV PUSH1 0xFF AND PUSH2 0x524 JUMPI PUSH1 0x40 MLOAD PUSH32 0x8C379A000000000000000000000000000000000000000000000000000000000 DUP2 MSTORE PUSH1 0x4 ADD PUSH2 0x51B SWAP1 PUSH2 0x166D JUMP JUMPDEST PUSH1 0x40 MLOAD DUP1 SWAP2 SUB SWAP1 REVERT JUMPDEST PUSH1 0x5 DUP1 SLOAD SWAP1 POP DUP2 LT PUSH2 0x56B JUMPI PUSH1 0x40 MLOAD PUSH32 0x8C379A000000000000000000000000000000000000000000000000000000000 DUP2 MSTORE PUSH1 0x4 ADD PUSH2 0x562 SWAP1 PUSH2 0x16D5 JUMP JUMPDEST PUSH1 0x40 MLOAD DUP1 SWAP2 SUB SWAP1 REVERT JUMPDEST PUSH0 PUSH1 0x5 DUP3 DUP2 SLOAD DUP2 LT PUSH2 0x580 JUMPI PUSH2 0x57F PUSH2 0x16F3 JUMP JUMPDEST JUMPDEST SWAP1 PUSH0 MSTORE PUSH1 0x20 PUSH0 KECCAK256 SWAP1 PUSH1 0x6 MUL ADD SWAP1 POP DUP1 PUSH1 0x5 ADD PUSH0 SWAP1 SLOAD SWAP1 PUSH2 0x100 EXP SWAP1 DIV PUSH1 0xFF AND ISZERO PUSH2 0x5DF JUMPI PUSH1 0x40 MLOAD PUSH32 0x8C379A000000000000000000000000000000000000000000000000000000000 DUP2 MSTORE PUSH1 0x4 ADD PUSH2 0x5D6 SWAP1 PUSH2 0x176A JUMP JUMPDEST PUSH1 0x40 MLOAD DUP1 SWAP2 SUB SWAP1 REVERT JUMPDEST PUSH1 0x3 SLOAD DUP2 PUSH1 0x4 ADD SLOAD LT ISZERO PUSH2 0x628 JUMPI PUSH1 0x40 MLOAD PUSH32 0x8C379A000000000000000000000000000000000000000000000000000000000 DUP2 MSTORE PUSH1 0x4 ADD PUSH2 0x61F SWAP1 PUSH2 0x17D2 JUMP JUMPDEST PUSH1 0x40 MLOAD DUP1 SWAP2 SUB SWAP1 REVERT JUMPDEST PUSH1 0x4 SLOAD DUP2 PUSH1 0x2 ADD SLOAD GT ISZERO PUSH2 0x671 JUMPI PUSH1 0x40 MLOAD PUSH32 0x8C379A000000000000000000000000000000000000000000000000000000000 DUP2 MSTORE PUSH1 0x4 ADD PUSH2 0x668 SWAP1 PUSH2 0x183A JUMP JUMPDEST PUSH1 0x40 MLOAD DUP1 SWAP2 SUB SWAP1 REVERT JUMPDEST PUSH1 0x1 DUP2 PUSH1 0x5 ADD PUSH0 PUSH2 0x100 EXP DUP2 SLOAD DUP2 PUSH1 0xFF MUL NOT AND SWAP1 DUP4 ISZERO ISZERO MUL OR SWAP1 SSTORE POP DUP1 PUSH1 0x2 ADD SLOAD PUSH1 0x4 PUSH0 DUP3 DUP3 SLOAD PUSH2 0x6A2 SWAP2 SWAP1 PUSH2 0x1885 JUMP JUMPDEST SWAP3 POP POP DUP2 SWAP1 SSTORE POP PUSH0 DUP2 PUSH1 0x1 ADD PUSH0 SWAP1 SLOAD SWAP1 PUSH2 0x100 EXP SWAP1 DIV PUSH20 0xFFFFFFFFFFFFFFFFFFFFFFFFFFFFFFFFFFFFFFFF AND PUSH20 0xFFFFFFFFFFFFFFFFFFFFFFFFFFFFFFFFFFFFFFFF AND DUP3 PUSH1 0x2 ADD SLOAD PUSH1 0x40 MLOAD PUSH2 0x6F5 SWAP1 PUSH2 0x18E5 JUMP JUMPDEST PUSH0 PUSH1 0x40 MLOAD DUP1 DUP4 SUB DUP2 DUP6 DUP8 GAS CALL SWAP3 POP POP POP RETURNDATASIZE DUP1 PUSH0 DUP2 EQ PUSH2 0x72F JUMPI PUSH1 0x40 MLOAD SWAP2 POP PUSH1 0x1F NOT PUSH1 0x3F RETURNDATASIZE ADD AND DUP3 ADD PUSH1 0x40 MSTORE RETURNDATASIZE DUP3 MSTORE RETURNDATASIZE PUSH0 PUSH1 0x20 DUP5 ADD RETURNDATACOPY PUSH2 0x734 JUMP JUMPDEST PUSH1 0x60 SWAP2 POP JUMPDEST POP POP SWAP1 POP DUP1 PUSH2 0x778 JUMPI PUSH1 0x40 MLOAD PUSH32 0x8C379A000000000000000000000000000000000000000000000000000000000 DUP2 MSTORE PUSH1 0x4 ADD PUSH2 0x76F SWAP1 PUSH2 0x1943 JUMP JUMPDEST PUSH1 0x40 MLOAD DUP1 SWAP2 SUB SWAP1 REVERT JUMPDEST DUP2 PUSH1 0x1 ADD PUSH0 SWAP1 SLOAD SWAP1 PUSH2 0x100 EXP SWAP1 DIV PUSH20 0xFFFFFFFFFFFFFFFFFFFFFFFFFFFFFFFFFFFFFFFF AND PUSH20 0xFFFFFFFFFFFFFFFFFFFFFFFFFFFFFFFFFFFFFFFF AND DUP4 PUSH32 0x12C8907D32B752D626A36CF18F31719E25F1A3B6F750EE948C22C036373D48AA DUP5 PUSH1 0x2 ADD SLOAD PUSH1 0x40 MLOAD PUSH2 0x7E6 SWAP2 SWAP1 PUSH2 0x131E JUMP JUMPDEST PUSH1 0x40 MLOAD DUP1 SWAP2 SUB SWAP1 LOG3 POP POP PUSH1 0x1 PUSH0 DUP2 SWAP1 SSTORE POP POP JUMP JUMPDEST PUSH0 PUSH1 0x1 DUP1 SLOAD SWAP1 POP SWAP1 POP SWAP1 JUMP JUMPDEST PUSH1 0x3 SLOAD DUP2 JUMP JUMPDEST PUSH1 0x1 DUP2 DUP2 SLOAD DUP2 LT PUSH2 0x81B JUMPI PUSH0 DUP1 REVERT JUMPDEST SWAP1 PUSH0 MSTORE PUSH1 0x20 PUSH0 KECCAK256 ADD PUSH0 SWAP2 POP SLOAD SWAP1 PUSH2 0x100 EXP SWAP1 DIV PUSH20 0xFFFFFFFFFFFFFFFFFFFFFFFFFFFFFFFFFFFFFFFF AND DUP2 JUMP JUMPDEST PUSH1 0x6 PUSH1 0x20 MSTORE DUP2 PUSH0 MSTORE PUSH1 0x40 PUSH0 KECCAK256 PUSH1 0x20 MSTORE DUP1 PUSH0 MSTORE PUSH1 0x40 PUSH0 KECCAK256 PUSH0 SWAP2 POP SWAP2 POP SWAP1 SLOAD SWAP1 PUSH2 0x100 EXP SWAP1 DIV PUSH1 0xFF AND DUP2 JUMP JUMPDEST PUSH1 0x4 SLOAD DUP2 JUMP JUMPDEST PUSH1 0x2 PUSH0 CALLER PUSH20 0xFFFFFFFFFFFFFFFFFFFFFFFFFFFFFFFFFFFFFFFF AND PUSH20 0xFFFFFFFFFFFFFFFFFFFFFFFFFFFFFFFFFFFFFFFF AND DUP2 MSTORE PUSH1 0x20 ADD SWAP1 DUP2 MSTORE PUSH1 0x20 ADD PUSH0 KECCAK256 PUSH0 SWAP1 SLOAD SWAP1 PUSH2 0x100 EXP SWAP1 DIV PUSH1 0xFF AND PUSH2 0x900 JUMPI PUSH1 0x40 MLOAD PUSH32 0x8C379A000000000000000000000000000000000000000000000000000000000 DUP2 MSTORE PUSH1 0x4 ADD PUSH2 0x8F7 SWAP1 PUSH2 0x166D JUMP JUMPDEST PUSH1 0x40 MLOAD DUP1 SWAP2 SUB SWAP1 REVERT JUMPDEST PUSH1 0x5 DUP1 SLOAD SWAP1 POP DUP2 LT PUSH2 0x947 JUMPI PUSH1 0x40 MLOAD PUSH32 0x8C379A000000000000000000000000000000000000000000000000000000000 DUP2 MSTORE PUSH1 0x4 ADD PUSH2 0x93E SWAP1 PUSH2 0x16D5 JUMP JUMPDEST PUSH1 0x40 MLOAD DUP1 SWAP2 SUB SWAP1 REVERT JUMPDEST PUSH0 PUSH1 0x5 DUP3 DUP2 SLOAD DUP2 LT PUSH2 0x95C JUMPI PUSH2 0x95B PUSH2 0x16F3 JUMP JUMPDEST JUMPDEST SWAP1 PUSH0 MSTORE PUSH1 0x20 PUSH0 KECCAK256 SWAP1 PUSH1 0x6 MUL ADD SWAP1 POP DUP1 PUSH1 0x5 ADD PUSH0 SWAP1 SLOAD SWAP1 PUSH2 0x100 EXP SWAP1 DIV PUSH1 0xFF AND ISZERO PUSH2 0x9BB JUMPI PUSH1 0x40 MLOAD PUSH32 0x8C379A000000000000000000000000000000000000000000000000000000000 DUP2 MSTORE PUSH1 0x4 ADD PUSH2 0x9B2 SWAP1 PUSH2 0x176A JUMP JUMPDEST PUSH1 0x40 MLOAD DUP1 SWAP2 SUB SWAP1 REVERT JUMPDEST PUSH1 0x6 PUSH0 DUP4 DUP2 MSTORE PUSH1 0x20 ADD SWAP1 DUP2 MSTORE PUSH1 0x20 ADD PUSH0 KECCAK256 PUSH0 CALLER PUSH20 0xFFFFFFFFFFFFFFFFFFFFFFFFFFFFFFFFFFFFFFFF AND PUSH20 0xFFFFFFFFFFFFFFFFFFFFFFFFFFFFFFFFFFFFFFFF AND DUP2 MSTORE PUSH1 0x20 ADD SWAP1 DUP2 MSTORE PUSH1 0x20 ADD PUSH0 KECCAK256 PUSH0 SWAP1 SLOAD SWAP1 PUSH2 0x100 EXP SWAP1 DIV PUSH1 0xFF AND ISZERO PUSH2 0xA54 JUMPI PUSH1 0x40 MLOAD PUSH32 0x8C379A000000000000000000000000000000000000000000000000000000000 DUP2 MSTORE PUSH1 0x4 ADD PUSH2 0xA4B SWAP1 PUSH2 0x19AB JUMP JUMPDEST PUSH1 0x40 MLOAD DUP1 SWAP2 SUB SWAP1 REVERT JUMPDEST PUSH1 0x1 PUSH1 0x6 PUSH0 DUP5 DUP2 MSTORE PUSH1 0x20 ADD SWAP1 DUP2 MSTORE PUSH1 0x20 ADD PUSH0 KECCAK256 PUSH0 CALLER PUSH20 0xFFFFFFFFFFFFFFFFFFFFFFFFFFFFFFFFFFFFFFFF AND PUSH20 0xFFFFFFFFFFFFFFFFFFFFFFFFFFFFFFFFFFFFFFFF AND DUP2 MSTORE PUSH1 0x20 ADD SWAP1 DUP2 MSTORE PUSH1 0x20 ADD PUSH0 KECCAK256 PUSH0 PUSH2 0x100 EXP DUP2 SLOAD DUP2 PUSH1 0xFF MUL NOT AND SWAP1 DUP4 ISZERO ISZERO MUL OR SWAP1 SSTORE POP PUSH1 0x1 DUP2 PUSH1 0x4 ADD PUSH0 DUP3 DUP3 SLOAD PUSH2 0xACC SWAP2 SWAP1 PUSH2 0x19C9 JUMP JUMPDEST SWAP3 POP POP DUP2 SWAP1 SSTORE POP CALLER PUSH20 0xFFFFFFFFFFFFFFFFFFFFFFFFFFFFFFFFFFFFFFFF AND DUP3 PUSH32 0x7060996319A743911FA38FCB4F926382972B1BCD6ABEEA1BD65ADEB620D5DFDF DUP4 PUSH1 0x4 ADD SLOAD PUSH1 0x40 MLOAD PUSH2 0xB1E SWAP2 SWAP1 PUSH2 0x131E JUMP JUMPDEST PUSH1 0x40 MLOAD DUP1 SWAP2 SUB SWAP1 LOG3 POP POP JUMP JUMPDEST PUSH1 0x2 PUSH1 0x20 MSTORE DUP1 PUSH0 MSTORE PUSH1 0x40 PUSH0 KECCAK256 PUSH0 SWAP2 POP SLOAD SWAP1 PUSH2 0x100 EXP SWAP1 DIV PUSH1 0xFF AND DUP2 JUMP JUMPDEST PUSH0 PUSH0 PUSH0 PUSH1 0x60 PUSH0 PUSH0 PUSH0 PUSH1 0x5 DUP9 DUP2 SLOAD DUP2 LT PUSH2 0xB63 JUMPI PUSH2 0xB62 PUSH2 0x16F3 JUMP JUMPDEST JUMPDEST SWAP1 PUSH0 MSTORE PUSH1 0x20 PUSH0 KECCAK256 SWAP1 PUSH1 0x6 MUL ADD SWAP1 POP DUP1 PUSH0 ADD PUSH0 SWAP1 SLOAD SWAP1 PUSH2 0x100 EXP SWAP1 DIV PUSH20 0xFFFFFFFFFFFFFFFFFFFFFFFFFFFFFFFFFFFFFFFF AND DUP2 PUSH1 0x1 ADD PUSH0 SWAP1 SLOAD SWAP1 PUSH2 0x100 EXP SWAP1 DIV PUSH20 0xFFFFFFFFFFFFFFFFFFFFFFFFFFFFFFFFFFFFFFFF AND DUP3 PUSH1 0x2 ADD SLOAD DUP4 PUSH1 0x3 ADD DUP5 PUSH1 0x4 ADD SLOAD DUP6 PUSH1 0x5 ADD PUSH0 SWAP1 SLOAD SWAP1 PUSH2 0x100 EXP SWAP1 DIV PUSH1 0xFF AND DUP3 DUP1 SLOAD PUSH2 0xBE3 SWAP1 PUSH2 0x158B JUMP JUMPDEST DUP1 PUSH1 0x1F ADD PUSH1 0x20 DUP1 SWAP2 DIV MUL PUSH1 0x20 ADD PUSH1 0x40 MLOAD SWAP1 DUP2 ADD PUSH1 0x40 MSTORE DUP1 SWAP3 SWAP2 SWAP1 DUP2 DUP2 MSTORE PUSH1 0x20 ADD DUP3 DUP1 SLOAD PUSH2 0xC0F SWAP1 PUSH2 0x158B JUMP JUMPDEST DUP1 ISZERO PUSH2 0xC5A JUMPI DUP1 PUSH1 0x1F LT PUSH2 0xC31 JUMPI PUSH2 0x100 DUP1 DUP4 SLOAD DIV MUL DUP4 MSTORE SWAP2 PUSH1 0x20 ADD SWAP2 PUSH2 0xC5A JUMP JUMPDEST DUP3 ADD SWAP2 SWAP1 PUSH0 MSTORE PUSH1 0x20 PUSH0 KECCAK256 SWAP1 JUMPDEST DUP2 SLOAD DUP2 MSTORE SWAP1 PUSH1 0x1 ADD SWAP1 PUSH1 0x20 ADD DUP1 DUP4 GT PUSH2 0xC3D JUMPI DUP3 SWAP1 SUB PUSH1 0x1F AND DUP3 ADD SWAP2 JUMPDEST POP POP POP POP POP SWAP3 POP SWAP7 POP SWAP7 POP SWAP7 POP SWAP7 POP SWAP7 POP SWAP7 POP POP SWAP2 SWAP4 SWAP6 POP SWAP2 SWAP4 SWAP6 JUMP JUMPDEST PUSH0 PUSH1 0x2 PUSH0 CALLER PUSH20 0xFFFFFFFFFFFFFFFFFFFFFFFFFFFFFFFFFFFFFFFF AND PUSH20 0xFFFFFFFFFFFFFFFFFFFFFFFFFFFFFFFFFFFFFFFF AND DUP2 MSTORE PUSH1 0x20 ADD SWAP1 DUP2 MSTORE PUSH1 0x20 ADD PUSH0 KECCAK256 PUSH0 SWAP1 SLOAD SWAP1 PUSH2 0x100 EXP SWAP1 DIV PUSH1 0xFF AND PUSH2 0xD01 JUMPI PUSH1 0x40 MLOAD PUSH32 0x8C379A000000000000000000000000000000000000000000000000000000000 DUP2 MSTORE PUSH1 0x4 ADD PUSH2 0xCF8 SWAP1 PUSH2 0x166D JUMP JUMPDEST PUSH1 0x40 MLOAD DUP1 SWAP2 SUB SWAP1 REVERT JUMPDEST PUSH0 PUSH20 0xFFFFFFFFFFFFFFFFFFFFFFFFFFFFFFFFFFFFFFFF AND DUP6 PUSH20 0xFFFFFFFFFFFFFFFFFFFFFFFFFFFFFFFFFFFFFFFF AND SUB PUSH2 0xD6F JUMPI PUSH1 0x40 MLOAD PUSH32 0x8C379A000000000000000000000000000000000000000000000000000000000 DUP2 MSTORE PUSH1 0x4 ADD PUSH2 0xD66 SWAP1 PUSH2 0x1A46 JUMP JUMPDEST PUSH1 0x40 MLOAD DUP1 SWAP2 SUB SWAP1 REVERT JUMPDEST PUSH0 DUP5 GT PUSH2 0xDB1 JUMPI PUSH1 0x40 MLOAD PUSH32 0x8C379A000000000000000000000000000000000000000000000000000000000 DUP2 MSTORE PUSH1 0x4 ADD PUSH2 0xDA8 SWAP1 PUSH2 0x1AAE JUMP JUMPDEST PUSH1 0x40 MLOAD DUP1 SWAP2 SUB SWAP1 REVERT JUMPDEST PUSH1 0x4 SLOAD DUP5 GT ISZERO PUSH2 0xDF6 JUMPI PUSH1 0x40 MLOAD PUSH32 0x8C379A000000000000000000000000000000000000000000000000000000000 DUP2 MSTORE PUSH1 0x4 ADD PUSH2 0xDED SWAP1 PUSH2 0x1B16 JUMP JUMPDEST PUSH1 0x40 MLOAD DUP1 SWAP2 SUB SWAP1 REVERT JUMPDEST PUSH1 0x5 PUSH1 0x40 MLOAD DUP1 PUSH1 0xC0 ADD PUSH1 0x40 MSTORE DUP1 CALLER PUSH20 0xFFFFFFFFFFFFFFFFFFFFFFFFFFFFFFFFFFFFFFFF AND DUP2 MSTORE PUSH1 0x20 ADD DUP8 PUSH20 0xFFFFFFFFFFFFFFFFFFFFFFFFFFFFFFFFFFFFFFFF AND DUP2 MSTORE PUSH1 0x20 ADD DUP7 DUP2 MSTORE PUSH1 0x20 ADD DUP6 DUP6 DUP1 DUP1 PUSH1 0x1F ADD PUSH1 0x20 DUP1 SWAP2 DIV MUL PUSH1 0x20 ADD PUSH1 0x40 MLOAD SWAP1 DUP2 ADD PUSH1 0x40 MSTORE DUP1 SWAP4 SWAP3 SWAP2 SWAP1 DUP2 DUP2 MSTORE PUSH1 0x20 ADD DUP4 DUP4 DUP1 DUP3 DUP5 CALLDATACOPY PUSH0 DUP2 DUP5 ADD MSTORE PUSH1 0x1F NOT PUSH1 0x1F DUP3 ADD AND SWAP1 POP DUP1 DUP4 ADD SWAP3 POP POP POP POP POP POP POP DUP2 MSTORE PUSH1 0x20 ADD PUSH0 DUP2 MSTORE PUSH1 0x20 ADD PUSH0 ISZERO ISZERO DUP2 MSTORE POP SWAP1 DUP1 PUSH1 0x1 DUP2 SLOAD ADD DUP1 DUP3 SSTORE DUP1 SWAP2 POP POP PUSH1 0x1 SWAP1 SUB SWAP1 PUSH0 MSTORE PUSH1 0x20 PUSH0 KECCAK256 SWAP1 PUSH1 0x6 MUL ADD PUSH0 SWAP1 SWAP2 SWAP1 SWAP2 SWAP1 SWAP2 POP PUSH0 DUP3 ADD MLOAD DUP2 PUSH0 ADD PUSH0 PUSH2 0x100 EXP DUP2 SLOAD DUP2 PUSH20 0xFFFFFFFFFFFFFFFFFFFFFFFFFFFFFFFFFFFFFFFF MUL NOT AND SWAP1 DUP4 PUSH20 0xFFFFFFFFFFFFFFFFFFFFFFFFFFFFFFFFFFFFFFFF AND MUL OR SWAP1 SSTORE POP PUSH1 0x20 DUP3 ADD MLOAD DUP2 PUSH1 0x1 ADD PUSH0 PUSH2 0x100 EXP DUP2 SLOAD DUP2 PUSH20 0xFFFFFFFFFFFFFFFFFFFFFFFFFFFFFFFFFFFFFFFF MUL NOT AND SWAP1 DUP4 PUSH20 0xFFFFFFFFFFFFFFFFFFFFFFFFFFFFFFFFFFFFFFFF AND MUL OR SWAP1 SSTORE POP PUSH1 0x40 DUP3 ADD MLOAD DUP2 PUSH1 0x2 ADD SSTORE PUSH1 0x60 DUP3 ADD MLOAD DUP2 PUSH1 0x3 ADD SWAP1 DUP2 PUSH2 0xF65 SWAP2 SWAP1 PUSH2 0x1D01 JUMP JUMPDEST POP PUSH1 0x80 DUP3 ADD MLOAD DUP2 PUSH1 0x4 ADD SSTORE PUSH1 0xA0 DUP3 ADD MLOAD DUP2 PUSH1 0x5 ADD PUSH0 PUSH2 0x100 EXP DUP2 SLOAD DUP2 PUSH1 0xFF MUL NOT AND SWAP1 DUP4 ISZERO ISZERO MUL OR SWAP1 SSTORE POP POP POP PUSH1 0x1 PUSH1 0x5 DUP1 SLOAD SWAP1 POP PUSH2 0xFA3 SWAP2 SWAP1 PUSH2 0x1885 JUMP JUMPDEST SWAP1 POP DUP5 PUSH20 0xFFFFFFFFFFFFFFFFFFFFFFFFFFFFFFFFFFFFFFFF AND CALLER PUSH20 0xFFFFFFFFFFFFFFFFFFFFFFFFFFFFFFFFFFFFFFFF AND DUP3 PUSH32 0x51820485866A12445A1D315205E4D28921833B1ED028AED01A8C0C26FA068D70 DUP8 DUP8 DUP8 PUSH1 0x40 MLOAD PUSH2 0x1007 SWAP4 SWAP3 SWAP2 SWAP1 PUSH2 0x1E0A JUMP JUMPDEST PUSH1 0x40 MLOAD DUP1 SWAP2 SUB SWAP1 LOG4 SWAP5 SWAP4 POP POP POP POP JUMP JUMPDEST PUSH1 0x2 PUSH0 CALLER PUSH20 0xFFFFFFFFFFFFFFFFFFFFFFFFFFFFFFFFFFFFFFFF AND PUSH20 0xFFFFFFFFFFFFFFFFFFFFFFFFFFFFFFFFFFFFFFFF AND DUP2 MSTORE PUSH1 0x20 ADD SWAP1 DUP2 MSTORE PUSH1 0x20 ADD PUSH0 KECCAK256 PUSH0 SWAP1 SLOAD SWAP1 PUSH2 0x100 EXP SWAP1 DIV PUSH1 0xFF AND PUSH2 0x10A0 JUMPI PUSH1 0x40 MLOAD PUSH32 0x8C379A000000000000000000000000000000000000000000000000000000000 DUP2 MSTORE PUSH1 0x4 ADD PUSH2 0x1097 SWAP1 PUSH2 0x166D JUMP JUMPDEST PUSH1 0x40 MLOAD DUP1 SWAP2 SUB SWAP1 REVERT JUMPDEST PUSH0 CALLVALUE GT PUSH2 0x10E2 JUMPI PUSH1 0x40 MLOAD PUSH32 0x8C379A000000000000000000000000000000000000000000000000000000000 DUP2 MSTORE PUSH1 0x4 ADD PUSH2 0x10D9 SWAP1 PUSH2 0x1E84 JUMP JUMPDEST PUSH1 0x40 MLOAD DUP1 SWAP2 SUB SWAP1 REVERT JUMPDEST CALLVALUE PUSH1 0x4 PUSH0 DUP3 DUP3 SLOAD PUSH2 0x10F3 SWAP2 SWAP1 PUSH2 0x19C9 JUMP JUMPDEST SWAP3 POP POP DUP2 SWAP1 SSTORE POP CALLER PUSH20 0xFFFFFFFFFFFFFFFFFFFFFFFFFFFFFFFFFFFFFFFF AND PUSH32 0x73A19DD210F1A7F902193214C0EE91DD35EE5B4D920CBA8D519ECA65A7B488CA CALLVALUE PUSH1 0x4 SLOAD PUSH1 0x40 MLOAD PUSH2 0x1144 SWAP3 SWAP2 SWAP1 PUSH2 0x1EA2 JUMP JUMPDEST PUSH1 0x40 MLOAD DUP1 SWAP2 SUB SWAP1 LOG2 JUMP JUMPDEST PUSH0 PUSH1 0x5 DUP1 SLOAD SWAP1 POP SWAP1 POP SWAP1 JUMP JUMPDEST PUSH0 PUSH0 REVERT JUMPDEST PUSH0 PUSH0 REVERT JUMPDEST PUSH0 DUP2 SWAP1 POP SWAP2 SWAP1 POP JUMP JUMPDEST PUSH2 0x1174 DUP2 PUSH2 0x1162 JUMP JUMPDEST DUP2 EQ PUSH2 0x117E JUMPI PUSH0 PUSH0 REVERT JUMPDEST POP JUMP JUMPDEST PUSH0 DUP2 CALLDATALOAD SWAP1 POP PUSH2 0x118F DUP2 PUSH2 0x116B JUMP JUMPDEST SWAP3 SWAP2 POP POP JUMP JUMPDEST PUSH0 PUSH1 0x20 DUP3 DUP5 SUB SLT ISZERO PUSH2 0x11AA JUMPI PUSH2 0x11A9 PUSH2 0x115A JUMP JUMPDEST JUMPDEST PUSH0 PUSH2 0x11B7 DUP5 DUP3 DUP6 ADD PUSH2 0x1181 JUMP JUMPDEST SWAP2 POP POP SWAP3 SWAP2 POP POP JUMP JUMPDEST PUSH0 PUSH20 0xFFFFFFFFFFFFFFFFFFFFFFFFFFFFFFFFFFFFFFFF DUP3 AND SWAP1 POP SWAP2 SWAP1 POP JUMP JUMPDEST PUSH0 PUSH2 0x11E9 DUP3 PUSH2 0x11C0 JUMP JUMPDEST SWAP1 POP SWAP2 SWAP1 POP JUMP JUMPDEST PUSH2 0x11F9 DUP2 PUSH2 0x11DF JUMP JUMPDEST DUP3 MSTORE POP POP JUMP JUMPDEST PUSH0 PUSH2 0x1209 DUP3 PUSH2 0x11C0 JUMP JUMPDEST SWAP1 POP SWAP2 SWAP1 POP JUMP JUMPDEST PUSH2 0x1219 DUP2 PUSH2 0x11FF JUMP JUMPDEST DUP3 MSTORE POP POP JUMP JUMPDEST PUSH2 0x1228 DUP2 PUSH2 0x1162 JUMP JUMPDEST DUP3 MSTORE POP POP JUMP JUMPDEST PUSH0 DUP2 MLOAD SWAP1 POP SWAP2 SWAP1 POP JUMP JUMPDEST PUSH0 DUP3 DUP3 MSTORE PUSH1 0x20 DUP3 ADD SWAP1 POP SWAP3 SWAP2 POP POP JUMP JUMPDEST DUP3 DUP2 DUP4 MCOPY PUSH0 DUP4 DUP4 ADD MSTORE POP POP POP JUMP JUMPDEST PUSH0 PUSH1 0x1F NOT PUSH1 0x1F DUP4 ADD AND SWAP1 POP SWAP2 SWAP1 POP JUMP JUMPDEST PUSH0 PUSH2 0x1270 DUP3 PUSH2 0x122E JUMP JUMPDEST PUSH2 0x127A DUP2 DUP6 PUSH2 0x1238 JUMP JUMPDEST SWAP4 POP PUSH2 0x128A DUP2 DUP6 PUSH1 0x20 DUP7 ADD PUSH2 0x1248 JUMP JUMPDEST PUSH2 0x1293 DUP2 PUSH2 0x1256 JUMP JUMPDEST DUP5 ADD SWAP2 POP POP SWAP3 SWAP2 POP POP JUMP JUMPDEST PUSH0 DUP2 ISZERO ISZERO SWAP1 POP SWAP2 SWAP1 POP JUMP JUMPDEST PUSH2 0x12B2 DUP2 PUSH2 0x129E JUMP JUMPDEST DUP3 MSTORE POP POP JUMP JUMPDEST PUSH0 PUSH1 0xC0 DUP3 ADD SWAP1 POP PUSH2 0x12CB PUSH0 DUP4 ADD DUP10 PUSH2 0x11F0 JUMP JUMPDEST PUSH2 0x12D8 PUSH1 0x20 DUP4 ADD DUP9 PUSH2 0x1210 JUMP JUMPDEST PUSH2 0x12E5 PUSH1 0x40 DUP4 ADD DUP8 PUSH2 0x121F JUMP JUMPDEST DUP2 DUP2 SUB PUSH1 0x60 DUP4 ADD MSTORE PUSH2 0x12F7 DUP2 DUP7 PUSH2 0x1266 JUMP JUMPDEST SWAP1 POP PUSH2 0x1306 PUSH1 0x80 DUP4 ADD DUP6 PUSH2 0x121F JUMP JUMPDEST PUSH2 0x1313 PUSH1 0xA0 DUP4 ADD DUP5 PUSH2 0x12A9 JUMP JUMPDEST SWAP8 SWAP7 POP POP POP POP POP POP POP JUMP JUMPDEST PUSH0 PUSH1 0x20 DUP3 ADD SWAP1 POP PUSH2 0x1331 PUSH0 DUP4 ADD DUP5 PUSH2 0x121F JUMP JUMPDEST SWAP3 SWAP2 POP POP JUMP JUMPDEST PUSH0 PUSH1 0x20 DUP3 ADD SWAP1 POP PUSH2 0x134A PUSH0 DUP4 ADD DUP5 PUSH2 0x11F0 JUMP JUMPDEST SWAP3 SWAP2 POP POP JUMP JUMPDEST PUSH2 0x1359 DUP2 PUSH2 0x11DF JUMP JUMPDEST DUP2 EQ PUSH2 0x1363 JUMPI PUSH0 PUSH0 REVERT JUMPDEST POP JUMP JUMPDEST PUSH0 DUP2 CALLDATALOAD SWAP1 POP PUSH2 0x1374 DUP2 PUSH2 0x1350 JUMP JUMPDEST SWAP3 SWAP2 POP POP JUMP JUMPDEST PUSH0 PUSH0 PUSH1 0x40 DUP4 DUP6 SUB SLT ISZERO PUSH2 0x1390 JUMPI PUSH2 0x138F PUSH2 0x115A JUMP JUMPDEST JUMPDEST PUSH0 PUSH2 0x139D DUP6 DUP3 DUP7 ADD PUSH2 0x1181 JUMP JUMPDEST SWAP3 POP POP PUSH1 0x20 PUSH2 0x13AE DUP6 DUP3 DUP7 ADD PUSH2 0x1366 JUMP JUMPDEST SWAP2 POP POP SWAP3 POP SWAP3 SWAP1 POP JUMP JUMPDEST PUSH0 PUSH1 0x20 DUP3 ADD SWAP1 POP PUSH2 0x13CB PUSH0 DUP4 ADD DUP5 PUSH2 0x12A9 JUMP JUMPDEST SWAP3 SWAP2 POP POP JUMP JUMPDEST PUSH0 PUSH1 0x20 DUP3 DUP5 SUB SLT ISZERO PUSH2 0x13E6 JUMPI PUSH2 0x13E5 PUSH2 0x115A JUMP JUMPDEST JUMPDEST PUSH0 PUSH2 0x13F3 DUP5 DUP3 DUP6 ADD PUSH2 0x1366 JUMP JUMPDEST SWAP2 POP POP SWAP3 SWAP2 POP POP JUMP JUMPDEST PUSH0 PUSH1 0xC0 DUP3 ADD SWAP1 POP PUSH2 0x140F PUSH0 DUP4 ADD DUP10 PUSH2 0x11F0 JUMP JUMPDEST PUSH2 0x141C PUSH1 0x20 DUP4 ADD DUP9 PUSH2 0x11F0 JUMP JUMPDEST PUSH2 0x1429 PUSH1 0x40 DUP4 ADD DUP8 PUSH2 0x121F JUMP JUMPDEST DUP2 DUP2 SUB PUSH1 0x60 DUP4 ADD MSTORE PUSH2 0x143B DUP2 DUP7 PUSH2 0x1266 JUMP JUMPDEST SWAP1 POP PUSH2 0x144A PUSH1 0x80 DUP4 ADD DUP6 PUSH2 0x121F JUMP JUMPDEST PUSH2 0x1457 PUSH1 0xA0 DUP4 ADD DUP5 PUSH2 0x12A9 JUMP JUMPDEST SWAP8 SWAP7 POP POP POP POP POP POP POP JUMP JUMPDEST PUSH2 0x146B DUP2 PUSH2 0x11FF JUMP JUMPDEST DUP2 EQ PUSH2 0x1475 JUMPI PUSH0 PUSH0 REVERT JUMPDEST POP JUMP JUMPDEST PUSH0 DUP2 CALLDATALOAD SWAP1 POP PUSH2 0x1486 DUP2 PUSH2 0x1462 JUMP JUMPDEST SWAP3 SWAP2 POP POP JUMP JUMPDEST PUSH0 PUSH0 REVERT JUMPDEST PUSH0 PUSH0 REVERT JUMPDEST PUSH0 PUSH0 REVERT JUMPDEST PUSH0 PUSH0 DUP4 PUSH1 0x1F DUP5 ADD SLT PUSH2 0x14AD JUMPI PUSH2 0x14AC PUSH2 0x148C JUMP JUMPDEST JUMPDEST DUP3 CALLDATALOAD SWAP1 POP PUSH8 0xFFFFFFFFFFFFFFFF DUP2 GT ISZERO PUSH2 0x14CA JUMPI PUSH2 0x14C9 PUSH2 0x1490 JUMP JUMPDEST JUMPDEST PUSH1 0x20 DUP4 ADD SWAP2 POP DUP4 PUSH1 0x1 DUP3 MUL DUP4 ADD GT ISZERO PUSH2 0x14E6 JUMPI PUSH2 0x14E5 PUSH2 0x1494 JUMP JUMPDEST JUMPDEST SWAP3 POP SWAP3 SWAP1 POP JUMP JUMPDEST PUSH0 PUSH0 PUSH0 PUSH0 PUSH1 0x60 DUP6 DUP8 SUB SLT ISZERO PUSH2 0x1505 JUMPI PUSH2 0x1504 PUSH2 0x115A JUMP JUMPDEST JUMPDEST PUSH0 PUSH2 0x1512 DUP8 DUP3 DUP9 ADD PUSH2 0x1478 JUMP JUMPDEST SWAP5 POP POP PUSH1 0x20 PUSH2 0x1523 DUP8 DUP3 DUP9 ADD PUSH2 0x1181 JUMP JUMPDEST SWAP4 POP POP PUSH1 0x40 DUP6 ADD CALLDATALOAD PUSH8 0xFFFFFFFFFFFFFFFF DUP2 GT ISZERO PUSH2 0x1544 JUMPI PUSH2 0x1543 PUSH2 0x115E JUMP JUMPDEST JUMPDEST PUSH2 0x1550 DUP8 DUP3 DUP9 ADD PUSH2 0x1498 JUMP JUMPDEST SWAP3 POP SWAP3 POP POP SWAP3 SWAP6 SWAP2 SWAP5 POP SWAP3 POP JUMP JUMPDEST PUSH32 0x4E487B7100000000000000000000000000000000000000000000000000000000 PUSH0 MSTORE PUSH1 0x22 PUSH1 0x4 MSTORE PUSH1 0x24 PUSH0 REVERT JUMPDEST PUSH0 PUSH1 0x2 DUP3 DIV SWAP1 POP PUSH1 0x1 DUP3 AND DUP1 PUSH2 0x15A2 JUMPI PUSH1 0x7F DUP3 AND SWAP2 POP JUMPDEST PUSH1 0x20 DUP3 LT DUP2 SUB PUSH2 0x15B5 JUMPI PUSH2 0x15B4 PUSH2 0x155E JUMP JUMPDEST JUMPDEST POP SWAP2 SWAP1 POP JUMP JUMPDEST PUSH32 0x5265656E7472616E637900000000000000000000000000000000000000000000 PUSH0 DUP3 ADD MSTORE POP JUMP JUMPDEST PUSH0 PUSH2 0x15EF PUSH1 0xA DUP4 PUSH2 0x1238 JUMP JUMPDEST SWAP2 POP PUSH2 0x15FA DUP3 PUSH2 0x15BB JUMP JUMPDEST PUSH1 0x20 DUP3 ADD SWAP1 POP SWAP2 SWAP1 POP JUMP JUMPDEST PUSH0 PUSH1 0x20 DUP3 ADD SWAP1 POP DUP2 DUP2 SUB PUSH0 DUP4 ADD MSTORE PUSH2 0x161C DUP2 PUSH2 0x15E3 JUMP JUMPDEST SWAP1 POP SWAP2 SWAP1 POP JUMP JUMPDEST PUSH32 0x4E6F742061206D656D6265720000000000000000000000000000000000000000 PUSH0 DUP3 ADD MSTORE POP JUMP JUMPDEST PUSH0 PUSH2 0x1657 PUSH1 0xC DUP4 PUSH2 0x1238 JUMP JUMPDEST SWAP2 POP PUSH2 0x1662 DUP3 PUSH2 0x1623 JUMP JUMPDEST PUSH1 0x20 DUP3 ADD SWAP1 POP SWAP2 SWAP1 POP JUMP JUMPDEST PUSH0 PUSH1 0x20 DUP3 ADD SWAP1 POP DUP2 DUP2 SUB PUSH0 DUP4 ADD MSTORE PUSH2 0x1684 DUP2 PUSH2 0x164B JUMP JUMPDEST SWAP1 POP SWAP2 SWAP1 POP JUMP JUMPDEST PUSH32 0x4261642069640000000000000000000000000000000000000000000000000000 PUSH0 DUP3 ADD MSTORE POP JUMP JUMPDEST PUSH0 PUSH2 0x16BF PUSH1 0x6 DUP4 PUSH2 0x1238 JUMP JUMPDEST SWAP2 POP PUSH2 0x16CA DUP3 PUSH2 0x168B JUMP JUMPDEST PUSH1 0x20 DUP3 ADD SWAP1 POP SWAP2 SWAP1 POP JUMP JUMPDEST PUSH0 PUSH1 0x20 DUP3 ADD SWAP1 POP DUP2 DUP2 SUB PUSH0 DUP4 ADD MSTORE PUSH2 0x16EC DUP2 PUSH2 0x16B3 JUMP JUMPDEST SWAP1 POP SWAP2 SWAP1 POP JUMP JUMPDEST PUSH32 0x4E487B7100000000000000000000000000000000000000000000000000000000 PUSH0 MSTORE PUSH1 0x32 PUSH1 0x4 MSTORE PUSH1 0x24 PUSH0 REVERT JUMPDEST PUSH32 0x416C726561647920657865637574656400000000000000000000000000000000 PUSH0 DUP3 ADD MSTORE POP JUMP JUMPDEST PUSH0 PUSH2 0x1754 PUSH1 0x10 DUP4 PUSH2 0x1238 JUMP JUMPDEST SWAP2 POP PUSH2 0x175F DUP3 PUSH2 0x1720 JUMP JUMPDEST PUSH1 0x20 DUP3 ADD SWAP1 POP SWAP2 SWAP1 POP JUMP JUMPDEST PUSH0 PUSH1 0x20 DUP3 ADD SWAP1 POP DUP2 DUP2 SUB PUSH0 DUP4 ADD MSTORE PUSH2 0x1781 DUP2 PUSH2 0x1748 JUMP JUMPDEST SWAP1 POP SWAP2 SWAP1 POP JUMP JUMPDEST PUSH32 0x4E6F7420656E6F75676820617070726F76616C73000000000000000000000000 PUSH0 DUP3 ADD MSTORE POP JUMP JUMPDEST PUSH0 PUSH2 0x17BC PUSH1 0x14 DUP4 PUSH2 0x1238 JUMP JUMPDEST SWAP2 POP PUSH2 0x17C7 DUP3 PUSH2 0x1788 JUMP JUMPDEST PUSH1 0x20 DUP3 ADD SWAP1 POP SWAP2 SWAP1 POP JUMP JUMPDEST PUSH0 PUSH1 0x20 DUP3 ADD SWAP1 POP DUP2 DUP2 SUB PUSH0 DUP4 ADD MSTORE PUSH2 0x17E9 DUP2 PUSH2 0x17B0 JUMP JUMPDEST SWAP1 POP SWAP2 SWAP1 POP JUMP JUMPDEST PUSH32 0x506F6F6C206368616E6765640000000000000000000000000000000000000000 PUSH0 DUP3 ADD MSTORE POP JUMP JUMPDEST PUSH0 PUSH2 0x1824 PUSH1 0xC DUP4 PUSH2 0x1238 JUMP JUMPDEST SWAP2 POP PUSH2 0x182F DUP3 PUSH2 0x17F0 JUMP JUMPDEST PUSH1 0x20 DUP3 ADD SWAP1 POP SWAP2 SWAP1 POP JUMP JUMPDEST PUSH0 PUSH1 0x20 DUP3 ADD SWAP1 POP DUP2 DUP2 SUB PUSH0 DUP4 ADD MSTORE PUSH2 0x1851 DUP2 PUSH2 0x1818 JUMP JUMPDEST SWAP1 POP SWAP2 SWAP1 POP JUMP JUMPDEST PUSH32 0x4E487B7100000000000000000000000000000000000000000000000000000000 PUSH0 MSTORE PUSH1 0x11 PUSH1 0x4 MSTORE PUSH1 0x24 PUSH0 REVERT JUMPDEST PUSH0 PUSH2 0x188F DUP3 PUSH2 0x1162 JUMP JUMPDEST SWAP2 POP PUSH2 0x189A DUP4 PUSH2 0x1162 JUMP JUMPDEST SWAP3 POP DUP3 DUP3 SUB SWAP1 POP DUP2 DUP2 GT ISZERO PUSH2 0x18B2 JUMPI PUSH2 0x18B1 PUSH2 0x1858 JUMP JUMPDEST JUMPDEST SWAP3 SWAP2 POP POP JUMP JUMPDEST PUSH0 DUP2 SWAP1 POP SWAP3 SWAP2 POP POP JUMP JUMPDEST POP JUMP JUMPDEST PUSH0 PUSH2 0x18D0 PUSH0 DUP4 PUSH2 0x18B8 JUMP JUMPDEST SWAP2 POP PUSH2 0x18DB DUP3 PUSH2 0x18C2 JUMP JUMPDEST PUSH0 DUP3 ADD SWAP1 POP SWAP2 SWAP1 POP JUMP JUMPDEST PUSH0 PUSH2 0x18EF DUP3 PUSH2 0x18C5 JUMP JUMPDEST SWAP2 POP DUP2 SWAP1 POP SWAP2 SWAP1 POP JUMP JUMPDEST PUSH32 0x5061796D656E74206661696C6564000000000000000000000000000000000000 PUSH0 DUP3 ADD MSTORE POP JUMP JUMPDEST PUSH0 PUSH2 0x192D PUSH1 0xE DUP4 PUSH2 0x1238 JUMP JUMPDEST SWAP2 POP PUSH2 0x1938 DUP3 PUSH2 0x18F9 JUMP JUMPDEST PUSH1 0x20 DUP3 ADD SWAP1 POP SWAP2 SWAP1 POP JUMP JUMPDEST PUSH0 PUSH1 0x20 DUP3 ADD SWAP1 POP DUP2 DUP2 SUB PUSH0 DUP4 ADD MSTORE PUSH2 0x195A DUP2 PUSH2 0x1921 JUMP JUMPDEST SWAP1 POP SWAP2 SWAP1 POP JUMP JUMPDEST PUSH32 0x416C726561647920617070726F76656400000000000000000000000000000000 PUSH0 DUP3 ADD MSTORE POP JUMP JUMPDEST PUSH0 PUSH2 0x1995 PUSH1 0x10 DUP4 PUSH2 0x1238 JUMP JUMPDEST SWAP2 POP PUSH2 0x19A0 DUP3 PUSH2 0x1961 JUMP JUMPDEST PUSH1 0x20 DUP3 ADD SWAP1 POP SWAP2 SWAP1 POP JUMP JUMPDEST PUSH0 PUSH1 0x20 DUP3 ADD SWAP1 POP DUP2 DUP2 SUB PUSH0 DUP4 ADD MSTORE PUSH2 0x19C2 DUP2 PUSH2 0x1989 JUMP JUMPDEST SWAP1 POP SWAP2 SWAP1 POP JUMP JUMPDEST PUSH0 PUSH2 0x19D3 DUP3 PUSH2 0x1162 JUMP JUMPDEST SWAP2 POP PUSH2 0x19DE DUP4 PUSH2 0x1162 JUMP JUMPDEST SWAP3 POP DUP3 DUP3 ADD SWAP1 POP DUP1 DUP3 GT ISZERO PUSH2 0x19F6 JUMPI PUSH2 0x19F5 PUSH2 0x1858 JUMP JUMPDEST JUMPDEST SWAP3 SWAP2 POP POP JUMP JUMPDEST PUSH32 0x546F3D3000000000000000000000000000000000000000000000000000000000 PUSH0 DUP3 ADD MSTORE POP JUMP JUMPDEST PUSH0 PUSH2 0x1A30 PUSH1 0x4 DUP4 PUSH2 0x1238 JUMP JUMPDEST SWAP2 POP PUSH2 0x1A3B DUP3 PUSH2 0x19FC JUMP JUMPDEST PUSH1 0x20 DUP3 ADD SWAP1 POP SWAP2 SWAP1 POP JUMP JUMPDEST PUSH0 PUSH1 0x20 DUP3 ADD SWAP1 POP DUP2 DUP2 SUB PUSH0 DUP4 ADD MSTORE PUSH2 0x1A5D DUP2 PUSH2 0x1A24 JUMP JUMPDEST SWAP1 POP SWAP2 SWAP1 POP JUMP JUMPDEST PUSH32 0x416D6F756E743D30000000000000000000000000000000000000000000000000 PUSH0 DUP3 ADD MSTORE POP JUMP JUMPDEST PUSH0 PUSH2 0x1A98 PUSH1 0x8 DUP4 PUSH2 0x1238 JUMP JUMPDEST SWAP2 POP PUSH2 0x1AA3 DUP3 PUSH2 0x1A64 JUMP JUMPDEST PUSH1 0x20 DUP3 ADD SWAP1 POP SWAP2 SWAP1 POP JUMP JUMPDEST PUSH0 PUSH1 0x20 DUP3 ADD SWAP1 POP DUP2 DUP2 SUB PUSH0 DUP4 ADD MSTORE PUSH2 0x1AC5 DUP2 PUSH2 0x1A8C JUMP JUMPDEST SWAP1 POP SWAP2 SWAP1 POP JUMP JUMPDEST PUSH32 0x4E6F7420656E6F75676820696E20706F6F6C0000000000000000000000000000 PUSH0 DUP3 ADD MSTORE POP JUMP JUMPDEST PUSH0 PUSH2 0x1B00 PUSH1 0x12 DUP4 PUSH2 0x1238 JUMP JUMPDEST SWAP2 POP PUSH2 0x1B0B DUP3 PUSH2 0x1ACC JUMP JUMPDEST PUSH1 0x20 DUP3 ADD SWAP1 POP SWAP2 SWAP1 POP JUMP JUMPDEST PUSH0 PUSH1 0x20 DUP3 ADD SWAP1 POP DUP2 DUP2 SUB PUSH0 DUP4 ADD MSTORE PUSH2 0x1B2D DUP2 PUSH2 0x1AF4 JUMP JUMPDEST SWAP1 POP SWAP2 SWAP1 POP JUMP JUMPDEST PUSH32 0x4E487B7100000000000000000000000000000000000000000000000000000000 PUSH0 MSTORE PUSH1 0x41 PUSH1 0x4 MSTORE PUSH1 0x24 PUSH0 REVERT JUMPDEST PUSH0 DUP2 SWAP1 POP DUP2 PUSH0 MSTORE PUSH1 0x20 PUSH0 KECCAK256 SWAP1 POP SWAP2 SWAP1 POP JUMP JUMPDEST PUSH0 PUSH1 0x20 PUSH1 0x1F DUP4 ADD DIV SWAP1 POP SWAP2 SWAP1 POP JUMP JUMPDEST PUSH0 DUP3 DUP3 SHL SWAP1 POP SWAP3 SWAP2 POP POP JUMP JUMPDEST PUSH0 PUSH1 0x8 DUP4 MUL PUSH2 0x1BBD PUSH32 0xFFFFFFFFFFFFFFFFFFFFFFFFFFFFFFFFFFFFFFFFFFFFFFFFFFFFFFFFFFFFFFFF DUP3 PUSH2 0x1B82 JUMP JUMPDEST PUSH2 0x1BC7 DUP7 DUP4 PUSH2 0x1B82 JUMP JUMPDEST SWAP6 POP DUP1 NOT DUP5 AND SWAP4 POP DUP1 DUP7 AND DUP5 OR SWAP3 POP POP POP SWAP4 SWAP3 POP POP POP JUMP JUMPDEST PUSH0 DUP2 SWAP1 POP SWAP2 SWAP1 POP JUMP JUMPDEST PUSH0 PUSH2 0x1C02 PUSH2 0x1BFD PUSH2 0x1BF8 DUP5 PUSH2 0x1162 JUMP JUMPDEST PUSH2 0x1BDF JUMP JUMPDEST PUSH2 0x1162 JUMP JUMPDEST SWAP1 POP SWAP2 SWAP1 POP JUMP JUMPDEST PUSH0 DUP2 SWAP1 POP SWAP2 SWAP1 POP JUMP JUMPDEST PUSH2 0x1C1B DUP4 PUSH2 0x1BE8 JUMP JUMPDEST PUSH2 0x1C2F PUSH2 0x1C27 DUP3 PUSH2 0x1C09 JUMP JUMPDEST DUP5 DUP5 SLOAD PUSH2 0x1B8E JUMP JUMPDEST DUP3 SSTORE POP POP POP POP JUMP JUMPDEST PUSH0 PUSH0 SWAP1 POP SWAP1 JUMP JUMPDEST PUSH2 0x1C46 PUSH2 0x1C37 JUMP JUMPDEST PUSH2 0x1C51 DUP2 DUP5 DUP5 PUSH2 0x1C12 JUMP JUMPDEST POP POP POP JUMP JUMPDEST JUMPDEST DUP2 DUP2 LT ISZERO PUSH2 0x1C74 JUMPI PUSH2 0x1C69 PUSH0 DUP3 PUSH2 0x1C3E JUMP JUMPDEST PUSH1 0x1 DUP2 ADD SWAP1 POP PUSH2 0x1C57 JUMP JUMPDEST POP POP JUMP JUMPDEST PUSH1 0x1F DUP3 GT ISZERO PUSH2 0x1CB9 JUMPI PUSH2 0x1C8A DUP2 PUSH2 0x1B61 JUMP JUMPDEST PUSH2 0x1C93 DUP5 PUSH2 0x1B73 JUMP JUMPDEST DUP2 ADD PUSH1 0x20 DUP6 LT ISZERO PUSH2 0x1CA2 JUMPI DUP2 SWAP1 POP JUMPDEST PUSH2 0x1CB6 PUSH2 0x1CAE DUP6 PUSH2 0x1B73 JUMP JUMPDEST DUP4 ADD DUP3 PUSH2 0x1C56 JUMP JUMPDEST POP POP JUMPDEST POP POP POP JUMP JUMPDEST PUSH0 DUP3 DUP3 SHR SWAP1 POP SWAP3 SWAP2 POP POP JUMP JUMPDEST PUSH0 PUSH2 0x1CD9 PUSH0 NOT DUP5 PUSH1 0x8 MUL PUSH2 0x1CBE JUMP JUMPDEST NOT DUP1 DUP4 AND SWAP2 POP POP SWAP3 SWAP2 POP POP JUMP JUMPDEST PUSH0 PUSH2 0x1CF1 DUP4 DUP4 PUSH2 0x1CCA JUMP JUMPDEST SWAP2 POP DUP3 PUSH1 0x2 MUL DUP3 OR SWAP1 POP SWAP3 SWAP2 POP POP JUMP JUMPDEST PUSH2 0x1D0A DUP3 PUSH2 0x122E JUMP JUMPDEST PUSH8 0xFFFFFFFFFFFFFFFF DUP2 GT ISZERO PUSH2 0x1D23 JUMPI PUSH2 0x1D22 PUSH2 0x1B34 JUMP JUMPDEST JUMPDEST PUSH2 0x1D2D DUP3 SLOAD PUSH2 0x158B JUMP JUMPDEST PUSH2 0x1D38 DUP3 DUP3 DUP6 PUSH2 0x1C78 JUMP JUMPDEST PUSH0 PUSH1 0x20 SWAP1 POP PUSH1 0x1F DUP4 GT PUSH1 0x1 DUP2 EQ PUSH2 0x1D69 JUMPI PUSH0 DUP5 ISZERO PUSH2 0x1D57 JUMPI DUP3 DUP8 ADD MLOAD SWAP1 POP JUMPDEST PUSH2 0x1D61 DUP6 DUP3 PUSH2 0x1CE6 JUMP JUMPDEST DUP7 SSTORE POP PUSH2 0x1DC8 JUMP JUMPDEST PUSH1 0x1F NOT DUP5 AND PUSH2 0x1D77 DUP7 PUSH2 0x1B61 JUMP JUMPDEST PUSH0 JUMPDEST DUP3 DUP2 LT ISZERO PUSH2 0x1D9E JUMPI DUP5 DUP10 ADD MLOAD DUP3 SSTORE PUSH1 0x1 DUP3 ADD SWAP2 POP PUSH1 0x20 DUP6 ADD SWAP5 POP PUSH1 0x20 DUP2 ADD SWAP1 POP PUSH2 0x1D79 JUMP JUMPDEST DUP7 DUP4 LT ISZERO PUSH2 0x1DBB JUMPI DUP5 DUP10 ADD MLOAD PUSH2 0x1DB7 PUSH1 0x1F DUP10 AND DUP3 PUSH2 0x1CCA JUMP JUMPDEST DUP4 SSTORE POP JUMPDEST PUSH1 0x1 PUSH1 0x2 DUP9 MUL ADD DUP9 SSTORE POP POP POP JUMPDEST POP POP POP POP POP POP JUMP JUMPDEST DUP3 DUP2 DUP4 CALLDATACOPY PUSH0 DUP4 DUP4 ADD MSTORE POP POP POP JUMP JUMPDEST PUSH0 PUSH2 0x1DE9 DUP4 DUP6 PUSH2 0x1238 JUMP JUMPDEST SWAP4 POP PUSH2 0x1DF6 DUP4 DUP6 DUP5 PUSH2 0x1DD0 JUMP JUMPDEST PUSH2 0x1DFF DUP4 PUSH2 0x1256 JUMP JUMPDEST DUP5 ADD SWAP1 POP SWAP4 SWAP3 POP POP POP JUMP JUMPDEST PUSH0 PUSH1 0x40 DUP3 ADD SWAP1 POP PUSH2 0x1E1D PUSH0 DUP4 ADD DUP7 PUSH2 0x121F JUMP JUMPDEST DUP2 DUP2 SUB PUSH1 0x20 DUP4 ADD MSTORE PUSH2 0x1E30 DUP2 DUP5 DUP7 PUSH2 0x1DDE JUMP JUMPDEST SWAP1 POP SWAP5 SWAP4 POP POP POP POP JUMP JUMPDEST PUSH32 0x4E6F204554480000000000000000000000000000000000000000000000000000 PUSH0 DUP3 ADD MSTORE POP JUMP JUMPDEST PUSH0 PUSH2 0x1E6E PUSH1 0x6 DUP4 PUSH2 0x1238 JUMP JUMPDEST SWAP2 POP PUSH2 0x1E79 DUP3 PUSH2 0x1E3A JUMP JUMPDEST PUSH1 0x20 DUP3 ADD SWAP1 POP SWAP2 SWAP1 POP JUMP JUMPDEST PUSH0 PUSH1 0x20 DUP3 ADD SWAP1 POP DUP2 DUP2 SUB PUSH0 DUP4 ADD MSTORE PUSH2 0x1E9B DUP2 PUSH2 0x1E62 JUMP JUMPDEST SWAP1 POP SWAP2 SWAP1 POP JUMP JUMPDEST PUSH0 PUSH1 0x40 DUP3 ADD SWAP1 POP PUSH2 0x1EB5 PUSH0 DUP4 ADD DUP6 PUSH2 0x121F JUMP JUMPDEST PUSH2 0x1EC2 PUSH1 0x20 DUP4 ADD DUP5 PUSH2 0x121F JUMP JUMPDEST SWAP4 SWAP3 POP POP POP JUMP INVALID LOG2 PUSH5 0x6970667358 0x22 SLT KECCAK256 DUP3 EXTCODESIZE DUP10 PUSH11 0x61CD4F4B2432B34461CA4A SMOD CODECOPY SGT SUB PUSH13 0x408EBDD7F6D925EC2E2015F464 PUSH20 0x6F6C634300081F00330000000000000000000000 "
				},
				"gasEstimates": {
					"creation": {
						"codeDepositCost": "1587000",
						"executionCost": "infinite",
						"totalCost": "infinite"
					},
					"external": {
						"approveProposal(uint256)": "infinite",
						"approvedBy(uint256,address)": "3181",
						"createProposal(address,uint256,string)": "infinite",
						"deposit()": "infinite",
						"executeProposal(uint256)": "infinite",
						"getProposal(uint256)": "infinite",
						"isMember(address)": "2900",
						"memberCount()": "2485",
						"members(uint256)": "5033",
						"poolBalance()": "2448",
						"proposalCount()": "2528",
						"proposals(uint256)": "infinite",
						"threshold()": "2492"
					}
				},
				"methodIdentifiers": {
					"approveProposal(uint256)": "98951b56",
					"approvedBy(uint256,address)": "85667f1c",
					"createProposal(address,uint256,string)": "cca5a8b2",
					"deposit()": "d0e30db0",
					"executeProposal(uint256)": "0d61b519",
					"getProposal(uint256)": "c7f758a8",
					"isMember(address)": "a230c524",
					"memberCount()": "11aee380",
					"members(uint256)": "5daf08ca",
					"poolBalance()": "96365d44",
					"proposalCount()": "da35c664",
					"proposals(uint256)": "013cf08b",
					"threshold()": "42cde4e8"
				}
			},
			"storageLayout": {
				"storage": [
					{
						"astId": 5,
						"contract": "Tripsplit.sol:TripSplit",
						"label": "unlocked",
						"offset": 0,
						"slot": "0",
						"type": "t_uint256"
					},
					{
						"astId": 31,
						"contract": "Tripsplit.sol:TripSplit",
						"label": "members",
						"offset": 0,
						"slot": "1",
						"type": "t_array(t_address)dyn_storage"
					},
					{
						"astId": 35,
						"contract": "Tripsplit.sol:TripSplit",
						"label": "isMember",
						"offset": 0,
						"slot": "2",
						"type": "t_mapping(t_address,t_bool)"
					},
					{
						"astId": 38,
						"contract": "Tripsplit.sol:TripSplit",
						"label": "threshold",
						"offset": 0,
						"slot": "3",
						"type": "t_uint256"
					},
					{
						"astId": 40,
						"contract": "Tripsplit.sol:TripSplit",
						"label": "poolBalance",
						"offset": 0,
						"slot": "4",
						"type": "t_uint256"
					},
					{
						"astId": 57,
						"contract": "Tripsplit.sol:TripSplit",
						"label": "proposals",
						"offset": 0,
						"slot": "5",
						"type": "t_array(t_struct(Proposal)53_storage)dyn_storage"
					},
					{
						"astId": 63,
						"contract": "Tripsplit.sol:TripSplit",
						"label": "approvedBy",
						"offset": 0,
						"slot": "6",
						"type": "t_mapping(t_uint256,t_mapping(t_address,t_bool))"
					}
				],
				"types": {
					"t_address": {
						"encoding": "inplace",
						"label": "address",
						"numberOfBytes": "20"
					},
					"t_address_payable": {
						"encoding": "inplace",
						"label": "address payable",
						"numberOfBytes": "20"
					},
					"t_array(t_address)dyn_storage": {
						"base": "t_address",
						"encoding": "dynamic_array",
						"label": "address[]",
						"numberOfBytes": "32"
					},
					"t_array(t_struct(Proposal)53_storage)dyn_storage": {
						"base": "t_struct(Proposal)53_storage",
						"encoding": "dynamic_array",
						"label": "struct TripSplit.Proposal[]",
						"numberOfBytes": "32"
					},
					"t_bool": {
						"encoding": "inplace",
						"label": "bool",
						"numberOfBytes": "1"
					},
					"t_mapping(t_address,t_bool)": {
						"encoding": "mapping",
						"key": "t_address",
						"label": "mapping(address => bool)",
						"numberOfBytes": "32",
						"value": "t_bool"
					},
					"t_mapping(t_uint256,t_mapping(t_address,t_bool))": {
						"encoding": "mapping",
						"key": "t_uint256",
						"label": "mapping(uint256 => mapping(address => bool))",
						"numberOfBytes": "32",
						"value": "t_mapping(t_address,t_bool)"
					},
					"t_string_storage": {
						"encoding": "bytes",
						"label": "string",
						"numberOfBytes": "32"
					},
					"t_struct(Proposal)53_storage": {
						"encoding": "inplace",
						"label": "struct TripSplit.Proposal",
						"members": [
							{
								"astId": 42,
								"contract": "Tripsplit.sol:TripSplit",
								"label": "proposer",
								"offset": 0,
								"slot": "0",
								"type": "t_address"
							},
							{
								"astId": 44,
								"contract": "Tripsplit.sol:TripSplit",
								"label": "to",
								"offset": 0,
								"slot": "1",
								"type": "t_address_payable"
							},
							{
								"astId": 46,
								"contract": "Tripsplit.sol:TripSplit",
								"label": "amount",
								"offset": 0,
								"slot": "2",
								"type": "t_uint256"
							},
							{
								"astId": 48,
								"contract": "Tripsplit.sol:TripSplit",
								"label": "memo",
								"offset": 0,
								"slot": "3",
								"type": "t_string_storage"
							},
							{
								"astId": 50,
								"contract": "Tripsplit.sol:TripSplit",
								"label": "approvals",
								"offset": 0,
								"slot": "4",
								"type": "t_uint256"
							},
							{
								"astId": 52,
								"contract": "Tripsplit.sol:TripSplit",
								"label": "executed",
								"offset": 0,
								"slot": "5",
								"type": "t_bool"
							}
						],
						"numberOfBytes": "192"
					},
					"t_uint256": {
						"encoding": "inplace",
						"label": "uint256",
						"numberOfBytes": "32"
					}
				}
			},
			"userdoc": {
				"kind": "user",
				"methods": {
					"approveProposal(uint256)": {
						"notice": "Approve a proposal (one vote per member)"
					},
					"constructor": {
						"notice": "Constructor initializes membership mapping"
					},
					"createProposal(address,uint256,string)": {
						"notice": "Create a payment proposal (needs approvals to execute)"
					},
					"deposit()": {
						"notice": "Any member can deposit ETH into the shared pool"
					},
					"executeProposal(uint256)": {
						"notice": "Execute proposal if approvals reach threshold"
					}
				},
				"notice": "Teaching example: threshold approvals (mini multisig), proposals, voting, events, safe ETH transfers",
				"version": 1
			}
		}
	}
}